:020000041000EA
:10000000002008205D0100101B0100101D010010E0
:100010001101001011010010110100101101001058
:100020001901001019010010190100101F01001022
:10003000110100101901001021010010230100100E
:100040001101001011010010110100101101001028
:100050001101001011010010110100101101001018
:100060001101001011010010110100101101001008
:1000700011010010110100101101001011010010F8
:1000800011010010110100101101001011010010E8
:1000900011010010110100101101001011010010D8
:1000A00011010010110100101101001011010010C8
:1000B00011010010110100101101001011010010B8
:1000C00011010010110100101101001011010010A8
:1000D0001101001011010010110100101101001098
:1000E0001101001011010010110100101101001088
:1000F0001101001011010010110100101101001078
:100100001101001011010010110100101101001067
:10011000EFF30580103800BE00BE00BE00BE00BE7A
:1001200000BE00BEF2EB8871FC9500102096001016
:10013000A001001090A31AE7D3DEFFFF42012110B7
:10014000FF01000018B20000793512AB4FF000003B
:100150001E49086006C881F3088810474FF05040D8
:10016000006810B14FF00000F2E70DA40ECC00299A
:1001700002D000F012F8F9E71549164A002000E015
:1001800001C19142FCD11449884714498847144958
:10019000884700BEFDE701C901C29A42FBD3704700
:1001A0002096001010010020401E002050B30010C7
:1001B000000008200000082050B3001000100820A4
:1001C00000100820000000007047000008ED00E06B
:1001D000401E00203C840220CD310010210300107D
:1001E000C5310010F8B500BF064B0749C91A891080
:1001F00048BF0131491003D0044B0BB101481847E7
:10020000704700BF401E0020401E0020000000007C
:1002100008B5054B1BB105490548AFF30080BDE8A3
:100220000840FFF7E1BF00BF00000000A82B00203E
:10023000B06A001008B5034D034C2968206806F029
:10024000EBFBFAE714270020FC17002010B5084C40
:100250002068012806D0002000F08EFE0123012036
:10026000236010BD00F088FE00230120236010BD34
:10027000F017002010B584B003AB02AA01A9044610
:1002800002F04AFC18B92146044801F061FB0198CC
:10029000DDE9021202F07EFB04B010BDB06A00106E
:1002A000002110B5184C084623681B69984723683D
:1002B00000210420DB68984723681448DB6A9847CC
:1002C000236800210320DB68984723681048DB6A15
:1002D0009847236806200021DB6898470D4B1A7861
:1002E0002368012A94BF0C480C48DB6A98472368AE
:1002F000042100201B69984723680021BDE81040B5
:100300000220DB68184700BF1C2C0020E46A0010A4
:10031000106B001038840220286B0010686B0010EE
:1003200000B585B003F04AF82E48FFF7A3FF00F0B0
:10033000BDF803F043F82C48FFF79CFF022001F0C2
:1003400083F94FF0020C8646284C294D03234FF4C5
:10035000207230210020C4F800E085F800C000F0D1
:1003600073FD03234FF420723121002000F06CFD57
:10037000204D03234FF420723221002000F064FD51
:100380004FF4207233210323002000F05DFDFFF7BE
:1003900087FF284602F01EFA23689B6898470446A8
:1003A00002F006F800214FF47A72134BCDE90115E3
:1003B000009323B283FB022302F07CF90F4805F07F
:1003C000BBFD01210E4A0F4B10681B6808305A68AC
:1003D00081400A4204D153F820205A680A42FAD0D8
:1003E000FEE700BF400D0300F04902001C2C002076
:1003F00038840220C81F00204D0200103502001072
:1004000014270020FC170020244870B40468A101C0
:1004100001F1A0431A69520117D44FF4113C204B4B
:10042000204803F5A05200EA44309D0712D012F88C
:10043000011BBCF1010C03F8011BF6D14FF4A052D3
:1004400070BC0021184806F073B81A695601FCD434
:100450000468E2E75FEA9C060CF0030511D040F463
:10046000FC00A10101F1A04140F059000A604B607D
:100470008E60C86008694001FCD42CF0030C634412
:100480006244002DDAD01178012D1970D6D0517840
:10049000022D59701CBF92789A70CFE7A02B0020D4
:1004A000282C0020FDFF7FFC28700220F0B5474972
:1004B00089B0474805F080FB0024464B064621469C
:1004C00043481C6005F054FB4FF480304FF4F83182
:1004D0004FF440234FF4000E6D46CDE90001039424
:1004E00002930DF1100C06F11703F70147EA0337E9
:1004F0009DE80F008CE80F0005979CE80F008DE841
:100500000F00CDF80CE020460721013401F0EEF990
:100510000E2CF8D1039B072123F0E05323F47873CA
:1005200043F0806343F4E073204603930F2701F008
:10053000DDF94FF0000343EC4470152443EC4440D4
:1005400000223846012101F0EFF900222046012166
:1005500001F0EAF93846072101F0C8F920460721E1
:1005600001F0C4F9DDE901746FF31D4427F0F85779
:1005700044F0847444F480344FF480420021164BDC
:10058000134847F070670294019705F0A9FB104CDF
:10059000616811F48031FBD144F2FF0C324648F21D
:1005A000A0074AF247062B464FF48035C4F810C026
:1005B0000748C4F8D870C4F8D860009505F00CFC62
:1005C000236843F00103236009B0F0BDCC6D001037
:1005D0000000305014270020FFFF20002DE9F843D1
:1005E0000124DFF89890DFF89880214ED9F8003088
:1005F000D8F800101F48326804FA01F104FA03F336
:10060000056804FA02F21C4F0B43134325EA030367
:100610003D46036005F04AFB38464FF00041D9F8EB
:100620000020DFF860C0131D04FA03F3CCF800309B
:1006300002EB4202D8F80030D20017441A1D04FA27
:1006400002F2CCF8002003EB43033268DB001D44C8
:1006500002EB4203DB00043218449440CCF8004023
:10066000396039602960296001600160BDE8F88364
:10067000F417002000002050D010205094270020B4
:10068000F8170020002020502DE9F04F2DED028BAF
:10069000144691B004900691FFF7A0FF052C00F2DC
:1006A0002B81DFE814F00600060055015501060015
:1006B00055019949994805F07FFA9949814697482B
:1006C00005F07AFA97498046944805F075FA9FED4F
:1006D0008E8B954B07461968904805F049FA934A66
:1006E000DFF860B211688D48039205F041FA8B483B
:1006F000DBF8001005F03CFA4FF4402A00218DEDA4
:10070000088B09F1060609F10103360346EAC31610
:10071000854B08AC18680CAD0B91CDF828A005905E
:1007200094E80F0085E80F000D96012695E80F006C
:10073000DFF814C284E80F0006211020CDF82CC089
:10074000CDF820A001F0D2F833461022059900968A
:10075000724805F0FBFA23464A4605996F4805F0B2
:100760003BFB4FF440330C9308F10D0308EB0602FA
:100770001B0343EAC21323F0C043039A43F08043B0
:10078000D2F800900D936A4B062111200F93CDF8FB
:1007900038A001F0ABF833461122494600965F4875
:1007A00005F0D4FA42462B4649465C4805F014FB56
:1007B00000218DED088B9FED567BCDE90AA107F155
:1007C000080CBB1C4FEA0C3C4CEAC31C94E80F001D
:1007D00085E80F00CDF834C095E80F0084E80F00DD
:1007E000062112208DED0A7BDBF8008001F07EF8F7
:1007F0000621132001F07AF80621142001F076F882
:100800000323122241460096444805F09FFA2346EE
:1008100041463A46414805F0DFFA434B3F4C1968E0
:1008200001F110039E4063683342FCD140F247154A
:100830000122039B18680B1D44F8235000F110039C
:10084000364D9A406B681342FCD140F2DF1601220C
:10085000DBF80040031D45F82360DFF8C08004F199
:1008600010039A40D8F804301342FBD101259F238E
:10087000049E05FA00F0D6F800C0261D48F8263080
:1008800005FA01F3034305FA04F10B43190201F4DD
:100890007061DFF8B8E003F00F030B43254A264FE1
:1008A000CEF800302846C7F800C0176805F0E8FA0F
:1008B0004FF0A041214B8540820118600A44C1F8E5
:1008C0006454D3685B01FCD4C1F80C54A021049B90
:1008D00007EB8606136007F12F4303F560031B0D3A
:1008E00004EBC304164B566003EA403343EA444327
:1008F00043F011039160136111B0BDEC028BBDE8B0
:10090000F08F00BFAFF300800000010000F0010095
:1009100000000C405202300CA06E0010000020506D
:100920007C6E0010606E001094270020F8170020E5
:100930002046004400180020242C0020F02B00202A
:10094000FDFF01FCF41700200002000400202050ED
:10095000AD49AE4805F030F9AD490746AB4805F062
:100960002BF9AC498246A94805F026F903469FEDCC
:10097000A28BA94AA5481168059305F0F9F8A74983
:10098000DFF8B8B2A1480391096805F0F1F89F4873
:10099000DBF8001005F0ECF84FF4402900208DED55
:1009A000088B9D4A07F10806CDE90A907B1C3603A7
:1009B00046EAC316136808AC0CAD4FF4C028079381
:1009C00094E80F0085E80F000D96012695E80F00CA
:1009D000DFF86CC284E80F0006211020CDF82CC08F
:1009E000CDF8208000F082FF334610220799009650
:1009F000864805F0ABF923463A460799834805F047
:100A0000EBF90AF10D030AEB06021B0343EAC213DA
:100A1000039F23F0C04343F080433F680D93804B16
:100A200006211120CDF83080CDF838900F9300F0DA
:100A30005DFF3346394611220096744805F086F969
:100A400039462B465246714805F0C6F900208DED17
:100A5000088B059BCDE90A900FF2A419D9E900890A
:100A600003F1080C4FEA0C3C02334CEAC31C94E837
:100A70000F0085E80F00CDF834C095E80F0084E83A
:100A80000F0006211220DBF80070CDE90A8900F082
:100A90002DFF0621132000F029FF0621142000F06D
:100AA00025FF0323122239460096584805F04EF9D7
:100AB0002346059A3946554805F08EF9564A534C57
:100AC000126802F110039E4063683342FCD140F289
:100AD0008F250121039B1868131D44F8235000F152
:100AE00010034A4C994063680B42FCD140F2DF1678
:100AF0000121DBF80050031D44F82360434F05F14A
:100B0000100399407B680B42FCD1012340F23F1E49
:100B10004FF0A04103FA00F003FA02F205F1040CD1
:100B2000024303FA05F52A43100200F470603D4EBB
:100B30003D4C02F00F02024347F82CE0326022687D
:100B400003FA02F0394B92011D680A44C1F86404AB
:100B5000D3685E01FCD4C1F80C0401204FF0A0461C
:100B6000334F3B689A0198403244C1F86404D3681B
:100B70005B01FCD4C6F80C04012005F081F920606B
:100B8000012005F07DF90121D4F800C0DBF8004018
:100B9000284A04F1040E05EB8E04049D386002EA35
:100BA0004C322F684FEA8C1505F1A04542EA4032DD
:100BB000214B2F6042F480226C60069C03EA403394
:100BC00042F01102AC6043EA4C332A618001049A7E
:100BD00000F1A04043F4FC03026043F0090301FA72
:100BE0000CF2456081600361C6F8502411B0BDEC81
:100BF000028BBDE8F08F00BF0000010000F0010093
:100C000000000C405202300C446E001000002050D6
:100C1000206E0010046E001094270020F8170020AA
:100C20002046004400202050F02B00200018002017
:100C3000F42B0020FD1F00FCFD1F7EFCF41700209C
:100C400000020004054B1B685B6D5A68197C138811
:100C50005B1A1BB223EAE37313807047202C002039
:100C6000054B1B685B6D5A68597C53885B1A1BB235
:100C700023EAE37353807047202C00200B4B1B6842
:100C8000596D4A680B7C108803441BB24F2B01DC62
:100C90001380704700201080B2F802C04B7C634480
:100CA0001BB21E2BD4BF538050807047202C0020D5
:100CB000064B1B685B6D5A685B7C51880B441BB20A
:100CC0001F2BA8BF00235380704700BF202C00209B
:100CD000024B1B685B6D9862704700BF202C0020A0
:100CE0000021024B08461B681B691847202C002076
:100CF0000A4B1B685B6D187205280AD8DFE800F004
:100D0000060603030603064A1A607047054A1A607E
:100D10007047022202491A7219607047202C002085
:100D20008002E0014001F0000F4B1B685B6DB3F8DF
:100D300000C0844517D900B5B3F802E08E4510D93C
:100D40001A7C12FB00F258685B7C92B213FB01F331
:100D50009BB2944598BF00229E4598BF0023028015
:100D600043805DF804FB7047202C0020024B1B6879
:100D70005B6D987C704700BF202C0020024B1B68E5
:100D80005B6D5B68D8807047202C0020024B1B688D
:100D90005B6D5B68D8887047202C0020024B1B6875
:100DA0005B6D5B6818717047202C0020024B1B683C
:100DB0005B6D5B6858717047202C0020024B1B68EC
:100DC0005B6D187659767047202C0020024B1B680B
:100DD0005B6D187E704700BF202C0020064B10B5BD
:100DE0001B6800215C6DE269A06A05F0A1FB00228E
:100DF00063681A6010BD00BF202C0020114B30B575
:100E00001B685C6D40EA0103B4F802E0DB0F8E451D
:100E1000D8BF43F00103B4F800C06BB984450BDDC3
:100E200001FB0C00A56A4110C0076B5C05D5208C46
:100E3000034043EA02126A5430BD608C03401A43F7
:100E40006A5430BD202C00202DE9F041214C24684B
:100E5000D4F85480B8F800C0844519DD1F46B8F8AE
:100E600002300E468B4213DD83189C45B8BFACEBB5
:100E7000000C1446B8BF0CF1FF34C207054620D45D
:100E8000E30715D46210002A02DDB6F5F07F01DB1E
:100E9000BDE8F081D8F8280006EB86066D1005EB5A
:100EA000861547EA07112844BDE8F04105F040BB2C
:100EB000281901383A4600B231B2FFF79FFF013CD2
:100EC000E0E73A4609B200B2FFF798FF0135013C6E
:100ED000D6E700BF202C00202DE9F04F254C8A4694
:100EE00026685918746D9DF824706588A94203DD41
:100EF0006B1EA3EB0A031BB29042844637DC9A4573
:100F000035DC02F101095D1C4FEA071853460FFA60
:100F10008CF109E0228C024042EA08020BF80E2014
:100F20000133AB421DD0746D2288608841EA030E04
:100F30006245C8BF9842F3DD1EF4004FF0D103FBB9
:100F400002C2D4F828B04FEA620ED2071BF80E0096
:100F5000E0D4628C013310403843AB420BF80E00F2
:100F6000E1D10CF1010CCC4501D0746DCEE7BDE8A8
:100F7000F08F00BF202C00207A4B2DE9F04F1B682A
:100F800085B0D3F85490D9F8043099F818701D79C9
:100F900099F81960B3F90040B3F902A0002D75D09B
:100FA0005D79002D3AD08046002800F0A5801D7A9A
:100FB00051461023082220460096FFF78DFF99F82E
:100FC000113015FB03F133B30022674BCDF80890C5
:100FD0001944CDF80CA091468A4607344FF0070B10
:100FE000039B1AF8018F03EB09052DB248FA0BF3A6
:100FF000DB07A4EB0B004CBF3A463246294600B251
:10100000FFF7FCFEBBF1010BF0D2029B09F10109D5
:101010005B7C9945E2DB05B0BDE8F08F93F8088072
:1010200051461023082220460096FFF755FF99F8F5
:10103000113018FB03F1002BEDD04B4BCDF808908D
:101040001944CDF80CA0A9468A4607344FF0070B87
:10105000039B1AF8018F03EB09052DB248FA0BF335
:10106000DA07A4EB0B004CBF3A463246294600B2E1
:10107000FFF7C4FEBBF1010BF0D2029B09F101099D
:101080005B7C9945E2DB05B0BDE8F08F102351464B
:10109000082220460096FFF71FFF99F811305901EA
:1010A000002BB8D0314BCDF808901944CDF80CA0E6
:1010B0002A468946AA4607344FF0070B039B19F8C6
:1010C000018B0AEB03052DB248FA0BF3DB07A4EB07
:1010D0000B004CBF3A463246294600B2FFF78EFE5F
:1010E000BBF1010BF0D2029B0AF1010A5B7C9A452D
:1010F000E2DB05B0BDE8F08F102351460822204600
:101100000096FFF7E9FE99F811305901002B82D0C3
:10111000164BCDF808901944CDF80CA04246C146B4
:101120008A4607344FF0070B039B1AF8018B09EB33
:1011300003052DB248FA0BF3D907A4EB0B004CBF03
:101140003A463246294600B2FFF758FEBBF1010B82
:10115000F0D2029B09F101095B7C9945E2DB05B005
:10116000BDE8F08F202C00205F02002060020020EC
:10117000A64B2DE9F04F1C68A0F10803656D89B0FE
:10118000A946052B3ED8DFE803F01BB4123D3D0312
:101190006B68002201201A80FFF7EEFE6A686B88F8
:1011A000B2F902709F421FDA09B0BDE8F08F00204B
:1011B000FFF7E2FE6B686A7C59880A445A80E8E7C8
:1011C0000020FFF7D9FE6A68297C138801205B1A8A
:1011D0001BB223EAE3731380FFF7CEFE6A686B88C5
:1011E000B2F902709F42DFDBFFF70EF90022D9F857
:1011F00004301A8099F811105A88521A5A8009B08E
:10120000BDE8F08F2B7E6A680493AB7C0646022B08
:1012100095F819B0B2F90080B2F9027077D01023B6
:10122000404608223946CDF800B0FFF755FE6B7CEA
:1012300016FB03F0002B00F0BE801FFA88F3002697
:101240001946734ABFB210444FEA0B120592049A32
:101250001201CDE9062510F801AF0A464FF0070C40
:10126000CDE902600FFA87F919E083B908FB090894
:10127000B06A4FEA680E18F0010F10F80E3000F057
:10128000B280368C1E40069B1E4300F80E600CF1A7
:10129000FF3C0132BCF1FF3F92B200F08180666DED
:1012A00047EA02007388B6F800809945B4BF00236E
:1012B00001234AFA0CFE43EAD03310B28045D8BF6E
:1012C00043F001031EF0010FCFD1002BDFD108FB4B
:1012D0000900D6F828804FEA600EC00718F80E30D3
:1012E00040F18880308C1840059B184308F80E00A8
:1012F000CDE7696895F82430B1F90020B1F90270A2
:101300001A442B8893426B88C8BF0A804AE7B5F815
:1013100000C04046C4456B8855DD9F4253DA18F142
:101320000B0F50DB17F10F0FC0F2CE8007F1100248
:101330009342AFBF102103F1FF31C91B89B2B8F14D
:10134000100F09B266DC8F4264DC01318C463B46EB
:1013500008E02A8C0AEA02020EF8012001336345F4
:101360004FD0656D2A88B5F802E082428CBF00211B
:1013700001219E45D8BF41F001010029EED1002B8B
:10138000ECDB03FB0202D5F828E05110D2071EF86F
:1013900001A0DED46A8C0AEA020A0EF801A0DDE799
:1013A0006A7CDDE90260013601379642BFB2FFF682
:1013B00052AFDDF81C906A68B5F800C0B2F9008041
:1013C0006B88B2F9027099F81010414409B2614576
:1013D0001180FFF6E7AE002099F811101080394413
:1013E0000FB25780DEE6768C3340049E334300F81C
:1013F0000E304CE7708C03404BEA030308F80E30C4
:1014000045E70130112805D0656DA0E7202C0020AC
:101410005F020020049A06EB86065A451FFA88F3FD
:10142000BAB258D01D46464F03F10A01374402F1C3
:10143000100ACDF80890B946049F89B21FFA8AFABB
:1014400019F8016BCDE903250FFA85F8CDF8149052
:101450005D461446894693460223F20721B204F101
:1014600002044CBF0097009540461A46A4B2FFF70D
:1014700033FD54454FEA5606EED149465A46AB462F
:10148000049D0398AB1C9DB28D42DDF81490D7D11A
:101490002B465E460546DDF808901CB2022329B2B1
:1014A000023520461A460096ADB2FFF715FD5545A8
:1014B000F4D1D9F80420B9F800C0B2F90080B2F92B
:1014C0000270B9F802307EE7297C414409B28C45AC
:1014D000118080DD68E6CDF808909846914618495D
:1014E00003F10A0702F1100A0E44BFB21FFA8AFA8A
:1014F0004C4616F8015B0FFA88FBC146B8463746E2
:101500005E46A346E90707D50223049A30460092B7
:1015100021B21A46FFF7E0FC0234A4B254454FEA68
:101520005505EFD13E464746C84608F102081FFA66
:1015300088F84745D946DBD1DDF80890B9E700BF08
:10154000CC6E001030B5044600780D4685B028B149
:10155000FFF70EFE14F8010F0028F9D100240D4BFF
:10156000C5F3031205F00F05985C5B5D8DF8040070
:101570008DF805308DF806408DF80C4040B10134EF
:10158000E4B2FFF7F5FD0DEB040318790028F6D15E
:1015900005B030BDB86E001010B50446007828B113
:1015A000FFF7E6FD14F8010F0028F9D110BD00BFC8
:1015B00030B5044600780D4685B028B1FFF7D8FD58
:1015C00014F8010F0028F9D100241D4BC5F30312B4
:1015D00005F00F05985C5B5D8DF804008DF8053013
:1015E0008DF806408DF80C4040B10134E4B2FFF7AD
:1015F000BFFD0DEB040318790028F6D10025114B2F
:1016000000201B685C6DFFF7B7FC6368627C59883B
:101610001D800A445A800120FFF7AEFC626863888F
:10162000B2F902209A4201DA05B030BDFEF7ECFEB5
:1016300063681D80617C5A88521A5A8005B030BD9B
:10164000B86E0010202C00202DE9F84F06465820D7
:1016500001F058FD05463D4F2C203D6001F052FD44
:101660000446002D6AD0002868D0012004F008FC50
:101670000246374B0C201A6000F02CF90346354D1A
:10168000DFF8108132464FF416312846C8F8003092
:10169000FEF7FAFF3B68DFF800915C6500F0DCF8CC
:1016A0000722D5F800C04FF416310425D8F80030D1
:1016B00022831A686060E26030469E88DFF8DC8032
:1016C00026829B796261A374234BC4F828C0C4E9C5
:1016D000071384F82450FFF70BFB204C386820498F
:1016E000204B214AC162C0E900422049204AC36020
:1016F000204B214E214D83630162214B214902631E
:10170000214ADFF89CB0DFF89CA0DFF89CE0DFF80E
:101710009CC01E4C4364C0E906981D4BC0E9096596
:10172000C0E91212C0F810B0C0F83CA0C0F808E040
:10173000C0F814C044630365BDE8F88F284601F083
:10174000FDFC204601F0FAFC0020F5E7202C0020EB
:10175000A02B0020041800200F00F000CD0D001079
:1017600099150010BD0D00106D0D0010D10C00106A
:10177000B115001071110010E10C0010F10C0010F7
:10178000B10C00107D0C0010610C0010451500100C
:10179000450C00108C2700209D0D0010AD0D001091
:1017A000290D0010DD0D00108D0D00107D0D0010B5
:1017B000B0F5207F02D2024B1B681880704700BF33
:1017C000042C0020B0F5F07F02D2024B1B68588039
:1017D000704700BF042C0020B0F5207F02D2054BDB
:1017E0001B681880B1F5F07F02D2024B1B6859804C
:1017F000704700BF042C0020014B1B681871704714
:10180000042C0020014B1B6858717047042C0020E9
:10181000014B1B68D8807047042C0020014B1B68CB
:10182000D8887047042C0020014B1B681872704741
:10183000042C0020014B1B6818887047042C0020E2
:10184000014B1B6858887047042C0020014B1B6813
:1018500018797047042C002010B5382001F052FC94
:10186000E8B1002280230E4C0E49206041600E4CEE
:101870000E490260C0E903410D4C0E490372C0E9F4
:1018800005410D4C0D49C0E907410D4C0D4944631C
:1018900041620D4C0D49C0E90A410D49016310BD7B
:1018A000042C002001019600B1170010C51700108C
:1018B000D9170010F91700100518001011180010A2
:1018C0001D180010291800103518001041180010BC
:1018D0004D1800100A38C0B203289ABF024B53F8C3
:1018E00020000020704700BFC873001010B44FF4F0
:1018F00080740C4B53F8202003EB8003C00082F06F
:10190000400200F1804003F5805C02F0C00200F567
:10191000203003F54053CCF8002041601C605DF896
:10192000044B70470480034010B4084CC90041EADE
:10193000820154F8202004EB8003514003F58053CA
:1019400001F00C015DF8044B1960704704800340FE
:101950000FB400B583B0049C074801F073FD3CB19F
:1019600005A92046019101F0FDFB044801F06AFD44
:10197000012001F00FFC00BFDC6B0010EC6B0010CD
:10198000EFF3108072B6064BD3E8CF1F0122002977
:10199000FAD1C3E8412F0029F6D1BFF35F8F70471A
:1019A000FF2200200023034AC2E88F3F80F3108803
:1019B000704700BFFF22002070B58646EFF3108508
:1019C00072B6124CD4E8CF6F0120002EFAD1C4E8D1
:1019D000460F002EF6D1BFF35F8F4FF0010CC80801
:1019E00001F007030CFA03F31EF800C01CEA03061B
:1019F00008D14CEA030C0EF800C0C4E88F6F85F3E1
:101A0000108870BD1046FFF7A3FF00BFFF22002023
:101A1000F8B5EFF3108772B61C4ED6E8CF5F0124FD
:101A2000002DFAD1C6E8454F002DF6D1BFF35F8FE8
:101A30009A421BD8012502E00132934222D3D408F6
:101A400010F804E002F0070C05FA0CFC1EEA0C0F7B
:101A5000F2D14EEA0C0E00F804E010460023C6E86E
:101A60008F3F87F31088984207DBF8BD0023C6E854
:101A70008F3F87F310884FF0FF300029F5D006988C
:101A8000FFF766FF4FF0FF30E8E700BFFF220020BE
:101A9000044A1078431CDBB2182B28BF10231370A4
:101AA000704700BF3818002010B5054C82B00146C1
:101AB0001F23182200940348FFF7AAFF02B010BDAD
:101AC000F06B0010202700204FF0E022936843F0D5
:101AD00000539360704700BF0021044B03F12002C4
:101AE000C3E88F1F01339342FAD17047F4220020DC
:101AF0004FF0E0234FF08032C3F80024C3F80424F1
:101B0000C3F80824C3F80C24C3F81024C3F8142421
:101B1000C3F81824C3F81C24C3F82024C3F82424D1
:101B2000C3F82824C3F82C24C3F8302462B67047C5
:101B3000012300F01F029340400941B1800000F1F1
:101B4000604000F56140C0F8803103607047024A90
:101B5000203042F82030704700E100E00123064ABF
:101B6000410952F8212000F01F0003FA00F0104054
:101B7000003818BF0120704700E100E0012243094E
:101B8000034900F01F008240403341F82320704792
:101B900000E100E0054A10309268054B52F8200041
:101BA000C01A2F288CBF00200120704700ED00E0F4
:101BB0003C180020F8B50D46EFF3108772B6124EB0
:101BC000D6E8CF2F0123002AFAD1C6E8423F002AE7
:101BD000F6D1BFF35F8F0D4B00F110049B680C4AE8
:101BE00053F82430934203D0994201D001F066F9B2
:101BF000064B9B6843F82450BFF35F8F0023C6E871
:101C00008F3F87F31088F8BDFD22002000ED00E033
:101C1000110100102DE9F04F81468B46164683B026
:101C2000EFF3108372B6DFF8D0A10093DAE8CF1F8C
:101C300001230029FAD1CAE8413F0029F6D1BFF3B8
:101C40005F8F664B93F90040002CC0F2A080644D7A
:101C500004EB440705EB870898F8061009F1100912
:101C60001970604BBF009B6853F829006300411B4B
:101C70002F292FD95C49884240F0A4801C445B4B3B
:101C800002372F44043BDB1BC3F34A036FEAC34311
:101C90004FF421416FEAD34325F8241005EB840467
:101CA00063804BF60153A380FF2348F00100E671E7
:101CB000C4F808B0A3714B4B9B6843F82900BFF3ED
:101CC0005F8F0023CAE88F3F009B83F3108803B027
:101CD000BDE8F08F20F0010E9EF80710B1422ED81B
:101CE0004FF42143EB53414BB91C2944043B0437C7
:101CF0005B1A2F44AEF10401C91BC1F34A043C49ED
:101D0000C3F34A030B432143A8F804103949A8F848
:101D100002304AF6AA2073465B1B5B415843000D14
:101D200088F8076088F80600C8F808B048F0010095
:101D3000CEF80010BFE7D179B1422ED996469EF970
:101D400006C00CEB4C02BCF1000F05EB8202F2DA8C
:101D50004BF601510EF10402A8F10407BF1AC7F3B4
:101D60004A076FEAC7476FEAD7478EF8064003EB8A
:101D70000408204C05EB8803AEF8047045F82840B1
:101D8000998083F806C0DE71C3F808B093E701F0CC
:101D900095F8124B93F9004059E7724632F8041F48
:101DA000490514D44915023102EB410101916FF04C
:101DB0000701C91B019F491B3944C1F34A0141F482
:101DC0006041C9E7019301F079F8019B56E701F5FD
:101DD000FF1101F5FF511F31E4E700BF32840220FB
:101DE0003C18002000ED00E0110100106C180020EC
:101DF00000E0FFFF01488047FD220020F0B5EFF32F
:101E00000585EDB2EFF3108C72B62649D1E8CF2FDD
:101E10000123002AFAD1C1E8423F002AF6D1BFF3DC
:101E20005F8F214E40F0010EB4684AF6AA2354F8A1
:101E300025701E4A0446A41A644163431B0D77456E
:101E40005BB21BD092F906409C421CD092F9124022
:101E50009C4223D092F91E409C4221D092F92A4004
:101E60009C4208BF03240FD0114A00241578137038
:101E70008571C1E88F4F8CF31088F0BDB2680D4CAE
:101E800042F82540F0E7002404EB440402EB84020E
:101E9000FF2494714BF601549480E5E70124F3E7A5
:101EA0000224F1E7FD22002000ED00E03C180020B4
:101EB000328402201101001010B5074C82B0014697
:101EC0000523002200940548FFF7A2FD0028A8BFC3
:101ED000C0F1330002B010BD0C6C0010378402203A
:101EE000014B0B4403607047F422002070B5104C86
:101EF000104DAC420ED2FF26236863B1FFF7C8FD38
:101F000001462046FFF7ECFFA680BFF35F8F083441
:101F1000AC42F1D370BDFFF7BBFD01462046FFF791
:101F2000DFFF2671BFF35F8F0834AC42E4D370BD8E
:101F3000301E0020401E002010B50446FFF7A8FD0B
:101F400001462046FFF7CCFFFF232371BFF35F8FCD
:101F500010BD00BF10B504460120FFF7A5FD034BDF
:101F600003442360BFF35F8F10BD00BFF422002045
:101F7000024B0B440360BFF35F8F7047F4220020D5
:101F80000D4B1A68EFF3108172B6D2E8CFCF012063
:101F9000BCF1000FF9D1C2E84C0FBCF1000FF4D135
:101FA000BFF35F8F00221B68C3E88F2F81F3108877
:101FB00040BF002000217047F82B002000000000E7
:101FC0002DE9F04F2DED028B85B0EFF30583DBB2E9
:101FD000103B9A0818BF01224FF0010103F0030BD8
:101FE00018BFAF4DAF4B08BFAF4D0BEB820253F89C
:101FF000226001FA0BF205F541539FEDA78B019288
:102000005A602FE0B3881C0440F19380B379002B11
:1020100040F0DD80B6F90820002AC0F21E81736905
:1020200002EB420203EBC203D3E90247B7F1FF3FE1
:1020300008BFB4F1FF3F0ED005EB8B01AB6A0A6914
:10204000D21AE31A934205D301232A6A03FA0BF347
:10205000134200D10C61284600F01CFCA042B9419B
:10206000C0F2FB80B6F90830019A002B0093EA63B6
:10207000C8DBD6F8148003EB4309284608EBC907F0
:10208000D7E9024A00F006FCA04271EB0A01B9DB75
:10209000BAF1000FC0F2C380D7E90431834A9342FA
:1020A00000F0ED807A88B6F9080092B242EA00406A
:1020B000984702460B4652EA030100F0B080002B1D
:1020C00080F2D180B4EB020E6AEB030A38F93930A2
:1020D000C7E902EA002B95DB716903EB430201EBD0
:1020E000C202D2E90270BE457AEB000C4FEA43020D
:1020F00088DBB4462CF8083F06E003EB430001EB15
:10210000C0005A00D0E90270BE451A447AEB0000C4
:1021100001EBC20404DB31F93230A446002BECDAC7
:1021200028F83930009BACF80030B3881C043FF528
:102130006DAF3369EFF3108272B6D3E8CF0F012190
:102140000028FAD1C3E8401F0028F6D1BFF35F8F03
:102150004FF6FF74B0880023316900B2B480C1E843
:102160008F3F82F310889842FFF650AF0746A9468A
:10217000746906F1080807EB470E04EBCE03D3E9B8
:102180000250B6F90830C446002B13DBB246009764
:1021900004E034F936309446002B09DB03EB4306A8
:1021A00004EBC602D2E90271BD4270EB0101F0DA24
:1021B0005646009FACF8007034F93E7024F83E306B
:1021C000002FD8DAB3794D46002B3FF423AF00231C
:1021D000B371B6F9083006F10808581C3DD01A460C
:1021E000776903E08046591C3FF416AF03EB4301C7
:1021F00007EBC100B0F802C01C461CF4004F9E461D
:1022000037F93130EED0944280ED028B05D0A8F83A
:102210000030328927F8312034817246E3E738F8FC
:10222000393033813369EFF3108272B6D3E8CF0FC0
:1022300001210028FAD1C3E8401F0028F6D1BFF3DE
:102240005F8F7388316928F83930009B73800023D1
:10225000C1E88F3F82F31088D4E640BF05B0BDECE3
:10226000028BBDE8F08F2846CDE9022300F012FB77
:10227000029A039B10EB020E43EB010A26E7084685
:102280000B69029198470028C9D00299D1E900232F
:1022900011E700BFAFF30080FFFFFFFFFFFFFFFF6D
:1022A00000800B40C82B002000000B40C11F001015
:1022B0002DE9F84F364C25692DB1BDE8F84F0A21BC
:1022C0003448FFF70DBEDFF8E4800321404600F0FC
:1022D000CFFA0326C4F80C80FFF7DAFB4FF0504C1E
:1022E0002D4B267003442361DCF800300F2163700E
:1022F000636961801D834FF00405A3F878504FF0A7
:102300000505A3F890504FF00605A3F8A8504FF02C
:1023100007050E214FF6FF7208274FF00A0EA3F8AB
:10232000C0504FF001094FF00C0C4FF0020B4FF072
:10233000090A0D204FF00B05A3F868111749A28078
:10234000A3F808E1A160A3F848B0A3F8F0A0A3F8AF
:102350002051A3F838C1A3F85001A3F83090A3F896
:102360006060A3F8D8701A800D4B3046C8F8207012
:102370000C49DC60FFF71EFC49463046FFF7D8FBEE
:10238000094B0A211F640348BDE8F84FFFF7A8BDB9
:1023900084180020F82B0020F4220020FFFF1000FA
:1023A000C82B0020C11F001000200B4000000B4074
:1023B0000048704784180020F8B59DF82050044666
:1023C00017461E4635B900F06DFA874266EB0101EB
:1023D00000295CDB2169EFF3108372B6D1E8CF0FDF
:1023E00001220028FAD1C1E8402F0028F6D1BFF31E
:1023F0005F8FB4F90220656902EB4201002A4FEABF
:10240000C10C206905EBC10139DB35F80CE0A4F8FB
:1024100002E04FF0000EC0E88FEF83F31088488889
:10242000069B0130C0F30E00012838BF01200B616C
:10243000079B48804B61C1E9027640EA024023696C
:10244000EFF3108172B6D3E8CF7F0126002FFAD1C7
:10245000C3E8476F002FF6D1BFF35F8FA38825F83D
:102460000C30A2802369C3E88FEF81F3108801222A
:10247000E368217803F501538A405A60F8BD0022D1
:10248000C0E88F2F83F310884FF0FF30F8BD284647
:10249000F8BD00BF0146F0B50069EFF3108772B6D2
:1024A000D0E8CF5F0124002DFAD1C0E8454F002DC0
:1024B000F6D1BFF35F8FB1F902E04C690EEB4E0C21
:1024C000BEF1000F4FEACC05086904EBCC0C3CDBF5
:1024D000665B4E800026C0E88F6F87F31088BCF8DB
:1024E0000200CCE902230130C0F30E00012838BFFE
:1024F0000120059BACF80200CCF81030069B40EAA6
:102500000E40CCF814300B69EFF3108272B6D3E8AA
:10251000CFCF0127BCF1000FF9D1C3E84C7FBCF14C
:10252000000FF4D1BFF35F8F8B886353A1F804E0F1
:102530000B69C3E88F6F82F310880122CB6809789A
:1025400003F501538A405A60F0BD0023C0E88F3F75
:1025500087F310884FF0FF30F0BD00BF034640897D
:10256000B0EB214F37DD58690A1402EB420210B577
:1025700000EBC2001C69EFF3108C72B6D4E8CFEF09
:102580000122BEF1000FF9D1C4E84E2FBEF1000FB9
:10259000F4D1BFF35F8F428889B292B28A4207D0EA
:1025A00000221B69C3E88F2F8CF31088002010BD18
:1025B00042F4004242800121002218699971C0E86A
:1025C0008F2F8CF310881C78DA68084602F50153C7
:1025D000A140596010BD0020704700BF407870478F
:1025E0002DE9F04306460D4683B0EFF30584E4B2CF
:1025F0003CB12D4B5A6AAA421CD2002003B0BDE860
:10260000F0832A4FD7F80C9097F80080484600F0E6
:1026100041F908F1040859F828301B1A301A65EB03
:102620000101984271F1000110DB20BF1E4B5A6A74
:10263000AA42E2D314BF012400249B6AB34234BFF0
:10264000204644F0010003B0BDE8F08300F02AF911
:10265000864265EB0101002914DB154B3846CDE9B4
:10266000003432462B46FFF715FF011E0ADD0E4BE4
:102670005A6AAA4216D39B6AB34211D30B48FFF79A
:102680006DFFB6E7084B5C6AAC42B6D3641B18BF5B
:1026900001249B6AB34234BF204644F00100ADE7F9
:1026A000AA42EBD120BFE9E700000B4084180020CC
:1026B000811F00102DE9F0410446DDE9071552EABB
:1026C000030072D0002B16461F4673DB0698C5E93F
:1026D00000232861AC60696100F0E4F84FF0FF323C
:1026E0006FF00043801947EB0107824273EB07014B
:1026F0003CBF1F4610462369EFF3108272B6D3E841
:10270000CF6F0121002EFAD1C3E8461F002EF6D16B
:10271000BFF35F8FB4F90210666901EB4103002932
:102720004FEAC30CD4F8108006EBC30346DB36F83F
:102730000CE0A4F802E04FF0000EC8E88FEF82F33F
:1027400010885A88C3E902070132C2F30E02012A37
:1027500038BF01221E485A805D61186142EA014279
:102760002369EFF3108072B6D3E8CF8F0127B8F159
:10277000000FF9D1C3E8487FB8F1000FF4D1BFF3DF
:102780005F8FA38826F80C30A1802369C3E88FEF00
:1027900080F3108801202178E36800FA01F103F545
:1027A00001535960EA60BDE8F081012600273246F6
:1027B0003B468BE7564263EB430787E70020C8E8B8
:1027C0008F0F82F310884FF0FF32EA60BDE8F0818E
:1027D000C11F00100246C06800B970479168031419
:1027E000B1F80AC0BCEB204F3DDD30B54C6903EBBE
:1027F000430304EBC30C0B69EFF3108E72B6D3E8FE
:10280000CF5F0124002DFAD1C3E8454F002DF6D14A
:10281000BFF35F8F83B2BCF8020080B2834209D05D
:1028200000230969C1E88F3F8EF310880023002040
:10283000D36030BD43F40043ACF802304FF0010CDC
:102840000023086981F806C0C0E88F3F8EF3108826
:10285000CB68097803F501530CFA01F159600023A4
:102860006046D36030BD00230020D360704700BFB6
:1028700010B4054B054C064AA04214BF1846581C1C
:102880005DF8044BFFF798B82427002000800B4028
:10289000286C00100346416A0A46986A596A8A42BF
:1028A000FAD17047034B596A0A46986A596A9142AD
:1028B000FAD1704700000B4000EB400C4FEA8C0C43
:1028C0000CF1804C0CF5803CF0B51646DCF8042089
:1028D000051FB2F5803F38BF4FF48032EDB238BFEC
:1028E000CCF80420012D2AD94FF40067254C0CF5B3
:1028F0004052176054F82020B2B9DCF80020012DB6
:1029000082EA461202F0E0020CF5805632602AD9C3
:102910004FF4006144F820304FF480330CF500523E
:102920001160CCF80430F0BD6769B7FBF2FE0EF120
:10293000010E0EEB4E0EBEF1030EFCD2DDE70129B7
:10294000D2D103240CF540521460DCF80820D207E1
:10295000FBD5DCF800200B4C82EA461202F0E002C4
:102960000CF5805632600122DCF800504D4005F035
:102970000305356002FA01F1DCF808200A42FBD0B9
:10298000C6E700BF2C270020014B53F820007047FA
:102990002C270020584B2DE9F0431C6C1746B4F54A
:1029A000803F38BF4FF4803283B038BF1A640322AF
:1029B00080460E46514B504DDA636C6CE307FCD5F4
:1029C000EB6B4F4A83F0200303F0E003D363EB6B20
:1029D000494D83F0010303F00303D3636C6CA40738
:1029E000FCD54FF400624FF48039464B464CDA6315
:1029F000464B4246636101213346C5F84090444846
:102A0000009700F057F94FF400616B6B07FB06F677
:102A10004B4538BFC5F83490384B2269B8FBF6F601
:102A200019633AB16369B3FBF2F3013303EB430378
:102A3000033BFDD23049324A0B6B03F0E0031363D2
:102A40000B6B83F0020303F0030313638B6B5807D4
:102A5000FCD54FF400654FF480332A4A15632D4AA4
:102A60004B6322610A6C9A424FF0030238BF0B6439
:102A7000224B2149DA634B6CDA07FCD5CB6B204A39
:102A800003F0E003D363CB6B1B4983F0010303F036
:102A90000303D3634B6C9B07FCD54FF480334FF497
:102AA0000065184A6661D5630B64CA6C9A4238BFE8
:102AB000CB644FF40061114BA26999643AB1636928
:102AC000B3FBF2F3013303EB4303033BFDD24FF4BB
:102AD00000604FF48031084A094D936C83F0400345
:102AE00003F0E003AB64074B084DA5619864D16423
:102AF00003B0BDE8F08300BF00000140003001409A
:102B000000100140002001402C270020006CDC0256
:102B100000000540001BB7002DE9F04F4FF4A078EE
:102B2000994685B0CDE902125F4CDFF884A1544587
:102B30000AD908F1FF38A4F53B54B8F10F0FA4F1FE
:102B40002004F4D1002069E0072304F53722019422
:102B500003FB03F402F5D872B2FBF4FE70454FF0AC
:102B6000010C4FF002074FF003064FF004054FF041
:102B700005013FD0B3F1010E00F094800EFB03F489
:102B8000B2FBF4FB58454CD019B301FB03F4B2FB84
:102B9000F4FB58454FD0E5B105FB03F4B2FBF4FB61
:102BA000584553D0AEB106FB03F4B2FBF4FB5845D5
:102BB00057D077B107FB03F4B2FBF4FB58455BD069
:102BC000BCF1000F05D00CFB03F4B2FBF4FB834512
:102BD0005DD0734603FB03F4B2FBF4FE704501F1D4
:102BE000FF3105F1FF3506F1FF3607F1FF370CF134
:102BF000FF3CBFD104FB1024002CBBD19E464A46AB
:102C0000DDF808B0DDF80C900120284901FB08F13F
:102C1000CBF80010C9F80030C2F800E005B0BDE8FC
:102C2000F08F04FB1024002CAED14A46DDF808B02A
:102C3000DDF80C90E8E704FB1024002CABD14A46E9
:102C40008E46DDF808B0DDF80C90DDE704FB1024BB
:102C5000002CA7D14A46AE46DDF808B0DDF80C904E
:102C6000D2E704FB1024002CA3D14A46B646DDF877
:102C700008B0DDF80C90C7E704FB1024002C9FD1AE
:102C80004A46BE46DDF808B0DDF80C90BCE704FB10
:102C90001024002C9DD14A46E646DDF808B0DDF848
:102CA0000C90B1E7019C44E750262F00001BB700B1
:102CB00050F80C0070B4039D04682D0345EA0345E9
:102CC0001B4B002CB3FBF1F3B2FBF3F61FDB194AED
:102CD000194B904214BF4FF480424FF40042174CFE
:102CE0001A6003F580531A60A36832EA0303FBD12C
:102CF000212200F540530433016086601A600268A7
:102D0000002AFCDA0822C5601A6070BC70470368AC
:102D100003F03F038B42DAD18368C3F30B03B34262
:102D2000D5D1C36803F4EE23AB42D0D1EDE700BFA9
:102D3000001BB70000800540002002400000024058
:102D400030B44FF080441C4B1C60E0B11B4CA3F529
:102D50004053DC611A4C40F0010044401C6259624F
:102D600098624FF080454FF0E061134B1548164CC8
:102D70001D60846019604AB930BC4FF00042A3F571
:102D800080531A607047114BD861EAE74FF47A73A9
:102D900003FB02F2B2F1807F2ABF6FF07F4313463C
:102DA0001A464FF080410A4C08482360094B4260A4
:102DB00030BC1960704700BF00B00D40D3C007B0F1
:102DC0002D3FF84F00A00140F3FFFF0100800D40B0
:102DD0009C2B002000A00D40012300EB4000800050
:102DE00000F1804000F5841041600360704700BF2F
:102DF000002370B5DB8A04460D46002242E800F24B
:102E0000520254BF1021042144F2522098478646B2
:102E10002B462246F446BDE870400A214FF48170EB
:102E2000604700BF0023DB8A002242E800F2520222
:102E300001D4102118470421184700BF08B50346E4
:102E40000846191E02DB1AB140F03000FFF7D0FF30
:102E500040F02000FAE700BF034AD2F82838002BE0
:102E6000FBD0BFF35F8F704700000E400021044B82
:102E7000044ABFF35F8F43F8041B9342F9D17047B4
:102E80000C080E402C080E4010B44FF48D704FF417
:102E90002A64064A064B07491460D06019605368DB
:102EA000002BFCDA5DF8044B704700BF0080044043
:102EB00000A0044000B0FA00704700BF08B5014808
:102EC000FEF746FD4C6C001038B5054C054DAC4284
:102ED00004D254F8043B9847AC42FAD338BD00BF43
:102EE000686A0010A86A001038B5054C054DAC4260
:102EF00004D254F8043B9847AC42FAD338BD00BF23
:102F0000946A0010A86A001010B40748074C084BD8
:102F1000084A094904601A608B6832EA0303FBD14E
:102F20005DF8044B704700BF002002407F3BEFEF8D
:102F300000300240F6FFF30300000240044BDB6C5C
:102F4000B3F5004F03D14FF48022024BDA6470478F
:102F500000001150002011504FF0E022044BD2F835
:102F6000881D0B43C2F8883D10EE3004704700BF47
:102F7000030330006FF06041044B054A1960936809
:102F8000DB4333F06043FAD1704700BF00300240AA
:102F90000000024010B545F25320FFF743FFBDE8A3
:102FA000104003460420184710B545F25320FFF7A0
:102FB00039FFBDE81040034601201847FEF78CBDDD
:102FC0001449154B70B55C1AA610442E324628BF22
:102FD0004422124D9200284603F022FBB4F5867F6E
:102FE00013D80F4AC6F1440012D02B19410803EB45
:102FF000C101C3E9002208338B42FAD1C30704D5CB
:1030000020F00100304445F82020064B9D6070BD43
:103010004320F8E70000001010010010000000201D
:103020001101001000ED00E0002370B52B4C82B0C0
:10303000C4F88430FFF728FF0122294BDA63636C60
:10304000012BFCD10321264A244B11639C6B012CDC
:10305000FCD10226052521460523224A2248009656
:10306000FFF728FE21462B46204A21480095FFF70E
:1030700021FE0022042031461E4BFFF71DFC214695
:10308000284600221C4BFFF717FC0022082011469F
:103090001A4BFFF711FC002209201146174BFFF7CE
:1030A0000BFC002206201146134BFFF705FC002203
:1030B000114B07201146FFF7FFFB0420FFF764FCCC
:1030C00000240F4BA3FB0035AD0CE0B229460134C0
:1030D000FFF782FE062CF8D102B070BD000001405F
:1030E00000300140002F685900000540008C8647E1
:1030F00000800540001BB70080D1F008006CDC02A6
:1031000083DE1B4338B50446094803F099FC20468A
:1031100002F036FF0546064803F08AFC2DB1054B48
:103120002C449C4201D8284638BD0348FEF710FCC9
:10313000301E002000000820586C001010B5044616
:10314000054803F07DFC204602F022FFBDE8104058
:10315000014803F06DBC00BF301E002000B970476D
:1031600000F02EB910B5094B84B01C684CB1034671
:1031700000914FF0FF3203A90548A047012004B099
:1031800010BD00F05FF9204604B010BD982B002060
:103190005D31001000BEFDE7074A0346106838B1F4
:1031A000064903448B428CBF4FF0FF3013607047D9
:1031B000034908461160F3E790270020000008202B
:1031C0003C84022008B5FFF7E5FF00BF38B5064C88
:1031D000064DFFF779FEAC4204D254F8043B984701
:1031E000AC42FAD338BD00BFA86A0010B06A001024
:1031F00003680846114618472DE9F0411546427DFF
:1032000007468846002A46D0002D1DDD0B780A2B84
:1032100023D0012D4FF0000C18D04646012416F89B
:10322000012F21460A2A04F1010422D0A542F6D139
:1032300065450BDC08EB050313F8013CA3F10D0316
:10324000B3FA83F35B093B75BDE8F0813B68A5EBFE
:103250000C0108EB0C009847ECE7037D002BD8D15C
:10326000036802210F489847012DE3D04FF0010C6D
:10327000D3E716F8013C0D2BD8D08C4508EB0C0099
:10328000A1EB0C0101DA3B689847022105483B6835
:103290009847A446CAE7294640463B68BDE8F04146
:1032A000184700BF389400102DE9F04782B00D4652
:1032B00091461C460646FFF7F5FA4FF0FF3C6FF0CB
:1032C00000472E4A821841F10003944577EB030131
:1032D0003CBF62463B462A4803F0BAFB6B1C804663
:1032E00040D00CB3274F284B1C68B4B1B9F1000F84
:1032F0001CD1DFF89C9001E0246974B12368002B95
:10330000FAD0D9F800300BB19C42F5D120462A46BC
:103310003146B8472469002CF0D1B8F1000F26D10E
:10332000284602B0BDE8F087184FDCE74FF00A0AE4
:10333000DFF85C9002E02469002CEED02368002BBB
:10334000F9D0D9F800300BB1A342F4D12A46314666
:103350002046B847012220460DF107018DF807A04D
:10336000B847E8E7304603F0D1F90546B9E7044825
:1033700003F05EFB284602B0BDE8F08740420F0034
:10338000381E0020F93100107C270020F131001098
:1033900088270020084A136823B90AE003F11002C5
:1033A0001B6933B18342F9D129B9186910601961D9
:1033B000704701B1106070477C27002000F06EBAA2
:1033C000F0B583B006468DF80700FFF76BFA4FF0B3
:1033D000FF356FF00044174A821841F1000395420F
:1033E00074EB03013CBF23462A46134803F030FB2D
:1033F000124B07461C689CB1114D01E024697CB159
:103400002368002BFAD02B680BB19C42F6D12046E2
:1034100001220DF10701FFF7EFFE2469002CEFD127
:1034200017B9304603B0F0BD034803F001FB304646
:1034300003B0F0BD40420F00381E00207C27002062
:103440008827002038B5044603F060F901230546BB
:103450001A4620462946FFF727FF084B1C682CB167
:1034600063682BB198472469002CF9D1284638BDF0
:103470002469002CF4D1284638BD00BF7C270020E9
:10348000704700BF0022014B1A707047338402203E
:103490004B79FF2B0BD1887948B9CB79012B07D118
:1034A000082A05D9034B8A7809201A707047002032
:1034B000704700BF3384022001207047012901D0EA
:1034C0000120704708B5104B91881B78994201D0B4
:1034D000002008BD5378012B08D0022BF8D1002121
:1034E00064220846FFF72CFC012008BD5188CB055B
:1034F00048BF480AC1F3402258BF4FF0FF3001F0E7
:103500007F01FFF79BFC00BF338402200048704717
:1035100004950010012907D15378012B02D193881B
:10352000072B03D000207047012070471146A623C7
:10353000014A01F039BA00BF5C9400100346012231
:1035400001481A70704700BF3C94001008B50B6822
:10355000B3F5966F00D008BD00224FF0FF30114642
:10356000FFF76CFC024A034B10601960704700BF04
:10357000182700201C270020184B70B51A68002A55
:1035800028D0EFF3108172B6D2E8CF4F0120002C83
:10359000FAD1C2E8440F002CF6D1BFF35F8F0022AE
:1035A0000F4C186859602270C0E88F2F81F3108883
:1035B000002400250B4E3078FEF7D0FA20B9002405
:1035C00000252046294670BD3078FEF7D7FA204600
:1035D000294670BD4FF47A740025EBE7C02B00201C
:1035E0003584022034840220014B1878FEF7C6BAD5
:1035F0003484022038B5044600200D4601F004FB57
:10360000A8B3002001F016FB88B3FFF74BF94FF089
:10361000FF3E6FF0004C174A821841F100039645B7
:103620007CEB03013CBF72466346134803F010FA7B
:10363000E8B1002001F0E8FA58B900214FF0FF305E
:1036400000F00AFD6FF002040B4803F0F1F9204688
:1036500038BD002001F0EEFA0028EED021462A46BF
:10366000002001F0F1FA04460028EDD1EAE76FF0FE
:103670000204ECE740420F00FC2B002008B5FFF7E6
:1036800011F94FF0FF3E6FF0004C0F4A821841F1E4
:10369000000396457CEB03013CBF724663460B4832
:1036A00003F0D6F970B14FF0FF30002100F0D4FCE8
:1036B000002001F011FB0028F5D1BDE808400348C7
:1036C00003F0B6B908BD00BF40420F00FC2B00203C
:1036D0002DE9F84380460F46FFF7E4F84FF0FF3539
:1036E0006FF00044334A821841F10003954274EBB5
:1036F00003013CBF2A4623462F4803F0A9F908B925
:10370000BDE8F883002001F07FFA002847D0002FA1
:1037100040DD0025DFF8A890284E13E02246002067
:1037200001F020FB002104464FF0FF3000F094FC34
:10373000002001F0D1FAFFF7B5F8C9E900012544EE
:10374000AF4227DD002001F02DFB7C1B8442A8BF87
:10375000044608EB0501002CE0D121464FF0FF3074
:1037600000F07AFC204601F0B7FA204601F04CFA4E
:1037700080B1204601F016FB0028E1D1FFF792F856
:10378000D9F80030D9F804209B1942F10002834295
:103790008A41D5D20848BDE8F84303F049B9002072
:1037A0000021074BC3E90001BDE8F843024803F0DC
:1037B0003FB900BF40420F00FC2B002020A10700B2
:1037C000C01F002030B5002185B02E4803F048F915
:1037D000F0B92D4B1A68CAB1EFF3108172B6D2E876
:1037E000CF5F0124002DFAD1C2E8454F002DF6D15C
:1037F000BFF35F8F254C1D6822785960D3B2012238
:103800002270C5E88F0F81F31088CBB105B030BDB1
:1038100000214FF0FF3000F01FFC002001F00AFAF9
:103820000446184803F004F9002CEFD0184B1B682D
:10383000002BEBD0174A106805B0BDE830401847A0
:10384000FEF7B6FD0446FFF72DF84FF0FF3C6FF092
:10385000004510F57A7241F10003944575EB0301C0
:1038600038BF2B464FF000014FF0010520460A4CAF
:1038700038BF6246CDE901150094FEF79DFD05B005
:1038800030BD00BFFC2B0020C02B0020358402205F
:10389000182700201C270020793500104FF05043D6
:1038A00030B585B01C68FEF783FDFEF797FEA04299
:1038B00002D0002005B030BD00212A4B08461B78FD
:1038C00001F038FD28480368002B47D00120FEF79F
:1038D000F3FA0346254C2649C0B22370FEF76AF975
:1038E00020780121FEF724F90E20FEF753F940BBA2
:1038F000204B0125C3E90000FEF75AFD0446FEF700
:10390000D1FF4FF0FF3E6FF0004C10F57A7241F19D
:10391000000396457CEB03014FF000012046164C56
:103920003CBF72466346CDE901150094FEF744FDA5
:103930000028BEDB01211148FFF72CFD012005B056
:1039400030BD0120FEF7B0F801460A48FEF710FB33
:1039500000220E200A49FEF75DF9EBE7FEF7ECFACC
:10396000B4E700BF1C960010FC2B0020348402201A
:10397000C5370010C02B0020793500109C1800209E
:10398000E935001000487047A095001000487047C6
:103990004C95001038B5184B04461A780AB344B950
:1039A00040F209424FF44173144D6A8013482B8052
:1039B00038BD052C1DD8124B104D53F82410284645
:1039C0000023013903E0132B20F8022F0ED011F849
:1039D000012F0133DBB2002AF5D15B0043F44073C1
:1039E000E4E71121184600F025F8D8E74FF44A73B0
:1039F000DCE7002038BD00BF082C00205427002041
:103A00003495001000B545F247308BB0FFF70AFA45
:103A100001220346092101A89847DDE90332044940
:103A200012BA1BBAC1E900230BB05DF804FB00BF5A
:103A3000E82B0020012901F1FF3300F0B3805D493C
:103A40000A784FEA121C9F2A8CBF0CF1370C0CF13C
:103A5000300C012B80F800C000F0A78002F00F02AC
:103A6000092A8CBF37323032022B427000F09D8021
:103A70004A784FEA121C9F2A8CBF0CF1370C0CF1CC
:103A8000300C032B80F802C000F08F8002F00F0290
:103A9000092A8CBF37323032042BC27000F0858087
:103AA0008A784FEA121C9F2A8CBF0CF1370C0CF15C
:103AB000300C052B80F804C077D002F00F02092AE1
:103AC0008CBF37323032062B42716ED0CA784FEA43
:103AD000121C9F2A8CBF0CF1370C0CF1300C072BF9
:103AE00080F806C061D002F00F02092A8CBF37327D
:103AF0003032082BC27158D00A794FEA121C9F2A23
:103B00008CBF0CF1370C0CF1300C092B80F808C07D
:103B10004BD002F00F02092A8CBF373230320A2B09
:103B2000427242D04A794FEA121C9F2A8CBF0CF194
:103B3000370C0CF1300C0B2B80F80AC035D002F09A
:103B40000F02092A8CBF373230320C2BC2722CD0B4
:103B50008A794FEA121C9F2A8CBF0CF1370C0CF1AA
:103B6000300C0D2B80F80CC01FD002F00F02092A78
:103B70008CBF373230320E2B427316D0CA791109FE
:103B80009F2A8CBF373130310F2B81730DD002F05B
:103B90000F02092A94BF30323732102BC27318BF7C
:103BA000103002D0002303707047184400230370C4
:103BB000704700BFE82B002070B500F02DF90C23F2
:103BC0004026194CFF22A3670E201849FEF722F861
:103BD00032460021164802F0ABFC0125002380216B
:103BE0001348144A41844570068306878260436007
:103BF000136042F8043C80F8213080F83B30436287
:103C00000D4B4FF00056C360C362803B836202F0ED
:103C100013FF4FF480320949094B25642846E664B6
:103C2000C4F89010DA6470BD000011508D0D0020B2
:103C300098270020840010500001105010D001007F
:103C40000020115001210E20FDF772BF0022024812
:103C5000114600F001B900BFB8270020044B1970CD
:103C600021B14FF40032034BC3F89020704700BFDE
:103C70002F840220002011500B785B0602D14B7874
:103C8000052B00D070474B88014ADBB213607047A8
:103C900000001150CB782DE9F04103F0030EBEF186
:103CA000010FC3F301005BD0002791F802C0344C30
:103CB0000CF07F025600898806EBDC1304EB4313FB
:103CC0004FEADC15D876C1F30A0185F0010083F8CC
:103CD00002C019835870DF70D3008DBB29480433AC
:103CE00004EB821C03EB0008CCF808801F5082B361
:103CF000254BD2001344CCF80430244B3F311A68D2
:103D000021F03F01BEF1020F08BF490011441960C4
:103D10001F4B771904EB47179942FA602BD82E44B2
:103D200004EB4613D97E82F0A04282F480125B68D5
:103D300042EA816242F000421A600120BDE8F0814F
:103D4000104804EB821C0344CCF8283040F8327051
:103D50004AB900220F4904EB4513D9605A60ECE7D9
:103D60000020BDE8F081D20002F1A04202F58012ED
:103D7000CCF82420C1E7FFF7A1F8FA68CFE700BF2D
:103D8000982700208000105004001050A42B002021
:103D9000FF0F10500001105002F04EBE8C4608B5C7
:103DA000114607481A460CF07F034FEADC1C0CEB67
:103DB000430C00EB4C1000F04FF8012008BD00BF91
:103DC0009827002011F07F0205D100290CBF0220A6
:103DD0000120064B9866C909054B01EB420003EB35
:103DE00040104FF40062002102F02EBE002011505E
:103DF0009827002011F07F0300D17047002205486A
:103E00005B0003EBD11300EB43106FF40061C27051
:103E100002F01ABE982700204FF0805209480A4944
:103E200008B50A4B02600A609968C94311F08051D5
:103E3000FAD14FF48052064802F07AFB0922054B72
:103E40005A6708BD002002400030024000000240D6
:103E5000000010500000115000234FF0010C10B56D
:103E600080F81AC08282C3820161044602F0F4FD28
:103E700020B14FF40032074BC3F89020204602F0E7
:103E8000C7FD10B10123237710BD2046BDE81040C7
:103E900002F0CABD002011502DE9F04100241D4E52
:103EA000054623463278DFF878801B4F0DE03B68EB
:103EB00013EB441324D0DB6828469847327801344A
:103EC000E4B2511CA142234606DBA242A3EB02034B
:103ED000EDD808EB4313EEE7542200210F4802F01F
:103EE00027FB4FF0FF330D482022041D4360C4E937
:103EF0000133E360FF21BDE8F041143002F018BB4C
:103F00004FF0E023D3F8F03DDB0700D500BEBDE85D
:103F1000F08100BF2E8402205021002020230020A9
:103F2000B4950010704700BF704700BF0020704775
:103F300000207047704700BF704700BF704700BF48
:103F4000704700BF024B5878003818BF01207047F7
:103F500020230020024B1878C0F38000704700BF78
:103F6000202300202DE9F047DFF8E4A09AF8003084
:103F7000FF2B56D10E4600293ED000215422074681
:103F8000294802F0D5FA0022284C294B20461A7005
:103F9000FDF7D2FF274B28481C60284CFDF7DAFFBD
:103FA000204601F0ABFD264A264B146023B126487B
:103FB000FFF7C4FA254B18600024234D23462A78C6
:103FC000DFF89090DFF884800EE0D8F8003013EB33
:103FD000441311D05B687BB198472A780134E4B26E
:103FE000511CA142234611DBA242EED89B1A09EBD9
:103FF00043135B68002BEFD14FF0E023D3F8F03D83
:10400000DB0700D500BE0020BDE8F087314638460A
:104010008AF80070FFF7D0FD0028EDD03846FFF792
:1040200011FE0120BDE8F087202300201823002086
:104030003084022074230020C8180020B418002007
:10404000782300203D3500102E84022050210020CE
:10405000D0180020B49500102DE9F04FDFF8C89279
:104060008BB099F80030FF2B00F0F180A84CA94DDF
:10407000DFF8B0A2DFF8B4B226687369EFF31082FC
:1040800072B6D3E8CF0F01210028FAD1C3E8401F50
:104090000028F6D1BFF35F8FB261304607A901F067
:1040A00077FB00237269C2E88F3FB36983F31088FE
:1040B000002800F0CC809DF81D30013B072B00F25A
:1040C0007D83DFE803F0A7B1959D8E350A04089B38
:1040D000002BD1D009989847CEE79DF8201001F029
:1040E0007F0605EB460000EBD11090F8343023F04A
:1040F000010380F8343090F8343023F0040380F862
:104100003430002E00F0A680037D9AF80020934200
:1041100080F09380804A126812EB431300F0908085
:104120009E699DF82120099B9DF81C00B047A3E7DC
:104130009BF80030002B00F083809BF80030013B9F
:10414000DBB28BF800309BF8003003F0FF00002B4F
:1041500092D1704F9DF81C803B7843F001033B7077
:1041600097F8343060F3000387F8343097F8343030
:1041700060F3820387F8343097F8353060F300033A
:1041800087F8353097F8353060F3820387F835309B
:1041900000F06CFC9DF8203003F06002602A6CD0C7
:1041A000402A7CD003F01F03012B00F0C180022BBA
:1041B00000F08180002B60D1202A00F0E981002AE4
:1041C0005BD19DF82130092B57D8DFE813F0B001FF
:1041D000A2015600C101560095016B015600600115
:1041E000F4002B78D9077FF547AFFFF7A9FE43E727
:1041F000EB78DA077FF540AF0898FFF795FE3BE7CD
:104200002B78D8077FF538AF2878C0F3C000FFF7C8
:1042100095FE31E79DF81C00FFF73EFE00F01CFC08
:104220009DF82030AB7027E79DF81C00FFF734FEA7
:1042300000F012FCFFF780FE1EE7501C984211DAD6
:104240004FF0E023D3F8F03DDC0700D500BE0BB003
:10425000BDE8F08F099B9DF821209DF81C0000F01F
:1042600019FC09E79B1A2D4A02EB431358E7FFF7A5
:104270008DFB0246002840F082814FF0E023D3F806
:10428000F03DDE0700D500BE9DF81C000021FFF7C1
:1042900099FD80219DF81C00FFF794FDECE6204875
:1042A00000F0E4FB0121404608AAFFF733F900289B
:1042B0007FF4E2AEE8E79DF8241011F0700FDCD136
:1042C00001F07F0607EB4600164B00EBD1101B7880
:1042D000007D7600019698424FEAD116009659D398
:1042E0005E1C8642C0F26681C01A0C4B03EB40167E
:1042F000002A00F06381706900F0B8FB012140469C
:10430000736908AA984700287FF4B6AEBCE700BFDF
:10431000782300202023002050210020B495001095
:10432000153500102E840220D01800203084022081
:104330009DF824300F2BA7D8AE4A3B441B79127846
:10434000934232D3511C99429EDBAB4E9B1A06EB33
:104350004316706900F08AFB01214046736908AA80
:10436000984700287FF488AE9DF8203013F060064F
:104370008AD19DF821300A3B012B85D800F076FBCD
:104380009DF821300A2B00F0F281404608A900F088
:10439000F1FA71E6994B1B6803EB4016002A00F016
:1043A0000D81002E3FF470AFA5E7944A166816EB16
:1043B0004316CED168E77B789DF822609E4200F0DC
:1043C0004F817B78002B40F0BE817E70002E00F084
:1043D0004581701EC0B2FFF7D9FA0346002800F0ED
:1043E0005F814278022A40F05B81C17903F10906BE
:1043F000C1F340121201C1F3801142EA4112314669
:10440000387820F0300002433A705A88CDF80C809A
:104410009A180192019B8B4240F2A4814A780B2AA0
:1044200000F0AF810123042A40F03A810026019A6E
:104430000096521A92B202926E4A049312781DE0CC
:104440006E4B1B6813EB461800F02A81029AD8F8CD
:10445000103003980591984708280246059906F1FF
:10446000010303D90298904280F0FF80DEB2614BD5
:1044700000961A78531C9E4200F31281009BB242B0
:10448000A3EB0202DCD85C4B03EB4218DEE77B783F
:1044900040468DF81A300DF11A02012308A900F0E8
:1044A00083FAE9E5BDF82200030A013B020AC0B223
:1044B0000E2B3FF6E9AE01A151F823F0D1460010D2
:1044C0006D4500100D470010894200108942001010
:1044D000EF4600106D45001089420010894200101F
:1044E0008942001089420010894200108942001060
:1044F00089420010C346001008A800F0BDFA4046EB
:104500009DF82210FFF7A2FB3B7843F002033B70BB
:10451000B2E5BDF82230012B7FF4B6AE3B784046C1
:1045200023F0080308A93B7000F024FAA4E54046F4
:104530003B789A0802F00202C3F340131343ADF82C
:104540001A300DF11A02022308A900F02DFA93E5A2
:10455000BDF82230012B7FF497AE3B78404643F004
:10456000080308A93B7000F005FA85E5022A3FF42C
:104570007EAEFFF7DDFC024600283FF485AE4046E4
:10458000538808A900F010FA00287FF475AD7BE687
:104590009DF824300F2B3FF677AE164A3B441B792B
:1045A000127893421DD2154A166816EB43167FF413
:1045B000A2AE69E6002A7FF467AE00269DF82120AE
:1045C00002F0FD03012B1BD0002A7FF456AE019BA5
:1045D000009A3B44134493F834304046C3F34003FD
:1045E000ADE7511C9942FFF64FAE034E9B1A06EB06
:1045F000431680E62E840220B4950010502100203E
:10460000BDF82230B3B9012A99F8000000F0868085
:10461000FFF7D8FB019B009A3B44134493F83420E6
:1046200042F0020283F8342093F8342042F0010271
:1046300083F83420002E3FF41FAD706900F016FAA5
:104640007369012108AA40469847002000F00EFA3D
:1046500097F83530DF073FF50FAD96E6FFF76CFCB6
:10466000404608A900F086F906E5049B012B00F0FE
:104670009E80002B00F08A80002091F8028005E0E7
:104680008CF804605FFA80FC63457FD908EB000C6E
:1046900057FA8CFC9CF804E00130BEF1FF0FEFD01C
:1046A0004FF0E023D3F8F03DDA0700D500BE4FF01D
:1046B000E023D3F8F03DDB0700D500BE00237B707C
:1046C000E2E5FEF723FF024600287FF458AFDBE562
:1046D000FFF758F9024600283FF4CFAD40461223B9
:1046E00008A900F061F900287FF4C6ACCCE5FFF71B
:1046F0001DFC024600283FF4C7AD4046137808A9C8
:1047000000F052F900287FF4B7ACBDE5BDF82410E5
:10471000FFF740F902460028EFD1B5E50293FFF715
:1047200069FB019A009B3A441A4492F83410029BA8
:1047300063F3410182F8341092F8341063F30001FE
:1047400082F8341076E700214046FFF787FA4046AA
:10475000FFF722FBBB7840460093FFF79DFB009BD1
:10476000BB7032E6DDF80C80FFF7E4FB78E74046EB
:10477000012308A90DF11A028DF81A6000F014F94E
:104780007AE40A78CB7811444A784CE633461048EC
:104790000492029100F076FE0E4B049A02991B7867
:1047A0001144009A01339342BFF634AE78E7D8F84B
:1047B00010C00948844508BF02235DE74FF0E0239D
:1047C000D3F8F03DDB077FF557AC00BE54E400BFE3
:1047D000342300202E840220A54E00102DE9F84F2E
:1047E0000A9F002A40D00C461E4615464FF0000A8C
:1047F000DFF87C90DFF87C8018E0204698F8021003
:1048000099F800B000F00EFEE0B121465846FFF7DF
:1048100041FAF0B1A2780AF1010AD10916BF0B9B47
:104820003A701A702278AA4514441DD06278052A7D
:104830000FD1E17801F00301B1420AD1A27812F060
:10484000700FDAD04FF0E023D3F8F03DDA0700D54F
:1048500000BE4FF0E023D3F8F03DDB0702D4002088
:10486000BDE8F88F00BEFAE70120BDE8F88F00BF71
:10487000D01800202023002038B58B7813F0700F5B
:1048800008D04FF0E023D3F8F03DDB0700D500BEA1
:10489000002038BD074A084B0C46084691781D7821
:1048A00000F0C0FD0028ECD021462846BDE8384085
:1048B000FFF7F0B920230020D01800200B46064A4D
:1048C00006481168DA09343203F07F0302EB430330
:1048D000184400F061BD00BF742300202023002095
:1048E0000B46064A06481168DA09343203F07F03A2
:1048F00002EB4303184400F079BD00BF742300208D
:104900002023002010B5194801F07F0C00EB4C006B
:1049100000EBD11090F834C01CF0010F08D04FF01C
:10492000E023D3F8F03DDA0700D500BE002010BD2B
:1049300000F1300494F804C00D484CF0010C0078EC
:1049400084F804C0FFF72AFA0028F0D14FF0E021E4
:10495000227960F300022271227960F382022271CF
:10496000D1F8F03DDB07E1D500BEDFE720230020D2
:10497000D018002030B50B4C8C46A646054608687A
:1049800049680023AEE803009CF800102846C9439C
:10499000C4E90233BDE830401A4601F08001FFF758
:1049A000B1BF00BFE02200202DE9F041284F4FF0B9
:1049B0000008BE468C46064608684968BA60AEE8FC
:1049C0000300A7F80E801546BCF80620934228BFC6
:1049D0001346BB819AB11C4633B3DDB197F9003061
:1049E000402C28BF4024002B29DB4146234630467B
:1049F000184AFFF787FF68B10120BDE8F0819CF8F5
:104A000000101346C943304601F08001FFF77AFFDA
:104A10000028F1D14FF0E023D3F8F03DDB0700D5BB
:104A200000BE0020BDE8F0811A46397801F080010F
:104A300023463046FFF766FF0028DDD1EAE722462D
:104A40002946044801F0ECFD8021024AF0E700BF4E
:104A5000E0220020A02200200022034BC3E9002214
:104A6000C3E902221A617047E0220020014B18615D
:104A7000704700BFE022002030B40246044C0025FD
:104A8000234600685168C4E9025530BC03C370472F
:104A9000E022002070B53D4CC90922780646B1EBF2
:104AA000D21F1D4682B017D053B14FF0E023D3F888
:104AB000F03DDB0702D4002002B070BD00BEFAE773
:104AC0002146FFF7D9F823691BB12246032130465E
:104AD0009847012002B070BD94F90030002B06DB2E
:104AE000A0680028E7D02A46294901F099FDE0890D
:104AF000A168E388284480B229448342E081A16010
:104B000016D03F2D14D9A28994F90040131A9BB2F4
:104B1000402B28BF4023002C27DB90424FF00001A0
:104B200031D01B4A3046FFF7EDFE0028D1D1BCE75B
:104B3000236923B102213046144A984760B1217895
:104B40000023C94330461A4601F08001FFF7DAFE20
:104B50000028AAD00120BDE701463046FFF732F910
:104B600080213046FFF72EF9B3E7904208D01A466D
:104B70000748019301F054FD8021054A019BD1E7CC
:104B800080210022CEE70A46CCE700BFE0220020C9
:104B9000A02200202DE9F0410446FFF7D3F908B91F
:104BA000BDE8F081FFF7D6F905460028F8D1C82303
:104BB00004FB03F3124EF718F9780029F0D01033F4
:104BC0001E44304600F0D2FD3F28E9D92846F97846
:104BD000FFF774FE0028E3D0304600F0C7FD3F2801
:104BE000F97808D9074A284602EBC4124023BDE8E9
:104BF000F041FFF787BE2846BDE8F041FFF770BEE1
:104C0000D82100205421002010B50446FFF79AF95E
:104C100008B9002010BDFFF79DF90028F9D1C8227E
:104C2000034B02FB0433187900F0010010BD00BFF4
:104C3000D8210020C82208B5024B02FB003000F04A
:104C40007BFD08BDE82100202DE9F8434FF6FF73F6
:104C5000C8249A4228BF1A4600FB04F4DFF8748087
:104C600004F110054544064692B2284600F0DAFDEC
:104C70000746FFF767F910B93846BDE8F883FFF734
:104C800069F981460028F7D1A04498F80330002B39
:104C9000F2D0284600F06AFD3F28EDD9484698F842
:104CA0000310FFF70BFE0028E6D0284600F05EFD5B
:104CB0003F2898F8031007D9054A4846402302EBDD
:104CC000C612FFF71FFED7E74846FFF709FED3E7F6
:104CD00054210020D82100202DE9F0410446FFF79F
:104CE00031F910B90020BDE8F081FFF733F905462E
:104CF0000028F7D1C82604FB06F6DFF8648006F129
:104D000024074744384600F017FD0028EAD0B04495
:104D1000284698F80210FFF7D1FD0028E2D00F4E88
:104D2000384606EBC4163146402200F07BFD98F869
:104D30000210044668B1034632462846FFF7E2FDFA
:104D400050B94FF0E023D3F8F03DDB07CAD500BEE1
:104D5000C8E7FFF7C5FDC5E72046C4E7942100205A
:104D6000D821002038B54FF6FF75C823AA4228BFC6
:104D70002A460B4C92B203FB00440546204600F045
:104D80000FFE034620461C4600F0D6FC3F2801D803
:104D9000204638BD2846FFF79FFF204638BD00BF9C
:104DA000FC210020C82208B5024B02FB003000F0B5
:104DB000DDFC08BDFC210020F0B5002483B0C82232
:104DC0000021174801F0B4FBFF234FF4E131082222
:104DD000144804701248009407464371816082733E
:104DE00000F1380101234022103000F075FC01234E
:104DF000402207F17801009307F1B80607F124007B
:104E000000F06AFC07F1C0053046FDF795F828462A
:104E1000FDF792F8C7E90746C7E90C5403B0F0BDA7
:104E2000D8210020D42100200A4A116B136A61B1F5
:104E30003BB10023C2E90C33D3610023136201208C
:104E400070470120C2E90C337047002BF7D0D161C5
:104E5000F3E700BFD8210020002210B50E4C0F4808
:104E6000237802600271DA0707D59B070BD5BDE8EE
:104E7000104001210A4800F05DBE103000F03EFEF7
:104E800023789B07F3D4064800F038FEBDE81040B5
:104E90000121034800F04EBED4210020D82100207B
:104EA000FC210020F0B54B7983B0022B02D18B7925
:104EB000022B03D00025284603B0F0BD274FBB7856
:104EC0003BB14FF0E023D3F8F03DDB07F2D500BE55
:104ED000F0E78B7806463B700B78CC186178242974
:104EE00008BF092507D036E023781C4461782B449D
:104EF00024299DB207D1AA42F6D20020FFF74AFE2C
:104F0000284603B0F0BD0B46052916D0042BF4D17A
:104F100063790A2BF1D1124B277801930133009367
:104F2000022330461A46E119FFF758FC0028C8D082
:104F30000E3517FA85F5ADB2DFE721463046FFF7AB
:104F40009BFC0028BDD0A3787B7023785A191C44A1
:104F5000637895B2DAE70B460925D5E7D82100201A
:104F6000DA210020137803F06003202B08D170B5FC
:104F7000264C938894F800C09C4503D0002070BD57
:104F8000002070475378203B032BF7D8DFE803F06D
:104F900027230D0201292ED003291ED11C4BE3B17A
:104FA00000205188AFF3008017E0012923D00329A6
:104FB00013D15588174805F0010686F001012571C7
:104FC00000F0B8FD144B43B131460020C5F3400258
:104FD000AFF3008001E0012911D0012070BD01294B
:104FE0000DD00329F9D10D4B002BF6D000200C4930
:104FF000FEF7ACFAF1E71146FFF7BCFCEDE711460E
:105000000723074AFFF7D0FCE7E700BFD8210020BD
:1050100000000000FC210020000000004D350010C1
:10502000E02100202DE9F843354E0C46F278074682
:105030008A421D463DD0B3788B4212D04FF0E02318
:10504000D3F8F03DDB0732D40020BDE8F8832D4BC8
:1050500023B12D4800F080FB00284DD00020FFF741
:1050600099FDB378A34201D00120EEE7274B13B19D
:105070000020AFF300800020FFF72EFE0028F3D1C0
:10508000234800F059FB0028EED1002DECD015F09C
:105090003F05E9D13846B178FFF710FC0028E3D08E
:1050A0002B462A463846B178FFF72CFCDCE700BED9
:1050B000CAE79AB2174906F1100000F071FC164BCE
:1050C000002BC4D07379FF2BC1D0002DBFD0DFF8E7
:1050D000448008EB050902E0C845B8D0737918F898
:1050E000012B9A42F8D1084800F036FB0028F3D192
:1050F0007179AFF30080EFE7AFF30080AEE700BF58
:10510000D821002000000000E8210020000000005D
:10511000FC2100205421002000000000F0B54FF4D5
:10512000137285B00021124801F002FA40260023D4
:105130004FF480750E4F0F4C07F5A6721946CDE956
:105140000246009201951A4607F5947000F0C6F9E0
:105150000023384607F12801344400910122194602
:10516000CDE902460195043000F0B8F905B0F0BD74
:10517000C82400204824002008B5054800F0DAF9CA
:10518000034BA3F5927000F0D5F9012008BD00BFD4
:10519000F025002038B50025064C04F598702570E0
:1051A00000F0ACFC04F10C0000F0A8FC84F82951DC
:1051B000657138BDC82400202DE9F8434B79FF2BD9
:1051C00051D1354E96F82931002B4CD196F80580F7
:1051D000B8F1000F47D18B780C7833700B790F46FC
:1051E0000C44ABB38146A51803E0A54230D923781F
:1051F0001C446378052BF8D1AC4229D2214648469D
:10520000FFF73AFB40B3A378DB092FD1234800F026
:1052100075FCA37896F8282186F82931A38848469A
:10522000C3F30A03A3F50073B3FA83F35B0963F3D3
:1052300041021B4986F8282100F0EAF960B1237881
:105240003A7908F101081C445FFA88F39A42D0D8F1
:10525000E11B88B2BDE8F8834FF0E023D3F8F03DBE
:10526000DB0700D500BE0020BDE8F8830D4800F044
:1052700045FCA37832797371A3880B49C3F30A0301
:10528000A3F50073B3FA83F35B0963F341020020D3
:10529000327100F085F9D2E7C8240020F8250020FB
:1052A000F0250020D4240020CC24002070B51B4C15
:1052B000064694F829C11D468C4511D063798B426E
:1052C00001D0002070BD164B1BB10020A9B2AFF376
:1052D00000803046134900F063F9C8B1012070BD69
:1052E000B4F8343163B9104B23B100200F49AAB28E
:1052F000AFF3008030460E4900F08AF90120EEE756
:10530000D4F82C11AAB204F5987000F049FBEAE732
:105310002A463046034900F00FF9DFE7C824002091
:1053200000000000CC2400200000000048240020E1
:10533000F025002010B582B0C9B101280CD80B7837
:1053400053B1144C012B235402D0012002B010BDE4
:10535000FEF708FE0028F8D14FF0E023D3F8F03D27
:10536000DB0702D4002002B010BD00BEFAE7012422
:10537000084601A9ADF80440FEF7F4FD38B94FF036
:10538000E023D3F8F03DDA07EDD500BEEBE7014BA3
:105390001C70E8E714230020F8B5037813F001042B
:1053A0001AD1037805465A07C3F3800701D5204672
:1053B000F8BD0E464FF0FF31304601F031FB2B783F
:1053C00013F001040BD12B785B0709D42B7801244F
:1053D00043F004032B7003E000242046F8BD3C4654
:1053E000304601F025FB2046F8BD00BF70B50C46E5
:1053F00005464FF0FF31204601F012FB2B78C3F336
:1054000080065B0708D52B7813F0010311BF002637
:105410002A7863F382022A70204601F009FB3046A5
:1054200070BD00BFC378828803F003000228C2F376
:105430000A0215D003280AD001281CD1022940F203
:10544000FF3308BF4FF4806393420DD370470229A6
:1054500014BF40234FF48063934205D3012070476B
:1054600002290AD0402AF9D94FF0E023D3F8F03DC1
:10547000DB0700D500BE00207047B2F5007FEDD0FD
:10548000F2E700BF0A44914226D291F801C0BCF174
:10549000050F05D091F800C061448A42F5D87047E5
:1054A00000B591F802C00CF07F0E00EB4E0E4FEAF3
:1054B000DC1C0EF80C3091F800C061448A4209D916
:1054C00091F801C0BCF1050FEBD091F800C0614428
:1054D0008A42F5D85DF804FB704700BF2DE9F04122
:1054E0008E4682B0009390F800C0089EBDF82470EC
:1054F0006EF3000C04461546012331463A4600F887
:1055000008CBBDF82C8000F0E7F806B13FB90120C8
:105510000A9BA4F80280636002B0BDE8F08104F148
:105520001C063046FCF708FD0DB135460026C4E9DF
:105530000556ECE701207047F8B50746084640F2EB
:10554000FF13154610F8082B0C4612F0020F0CBF83
:105550003F261E4600F0F0F828B925B12E4202D1B0
:105560002378DA0701D50020F8BD38466178FFF7C7
:10557000A5F90028F7D0237813F0010307D04FF0E6
:10558000E023D3F8F03DDB07EDD500BEEBE71A468C
:1055900038466178FFF7B6F90028F0D0F8BD00BFB3
:1055A00070B501F10805064628460C4600F0C4F81F
:1055B00010B12378DA0701D5002070BD304661783C
:1055C000FFF77CF90028F7D028466288616800F070
:1055D00029F92378054603F0010340B173B14FF078
:1055E000E023D3F8F03DDB07E6D500BEE4E7002B6F
:1055F000E2D130466178FFF773F9DDE70346626870
:1056000030466178FFF77EF90028E8D0284670BD63
:105610008A892DE9F0410B780C46064622B9DD0750
:1056200034D50020BDE8F08104F108079907384619
:1056300047BF4FF47E484FF400754FF6C0784025C1
:1056400000F094F88542ECD82378DA07E9D43046A4
:105650006178FFF733F90028E3D0384600F086F888
:105660002378854203F001032DD8BBB9658808EA89
:105670000008454528BF454661785DB362682B4602
:105680003046FFF73FF948B12846CBE74978FFF7A6
:1056900015F90028C5D02378D80707D54FF0E023A7
:1056A000D3F8F03DDB07BCD500BEBAE7638861786C
:1056B0003BB162683046FFF725F90028EED06088DC
:1056C000B0E71A46F6E7002BABD130466178FFF71A
:1056D00007F9A6E72A46D2E72DE9F041B2F5004FD7
:1056E0009DF8188024D80446C06817460E461D460B
:1056F00018B14FF0FF3101F093F9206918B14FF064
:10570000FF3101F08DF90022C5F30E03E06843EA92
:10571000C83362812660A780E380228108B101F04E
:1057200087F9206908B101F083F90120BDE8F08113
:105730000020BDE8F08100BF038942899BB292B28C
:105740008088934236BFC2EB40029B1A9B189BB2E3
:10575000984228BF184670470289438990B29BB28D
:10576000C01AB0FA80F04009704700BF038942892F
:105770009BB2808892B2934236BFC2EB40029B1A22
:105780009B189BB2984286BFC01A80B20020704717
:1057900038B5044600690D4618B14FF0FF3101F0ED
:1057A0003FF92189638989B29BB2A288994236BFA9
:1057B000C3EB4200C81A401880B250B3824209D2EB
:1057C00091422CBF891A89188BB29A42638103D8FF
:1057D0009B1A9BB29A42FBD9E2882168C2F30E025F
:1057E00002FB0311284600F01BFF6189012589B2E5
:1057F0004B1C9BB29942A2880ED9002302FA05F1F4
:105800005B1A9BB22069638108B101F011F9284647
:1058100038BD054663899BB2B3EB420F4FEA4201A4
:10582000F0DBEDE72DE9F047064600698846914632
:1058300018B14FF0FF3101F0F3F8338974899BB24E
:10584000A4B2B588A34236BFC4EB45071F1BFF189F
:10585000BFB2002F4AD0BD4240D3B94528BFB94698
:10586000A5421FFA89F703D8641BA4B2A542FBD94D
:10587000B6F806A02B1B31689BB2CAF30E029F42FA
:10588000924602FB041123D913FB02F31FFA83F99A
:105890004A4640467D1B00F0C3FE621912FB0AF225
:1058A000316808EB090092B200F0BAFE7289B5883F
:1058B00092B2D3199BB29A421AD96A009B1A9BB230
:1058C0003069738108B101F0B3F83846BDE8F0875C
:1058D000404607FB02F200F0A3FEE7E7AB422CBF15
:1058E0005B1B5B199CB22F467481B6E773899BB230
:1058F000B3EB450F4FEA4502E2DBDFE7F8B50446BC
:10590000C0680E4618B14FF0FF3101F089F82589C3
:10591000238961899BB289B2A2888B4236BFC1EBD1
:1059200042015B1A5B189BB29A42ADB208D8E77984
:10593000FF0905D1E06808B101F07AF83846F8BDF2
:10594000954228BF2B4618D39B1A9BB29342FBD299
:10595000E2882068C2F30E0202FB0300314600F029
:105960005FFE6B1C9BB29D42A28812D9002351009E
:105970005B1A9BB201272381DCE7E2882068C2F32F
:105980000E0205FB0200314600F04AFE0135A288F6
:10599000ABB2B3EB420F4FEA4201EBDBE8E700BFEB
:1059A0002DE9F04F174683B0002A75D00646C0682F
:1059B000894618B14FF0FF3101F032F8F379B6F8AB
:1059C00008807289DB09B5881FFA88F892B23CD149
:1059D000904536BFC2EB4502A8EB0202424492B2A8
:1059E000AA425ED2AA1A92B2BA4228BF3A46B6F882
:1059F00006B097B27B1B08EB070ACBF30E0B9BB2EA
:105A00001FFA8AFAA845444603D3641BA4B2AC42E9
:105A1000FBD22D1B3068ADB2BD420BFB040057D347
:105A200049460BFB07F200F0FBFDB288D0454FEA78
:105A3000420302D8BAEB420F03DBAAEB03031FFABF
:105A400083FA3D46A6F808A02CE0B6F806B0AF42AF
:105A5000CBF30E0B2FD2904536BFC2EB4501A8EB1E
:105A60000201414489B2680039447B1B81429BB2E8
:105A70000DDB02EB050A1FFA8AFAAAEB07081FFAE8
:105A800088F8424537D9A8EB00001FFA80F807EBE9
:105A9000080A1FFA8AFAB5E71546284603B0BDE89A
:105AA000F08F0025F0680028F7D000F0C1FF2846ED
:105AB00003B0BDE8F08F002DF4D07F1B02EB050A88
:105AC0000BFB079990462F4600231FFA8AFA99E7A5
:105AD00015FB0BF5ADB22A464946019300F0A0FD37
