:020000041000EA
:10000000002008205D0100101B0100101D010010E0
:100010001101001011010010110100101101001058
:100020001901001019010010190100101F01001022
:10003000110100101901001021010010230100100E
:100040001101001011010010110100101101001028
:100050001101001011010010110100101101001018
:100060001101001011010010110100101101001008
:1000700011010010110100101101001011010010F8
:1000800011010010110100101101001011010010E8
:1000900011010010110100101101001011010010D8
:1000A00011010010110100101101001011010010C8
:1000B00011010010110100101101001011010010B8
:1000C00011010010110100101101001011010010A8
:1000D0001101001011010010110100101101001098
:1000E0001101001011010010110100101101001088
:1000F0001101001011010010110100101101001078
:100100001101001011010010110100101101001067
:10011000EFF30580103800BE00BE00BE00BE00BE7A
:1001200000BE00BEF2EB8871E4B2001008B300100C
:10013000A001001090A31AE7D3DEFFFF42012110B7
:10014000FF01000080D20000793512AB4FF00000B3
:100150001E49086006C881F3088810474FF05040D8
:10016000006810B14FF00000F2E70DA40ECC00299A
:1001700002D000F012F8F9E71549164A002000E015
:1001800001C19142FCD11449884714498847144958
:10019000884700BEFDE701C901C29A42FBD3704700
:1001A00008B3001010010020C0210020B8D30010B7
:1001B0000000082000000820B8D30010001008201C
:1001C00000100820000000007047000008ED00E06B
:1001D000C0210020BC870220D94C00105103001020
:1001E000D14C0010F8B500BF064B0749C91A891059
:1001F00048BF0131491003D0044B0BB101481847E7
:10020000704700BFC0210020C02100200000000076
:1002100008B5054B1BB105490548AFF30080BDE8A3
:100220000840FFF7E1BF00BF00000000282F0020BA
:100230000087001008B5034D034C2968206808F0BA
:100240000FFAFAE7942A00207C1B002010B5084C16
:100250002068012806D0002000F0B0FE0123012014
:10026000236010BD00F0AAFE00230120236010BD12
:10027000701B0020002110B5184C084623681B692C
:100280009847236800210420DB68984723681448B6
:10029000DB6A9847236800210320DB6898472368BE
:1002A0001048DB6A9847236806200021DB689847DE
:1002B0000D4B1A782368012A94BF0C480C48DB6A5E
:1002C00098472368042100201B6998472368002170
:1002D000BDE810400220DB68184700BF9C2F0020BB
:1002E000008700102C870010B88702204487001078
:1002F0008487001000B5102085B002F0C1FD0A20EF
:1003000002F08EF90E4803AB02AA01A902F0A4FC88
:1003100018B90B490B4801F03DFBDDE902120198C9
:1003200002F0D8FB0121084804F0C2FE052002F0CB
:10033000CBFB0146054805B05DF804EB04F0B8BE00
:10034000E0930400FC870010C8870010E4870010C9
:1003500000B585B004F0E8FDFFF7CCFF00F0B4F87D
:10036000022001F093F94FF0020C8646264C274DEF
:1003700003234FF4207230210020C4F800E085F8F8
:1003800000C000F083FD03234FF4207231210020D0
:1003900000F07CFD1E4D03234FF42072322100201B
:1003A00000F074FD4FF4207233210323002000F08D
:1003B0006DFDFFF75FFF284602F09AFA23689B68FD
:1003C0009847044602F014F800214FF47A72114B5A
:1003D000CDE90115009323B283FB022302F0F8F963
:1003E0000D4807F0CFFB01210C4A0D4B10681B682C
:1003F00008305A6881400A4204D153F820205A68D4
:100400000A42FAD0FEE700BF9C2F0020B8870220E6
:10041000482300204D02001035020010942A0020CD
:100420007C1B0020244870B40468A10101F1A043A2
:100430001A69520117D44FF4113C204B204803F5A0
:10044000A05200EA44309D0712D012F8011BBCF103
:10045000010C03F8011BF6D14FF4A05270BC00212F
:10046000184807F08BBE1A695601FCD40468E2E70D
:100470005FEA9C060CF0030511D040F4FC00A101DA
:1004800001F1A04140F059000A604B608E60C860E5
:1004900008694001FCD42CF0030C63446244002D35
:1004A000DAD01178012D1970D6D05178022D5970FB
:1004B0001CBF92789A70CFE7202F0020A82F002031
:1004C000FDFF7FFCA8730220F0B5474989B047487B
:1004D00007F098F90024464B0646214643481C6025
:1004E00007F06CF94FF480304FF4F8314FF44023AB
:1004F0004FF4000E6D46CDE90001039402930DF117
:10050000100C06F11703F70147EA03379DE80F00C7
:100510008CE80F0005979CE80F008DE80F00CDF8E0
:100520000CE020460721013401F002FA0E2CF8D12C
:10053000039B072123F0E05323F4787343F0806397
:1005400043F4E073204603930F2701F0F1F94FF0D5
:10055000000343EC4470152443EC44400022384629
:10056000012101F003FA00222046012101F0FEF9E9
:100570003846072101F0DCF92046072101F0D8F9BF
:10058000DDE901746FF31D4427F0F85744F08474DB
:1005900044F480344FF480420021164B134847F056
:1005A00070670294019707F0C1F9104C616811F46B
:1005B0008031FBD144F2FF0C324648F2A0074AF2E8
:1005C00047062B464FF48035C4F810C00748C4F8DE
:1005D000D870C4F8D860009507F024FA236843F077
:1005E0000103236009B0F0BD688A0010000030509C
:1005F000942A0020FFFF20002DE9F8430124DFF8B2
:100600009890DFF89880214ED9F80030D8F8001083
:100610001F48326804FA01F104FA03F3056804FA8A
:1006200002F21C4F0B43134325EA03033D460360CC
:1006300007F062F938464FF00041D9F80020DFF8A2
:1006400060C0131D04FA03F3CCF8003002EB420241
:10065000D8F80030D20017441A1D04FA02F2CCF880
:10066000002003EB43033268DB001D4402EB42032E
:10067000DB00043218449440CCF800403960396003
:100680002960296001600160BDE8F883741B0020C7
:1006900000002050D0102050142B0020781B002088
:1006A00000202050000000002DE9F04F2DED028BBE
:1006B00014468FB002900491FFF79EFF052C00F2C4
:1006C0003381DFE814F0060006005D015D010600DD
:1006D0005D019D499D4807F095F89D4981469B48DD
:1006E00007F090F89B498046984807F08BF89FEDFB
:1006F000928B994BDFF878A219680746DFF874B23D
:10070000924807F05BF89148DAF8001007F056F8C5
:100710008E48DBF8001007F051F84FF4402200211A
:100720008DED068B09F1060609F10103360346EA51
:10073000C316894BCDE90821186806AC0AAD4FF401
:10074000A80C039094E80F0085E80F000B96012693
:1007500095E80F00DFF820E284E80F000621102062
:10076000CDF824E0CDF818C001F0E2F833461022AD
:1007700003990096754807F00FF923464A460399F6
:10078000724807F04FF94FF440334FF440220A9378
:1007900008F10D030C921B0308EB060243EAC21397
:1007A00023F0C04343F08043DAF800900B936B4B87
:1007B000062111200D9301F0BBF833461122494662
:1007C0000096624807F0E8F842462B4649465F48E3
:1007D00007F028F94FF4402200218DED068B4FF4ED
:1007E000102E9FED577BCDE9082107F1080CBB1CAB
:1007F0004FEA0C3C4CEAC31C94E80F0085E80F005C
:10080000CDF82CC095E80F0084E80F0006211220D7
:100810008DED087BCDF818E0DBF8008001F088F85A
:100820000621132001F084F80621142001F080F83D
:100830000323122241460096444807F0ADF82346B0
:1008400041463A46414807F0EDF8434B3F4C1968A2
:1008500001F110039E4063683342FCD140F247151A
:100860000122DAF800000B1D44F8235000F11003B8
:10087000364D9A406B681342FCD140F2DF160122DC
:10088000DBF80040031D45F82360DFF8C08004F169
:1008900010039A40D8F804301342FBD101259F235E
:1008A000029E05FA00F0D6F800C0261D48F8263052
:1008B00005FA01F3034305FA04F10B43190201F4AD
:1008C0007061DFF8B8E003F00F030B43244A254FB3
:1008D000CEF800302846C7F800C0176807F0F6F8D1
:1008E0004FF0A041204B8540820118600A44C1F8B6
:1008F0006454D3685B01FCD4C1F80C54A021029B62
:1009000007EB8606136007F12F4303F560031B0D09
:1009100004EBC304154B566003EA403343EA4443F7
:1009200043F01103916013610FB0BDEC028BBDE881
:10093000F08F00BFAFF300800000010000F0010065
:1009400000000C405202300C388B00100000205088
:10095000148B0010F88A0010142B0020204600444D
:10096000801B0020A42F0020702F0020FDFF01FC21
:10097000781B0020741B002000020004002020507F
:10098000B149B24806F03EFFB1498046AF4806F093
:1009900039FFB0490746AD4806F034FF03469FEDE6
:1009A000A68BAD4ADFF8D0A21168A848DFF8CCB218
:1009B000039306F003FFA548DAF8001006F0FEFEE8
:1009C000A248DBF8001006F0F9FE4FF440290021A0
:1009D0008DED068BA04ACDE9089108F10606106856
:1009E00008F10103360306AC0AAD46EAC3160590CA
:1009F00094E80F0085E80F000B96012695E80F009C
:100A0000DFF87CE2DFF87CC284E80F0006211020CA
:100A1000CDF824E0CDF818C000F08AFF334610224C
:100A200005990096894806F0B7FF23464246059986
:100A3000864806F0F7FF4FF480330A9307F10D0361
:100A4000BA191B0343EAC21323F0C04343F08043A7
:100A5000DAF800800B93814B06211120CDF83090FD
:100A60000D9300F065FF334641461122009677480A
:100A700006F092FF3A4641462B46744806F0D2FFF4
:100A800000218DED068B4FF4003E039BCDE90891CC
:100A90000FF2AC19D9E9008903F1080C4FEA0C3CBC
:100AA00002334CEAC31C94E80F0085E80F00CDF830
:100AB0002CC095E80F0084E80F0006211220CDF825
:100AC00018E0DBF80070CDE9088900F031FF06215D
:100AD000132000F02DFF0621142000F029FF03232E
:100AE000122239460096594806F056FF2346039ACB
:100AF0003946564806F096FF574A544C126802F1A0
:100B000010039E4063683342FCD140F24715012137
:100B1000DAF80000131D44F8235000F110034B4C89
:100B2000994063680B42FCD140F2DF160121DBF8EB
:100B30000050031D44F82360444F05F11003994011
:100B40007B680B42FCD1012340F23F1E4FF0A041D5
:100B500003FA00F003FA02F205F1040C024303FA6F
:100B600005F52A43100200F470603D4E3D4C02F042
:100B70000F02024347F82CE03260226803FA02F0C9
:100B8000394B92011D680A44C1F86404D3685E01C0
:100B9000FCD4C1F80C0401204FF0A046334F3B6851
:100BA0009A0198403244C1F86404D3685B01FCD4D4
:100BB000C6F80C04012006F089FF2060012006F031
:100BC00085FF0121D4F800C0DBF80040284A04F179
:100BD000040E05EB8E04029D386002EA4C322F6849
:100BE0004FEA8C1505F1A04542EA4032214B2F60B7
:100BF00042F480226C60049C03EA403342F011020C
:100C0000AC6043EA4C332A618001029A00F1A040B3
:100C100043F4FC03026043F0090301FA0CF245605F
:100C200081600361C6F850240FB0BDEC028BBDE8B3
:100C3000F08F00BFAFF300800000010000F0010062
:100C400000000C405202300CE08A001000002050DE
:100C5000BC8A0010A08A0010142B002020460044FB
:100C600000202050702F0020801B0020742F0020B7
:100C7000FD1F00FCFD1F7EFC781B0020741B002064
:100C80000002000400CD1700054B1B685B6D5A681D
:100C9000197C13885B1A1BB223EAE3731380704735
:100CA000A02F0020054B1B685B6D5A68597C538848
:100CB0005B1A1BB223EAE37353807047A02F002016
:100CC0000B4B1B68596D4A680B7C108803441BB2A0
:100CD0004F2B01DC1380704700201080B2F802C057
:100CE0004B7C63441BB21E2BD4BF53805080704793
:100CF000A02F0020064B1B685B6D5A685B7C5188F7
:100D00000B441BB21F2BA8BF00235380704700BFAA
:100D1000A02F0020024B1B685B6D9862704700BFDC
:100D2000A02F00200021024B08461B681B691847B2
:100D3000A02F00200A4B1B685B6D187205280AD88B
:100D4000DFE800F0060603030603064A1A60704750
:100D5000054A1A607047022202491A7219607047E8
:100D6000A02F00208002E0014001F0000F4B1B6823
:100D70005B6DB3F800C0844517D900B5B3F802E045
:100D80008E4510D91A7C12FB00F258685B7C92B237
:100D900013FB01F39BB2944598BF00229E4598BF78
:100DA0000023028043805DF804FB7047A02F0020E1
:100DB000024B1B685B6D987C704700BFA02F002022
:100DC000024B1B685B6D5B68D8807047A02F0020CA
:100DD000024B1B685B6D5B68D8887047A02F0020B2
:100DE000024B1B685B6D5B6818717047A02F002079
:100DF000024B1B685B6D5B6858717047A02F002029
:100E0000024B1B685B6D187659767047A02F002047
:100E1000024B1B685B6D187E704700BFA02F00203F
:100E2000064B10B51B6800215C6DE269A06A07F0F3
:100E3000A5F9002263681A6010BD00BFA02F002032
:100E4000114B30B51B685C6D40EA0103B4F802E059
:100E5000DB0F8E45D8BF43F00103B4F800C06BB977
:100E600084450BDD01FB0C00A56A4110C0076B5CDB
:100E700005D5208C034043EA02126A5430BD608CD1
:100E800003401A436A5430BDA02F00202DE9F041E1
:100E9000214C2468D4F85480B8F800C0844519DD8A
:100EA0001F46B8F802300E468B4213DD83189C456E
:100EB000B8BFACEB000C1446B8BF0CF1FF34C2074E
:100EC000054620D4E30715D46210002A02DDB6F5EA
:100ED000F07F01DBBDE8F081D8F8280006EB86063C
:100EE0006D1005EB861547EA07112844BDE8F0416F
:100EF00007F044B9281901383A4600B231B2FFF779
:100F00009FFF013CE0E73A4609B200B2FFF798FFC5
:100F10000135013CD6E700BFA02F00202DE9F04F9E
:100F2000254C8A4626685918746D9DF8247065888A
:100F3000A94203DD6B1EA3EB0A031BB29042844659
:100F400037DC9A4535DC02F101095D1C4FEA0718D0
:100F500053460FFA8CF109E0228C024042EA080263
:100F60000BF80E200133AB421DD0746D22886088CF
:100F700041EA030E6245C8BF9842F3DD1EF4004FFC
:100F8000F0D103FB02C2D4F828B04FEA620ED207B8
:100F90001BF80E00E0D4628C013310403843AB42A2
:100FA0000BF80E00E1D10CF1010CCC4501D0746DB1
:100FB000CEE7BDE8F08F00BFA02F00207A4B2DE9CF
:100FC000F04F1B6885B0D3F85490D9F8043099F8E5
:100FD00018701D7999F81960B3F90040B3F902A0AF
:100FE000002D75D05D79002D3AD08046002800F0A4
:100FF000A5801D7A51461023082220460096FFF74F
:101000008DFF99F8113015FB03F133B30022674BC4
:10101000CDF808901944CDF80CA091468A460734C3
:101020004FF0070B039B1AF8018F03EB09052DB254
:1010300048FA0BF3DB07A4EB0B004CBF3A463246F1
:10104000294600B2FFF7FCFEBBF1010BF0D2029B78
:1010500009F101095B7C9945E2DB05B0BDE8F08F41
:1010600093F8088051461023082220460096FFF787
:1010700055FF99F8113018FB03F1002BEDD04B4BC5
:10108000CDF808901944CDF80CA0A9468A4607343B
:101090004FF0070B039B1AF8018F03EB09052DB2E4
:1010A00048FA0BF3DA07A4EB0B004CBF3A46324682
:1010B000294600B2FFF7C4FEBBF1010BF0D2029B40
:1010C00009F101095B7C9945E2DB05B0BDE8F08FD1
:1010D00010235146082220460096FFF71FFF99F87B
:1010E00011305901002BB8D0314BCDF8089019447C
:1010F000CDF80CA02A468946AA4607344FF0070BC4
:10110000039B19F8018B0AEB03052DB248FA0BF388
:10111000DB07A4EB0B004CBF3A463246294600B22F
:10112000FFF78EFEBBF1010BF0D2029B0AF1010A20
:101130005B7C9A45E2DB05B0BDE8F08F1023514699
:10114000082220460096FFF7E9FE99F81130590170
:10115000002B82D0164BCDF808901944CDF80CA086
:101160004246C1468A4607344FF0070B039B1AF8E4
:10117000018B09EB03052DB248FA0BF3D907A4EB59
:101180000B004CBF3A463246294600B2FFF758FEE4
:10119000BBF1010BF0D2029B09F101095B7C99457F
:1011A000E2DB05B0BDE8F08FA02F00205F02002039
:1011B00060020020A64B2DE9F04F1C68A0F1080347
:1011C000656D89B0A946052B3ED8DFE803F01BB456
:1011D000123D3D036B68002201201A80FFF7EEFEEE
:1011E0006A686B88B2F902709F421FDA09B0BDE8E5
:1011F000F08F0020FFF7E2FE6B686A7C59880A4492
:101200005A80E8E70020FFF7D9FE6A68297C138836
:1012100001205B1A1BB223EAE3731380FFF7CEFEB3
:101220006A686B88B2F902709F42DFDBFFF7FAF859
:101230000022D9F804301A8099F811105A88521AED
:101240005A8009B0BDE8F08F2B7E6A680493AB7CAE
:101250000646022B95F819B0B2F90080B2F9027077
:1012600077D01023404608223946CDF800B0FFF76A
:1012700055FE6B7C16FB03F0002B00F0BE801FFABE
:1012800088F300261946734ABFB210444FEA0B1286
:101290000592049A1201CDE9062510F801AF0A461D
:1012A0004FF0070CCDE902600FFA87F919E083B916
:1012B00008FB0908B06A4FEA680E18F0010F10F831
:1012C0000E3000F0B280368C1E40069B1E4300F8A4
:1012D0000E600CF1FF3C0132BCF1FF3F92B200F016
:1012E0008180666D47EA02007388B6F800809945F0
:1012F000B4BF002301234AFA0CFE43EAD03310B2F4
:101300008045D8BF43F001031EF0010FCFD1002B61
:10131000DFD108FB0900D6F828804FEA600EC0072D
:1013200018F80E3040F18880308C1840059B184327
:1013300008F80E00CDE7696895F82430B1F900206F
:10134000B1F902701A442B8893426B88C8BF0A8097
:101350004AE7B5F800C04046C4456B8855DD9F425A
:1013600053DA18F10B0F50DB17F10F0FC0F2CE80DC
:1013700007F110029342AFBF102103F1FF31C91BE7
:1013800089B2B8F1100F09B266DC8F4264DC01311A
:101390008C463B4608E02A8C0AEA02020EF801203D
:1013A000013363454FD0656D2A88B5F802E082426B
:1013B0008CBF002101219E45D8BF41F001010029C9
:1013C000EED1002BECDB03FB0202D5F828E0511034
:1013D000D2071EF801A0DED46A8C0AEA020A0EF8CF
:1013E00001A0DDE76A7CDDE9026001360137964243
:1013F000BFB2FFF652AFDDF81C906A68B5F800C0C6
:10140000B2F900806B88B2F9027099F8101041446B
:1014100009B261451180FFF6E7AE002099F811107E
:10142000108039440FB25780DEE6768C3340049E3C
:10143000334300F80E304CE7708C03404BEA030353
:1014400008F80E3045E70130112805D0656DA0E79A
:10145000A02F00205F020020049A06EB86065A4562
:101460001FFA88F3BAB258D01D46464F03F10A015D
:10147000374402F1100ACDF80890B946049F89B2AA
:101480001FFA8AFA19F8016BCDE903250FFA85F8DE
:10149000CDF814905D461446894693460223F20720
:1014A00021B204F102044CBF0097009540461A4651
:1014B000A4B2FFF733FD54454FEA5606EED1494634
:1014C0005A46AB46049D0398AB1C9DB28D42DDF895
:1014D0001490D7D12B465E460546DDF808901CB225
:1014E000022329B2023520461A460096ADB2FFF714
:1014F00015FD5545F4D1D9F80420B9F800C0B2F96A
:101500000080B2F90270B9F802307EE7297C4144CC
:1015100009B28C45118080DD68E6CDF808909846C8
:101520009146184903F10A0702F1100A0E44BFB2AE
:101530001FFA8AFA4C4616F8015B0FFA88FBC1467F
:10154000B84637465E46A346E90707D50223049A04
:101550003046009221B21A46FFF7E0FC0234A4B2F2
:1015600054454FEA5505EFD13E464746C84608F177
:1015700002081FFA88F84745D946DBD1DDF8089004
:10158000B9E700BF648B001030B5044600780D4603
:1015900085B028B1FFF70EFE14F8010F0028F9D12D
:1015A00000240D4BC5F3031205F00F05985C5B5D3D
:1015B0008DF804008DF805308DF806408DF80C404C
:1015C00040B10134E4B2FFF7F5FD0DEB04031879E7
:1015D0000028F6D105B030BD508B001010B5044680
:1015E000007828B1FFF7E6FD14F8010F0028F9D1C3
:1015F00010BD00BF30B5044600780D4685B028B157
:10160000FFF7D8FD14F8010F0028F9D100241D4B75
:10161000C5F3031205F00F05985C5B5D8DF80400BF
:101620008DF805308DF806408DF80C4040B101343E
:10163000E4B2FFF7BFFD0DEB040318790028F6D1E3
:101640000025114B00201B685C6DFFF7B7FC636839
:10165000627C59881D800A445A800120FFF7AEFC45
:1016600062686388B2F902209A4201DA05B030BD9F
:10167000FEF7D8FE63681D80617C5A88521A5A8032
:1016800005B030BD508B0010A02F00202DE9F84F81
:101690000646582001F05CFF05463D4F2C203D607A
:1016A00001F056FF0446002D6AD0002868D00120C2
:1016B00006F00CFA0246374B0C201A6000F02CF9A9
:1016C0000346354DDFF8108132464FF41631284677
:1016D000C8F80030FEF7E8FF3B68DFF800915C6572
:1016E00000F0DCF80722D5F800C04FF416310425CD
:1016F000D8F8003022831A686060E26030469E8825
:10170000DFF8DC8026829B796261A374234BC4F8E6
:1017100028C0C4E9071384F82450FFF70BFB204CC2
:1017200038682049204B214AC162C0E90042204963
:10173000204AC360204B214E214D83630162214B1F
:1017400021490263214ADFF89CB0DFF89CA0DFF852
:101750009CE0DFF89CC01E4C4364C0E906981D4B1A
:10176000C0E90965C0E91212C0F810B0C0F83CA089
:10177000C0F808E0C0F814C044630365BDE8F88F02
:10178000284601F001FF204601F0FEFE0020F5E7AB
:10179000A02F0020202F0020841B00200F00F0002D
:1017A000110E0010DD150010010E0010B10D00101B
:1017B000150D0010F5150010B5110010250D0010C5
:1017C000350D0010F50C0010C10C0010A50C001018
:1017D00089150010890C00100C2B0020E10D001061
:1017E000F10D00106D0D0010210E0010D10D001034
:1017F000C10D0010B0F5207F02D2024B1B6818808B
:10180000704700BF842F0020B0F5F07F02D2024B5A
:101810001B685880704700BF842F0020B0F5207FE0
:1018200002D2054B1B681880B1F5F07F02D2024B43
:101830001B685980704700BF842F0020014B1B6834
:1018400018717047842F0020014B1B685871704736
:10185000842F0020014B1B68D8807047842F002004
:10186000014B1B68D8887047842F0020014B1B68F0
:1018700018727047842F0020014B1B68188870472E
:10188000842F0020014B1B6858887047842F00204C
:10189000014B1B6818797047842F002010B5382041
:1018A00001F056FEE8B1002280230E4C0E49206064
:1018B00041600E4C0E490260C0E903410D4C0E49D7
:1018C0000372C0E905410D4C0D49C0E907410D4CBB
:1018D0000D49446341620D4C0D49C0E90A410D496F
:1018E000016310BD842F002001019600F517001040
:1018F000091800101D1800103D180010491800109C
:1019000055180010611800106D180010791800109B
:1019100085180010911800100A38C0B203289ABF29
:10192000024B53F820000020704700BF6090001069
:1019300010B44FF480740C4B53F8202003EB800359
:10194000C00082F0400200F1804003F5805C02F0AC
:10195000C00200F5203003F54053CCF80020416070
:101960001C605DF8044B70470480034010B4084CC1
:10197000C90041EA820154F8202004EB8003514061
:1019800003F5805301F00C015DF8044B19607047BA
:10199000048003400FB400B583B0049C074803F0F3
:1019A00007FB3CB105A92046019103F061F9044809
:1019B00003F0FEFA012003F073F900BF6088001005
:1019C00070880010EFF3108072B6064BD3E8CF1F7B
:1019D00001220029FAD1C3E8412F0029F6D1BFF333
:1019E0005F8F70477F2600200023034AC2E88F3FA5
:1019F00080F31088704700BF7F26002070B58646B0
:101A0000EFF3108572B6124CD4E8CF6F0120002E90
:101A1000FAD1C4E8460F002EF6D1BFF35F8F4FF026
:101A2000010CC80801F007030CFA03F31EF800C00C
:101A30001CEA030608D14CEA030C0EF800C0C4E807
:101A40008F6F85F3108870BD1046FFF7A3FF00BFAE
:101A50007F260020F8B5EFF3108772B61C4ED6E84B
:101A6000CF5F0124002DFAD1C6E8454F002DF6D1F5
:101A7000BFF35F8F9A421BD8012502E001329342E7
:101A800022D3D40810F804E002F0070C05FA0CFC8D
:101A90001EEA0C0FF2D14EEA0C0E00F804E01046DC
:101AA0000023C6E88F3F87F31088984207DBF8BD14
:101AB0000023C6E88F3F87F310884FF0FF300029DE
:101AC000F5D00698FFF766FF4FF0FF30E8E700BF5C
:101AD0007F260020044A1078431CDBB2182B28BF55
:101AE00010231370704700BFB81B002010B5054CC1
:101AF00082B001461F23182200940348FFF7AAFF73
:101B000002B010BD74880010A02A00204FF0E0221F
:101B1000936843F000539360704700BF0021044B6B
:101B200003F12002C3E88F1F01339342FAD17047BB
:101B3000742600204FF0E0234FF08032C3F80024D9
:101B4000C3F80424C3F80824C3F80C24C3F81024F1
:101B5000C3F81424C3F81824C3F81C24C3F82024A1
:101B6000C3F82424C3F82824C3F82C24C3F8302451
:101B700062B67047012300F01F029340400941B153
:101B8000800000F1604000F56140C0F880310360E2
:101B90007047024A203042F82030704700E100E0F0
:101BA0000123064A410952F8212000F01F0003FAE0
:101BB00000F01040003818BF0120704700E100E03D
:101BC00001224309034900F01F008240403341F8DD
:101BD0002320704700E100E0054A10309268054B71
:101BE00052F82000C01A2F288CBF00200120704717
:101BF00000ED00E0BC1B0020F8B50D46EFF31087A8
:101C000072B6124ED6E8CF2F0123002AFAD1C6E8C9
:101C1000423F002AF6D1BFF35F8F0D4B00F1100455
:101C20009B680C4A53F82430934203D0994201D068
:101C300001F006FA064B9B6843F82450BFF35F8F10
:101C40000023C6E88F3F87F31088F8BD7D2600206B
:101C500000ED00E0110100102DE9F04F81468B46A8
:101C6000164683B0EFF3108372B6DFF8D0A100936D
:101C7000DAE8CF1F01230029FAD1CAE8413F002941
:101C8000F6D1BFF35F8F664B93F90040002CC0F292
:101C9000A080644D04EB440705EB870898F8061014
:101CA00009F110091970604BBF009B6853F82900B7
:101CB0006300411B2F292FD95C49884240F0A48042
:101CC0001C445B4B02372F44043BDB1BC3F34A032A
:101CD0006FEAC3434FF421416FEAD34325F8241040
:101CE00005EB840463804BF60153A380FF2348F087
:101CF0000100E671C4F808B0A3714B4B9B6843F830
:101D00002900BFF35F8F0023CAE88F3F009B83F356
:101D1000108803B0BDE8F08F20F0010E9EF8071088
:101D2000B1422ED84FF42143EB53414BB91C294407
:101D3000043B04375B1A2F44AEF10401C91BC1F305
:101D40004A043C49C3F34A030B432143A8F8041057
:101D50003949A8F802304AF6AA2073465B1B5B415A
:101D60005843000D88F8076088F80600C8F808B0E6
:101D700048F00100CEF80010BFE7D179B1422ED96A
:101D800096469EF906C00CEB4C02BCF1000F05EB29
:101D90008202F2DA4BF601510EF10402A8F10407B7
:101DA000BF1AC7F34A076FEAC7476FEAD7478EF8EB
:101DB000064003EB0408204C05EB8803AEF80470E2
:101DC00045F82840998083F806C0DE71C3F808B052
:101DD00093E701F035F9124B93F9004059E7724649
:101DE00032F8041F490514D44915023102EB4101B0
:101DF00001916FF00701C91B019F491B3944C1F3D1
:101E00004A0141F46041C9E7019301F019F9019BCE
:101E100056E701F5FF1101F5FF511F31E4E700BF5F
:101E2000B2870220BC1B002000ED00E01101001071
:101E3000EC1B002000E0FFFF014880477D260020CA
:101E4000F0B5EFF30585EDB2EFF3108C72B62649CD
:101E5000D1E8CF2F0123002AFAD1C1E8423F002A5E
:101E6000F6D1BFF35F8F214E40F0010EB4684AF601
:101E7000AA2354F825701E4A0446A41A64416343F9
:101E80001B0D77455BB21BD092F906409C421CD0DB
:101E900092F912409C4223D092F91E409C4221D0DC
:101EA00092F92A409C4208BF03240FD0114A002413
:101EB000157813708571C1E88F4F8CF31088F0BDD1
:101EC000B2680D4C42F82540F0E7002404EB4404CE
:101ED00002EB8402FF2494714BF601549480E5E7F1
:101EE0000124F3E70224F1E77D26002000ED00E065
:101EF000BC1B0020B28702201101001010B5074C56
:101F000082B001460523002200940548FFF7A2FD98
:101F10000028A8BFC0F1330002B010BD90880010A7
:101F2000B7870220014B0B440360704774260020E2
:101F300070B5104C104DAC420ED2FF26236863B131
:101F4000FFF7C8FD01462046FFF7ECFFA680BFF370
:101F50005F8F0834AC42F1D370BDFFF7BBFD014683
:101F60002046FFF7DFFF2671BFF35F8F0834AC42D6
:101F7000E4D370BDB0210020C021002010B504467C
:101F8000FFF7A8FD01462046FFF7CCFFFF23237192
:101F9000BFF35F8F10BD00BF10B504460120FFF7EF
:101FA000A5FD034B03442360BFF35F8F10BD00BF4B
:101FB00074260020024B0B440360BFF35F8F704711
:101FC000742600200D4B1A68EFF3108172B6D2E828
:101FD000CFCF0120BCF1000FF9D1C2E84C0FBCF10A
:101FE000000FF4D1BFF35F8F00221B68C3E88F2F6F
:101FF00081F3108840BF002000217047782F002017
:102000002DE9F04F2DED028B85B0EFF30583DBB2A8
:10201000103B9A0818BF01224FF0010103F0030B97
:1020200018BFAF4DAF4B08BFAF4D0BEB820253F85B
:10203000226001FA0BF205F541539FEDA78B019247
:102040005A602FE0B3881C0440F19380B379002BD1
:1020500040F0DD80B6F90820002AC0F21E817369C5
:1020600002EB420203EBC203D3E90247B7F1FF3FA1
:1020700008BFB4F1FF3F0ED005EB8B01AB6A0A69D4
:10208000D21AE31A934205D301232A6A03FA0BF307
:10209000134200D10C61284600F08AFCA042B941ED
:1020A000C0F2FB80B6F90830019A002B0093EA6376
:1020B000C8DBD6F8148003EB4309284608EBC907B0
:1020C000D7E9024A00F074FCA04271EB0A01B9DBC7
:1020D000BAF1000FC0F2C380D7E90431834A9342BA
:1020E00000F0ED807A88B6F9080092B242EA00402A
:1020F000984702460B4652EA030100F0B080002BDD
:1021000080F2D180B4EB020E6AEB030A38F9393061
:10211000C7E902EA002B95DB716903EB430201EB8F
:10212000C202D2E90270BE457AEB000C4FEA4302CC
:1021300088DBB4462CF8083F06E003EB430001EBD4
:10214000C0005A00D0E90270BE451A447AEB000084
:1021500001EBC20404DB31F93230A446002BECDA87
:1021600028F83930009BACF80030B3881C043FF5E8
:102170006DAF3369EFF3108272B6D3E8CF0F012150
:102180000028FAD1C3E8401F0028F6D1BFF35F8FC3
:102190004FF6FF74B0880023316900B2B480C1E803
:1021A0008F3F82F310889842FFF650AF0746A9464A
:1021B000746906F1080807EB470E04EBCE03D3E978
:1021C0000250B6F90830C446002B13DBB246009724
:1021D00004E034F936309446002B09DB03EB430668
:1021E00004EBC602D2E90271BD4270EB0101F0DAE4
:1021F0005646009FACF8007034F93E7024F83E302B
:10220000002FD8DAB3794D46002B3FF423AF0023DB
:10221000B371B6F9083006F10808581C3DD01A46CB
:10222000776903E08046591C3FF416AF03EB430186
:1022300007EBC100B0F802C01C461CF4004F9E46DC
:1022400037F93130EED0944280ED028B05D0A8F8FA
:102250000030328927F8312034817246E3E738F8BC
:10226000393033813369EFF3108272B6D3E8CF0F80
:1022700001210028FAD1C3E8401F0028F6D1BFF39E
:102280005F8F7388316928F83930009B7380002391
:10229000C1E88F3F82F31088D4E640BF05B0BDECA3
:1022A000028BBDE8F08F2846CDE9022300F080FBC9
:1022B000029A039B10EB020E43EB010A26E7084645
:1022C0000B69029198470028C9D00299D1E90023EF
:1022D00011E700BFAFF30080FFFFFFFFFFFFFFFF2D
:1022E00000800B40482F002000000B400120001010
:1022F0002DE9F84F364C25692DB1BDE8F84F0A217C
:102300003448FFF70FBEDFF8E4800321404600F0B9
:102310003DFB0326C4F80C80FFF7DCFB4FF0504C6C
:102320002D4B267003442361DCF800300F216370CD
:10233000636961801D834FF00405A3F878504FF066
:102340000505A3F890504FF00605A3F8A8504FF0EC
:1023500007050E214FF6FF7208274FF00A0EA3F86B
:10236000C0504FF001094FF00C0C4FF0020B4FF032
:10237000090A0D204FF00B05A3F868111749A28038
:10238000A3F808E1A160A3F848B0A3F8F0A0A3F86F
:102390002051A3F838C1A3F85001A3F83090A3F856
:1023A0006060A3F8D8701A800D4B3046C8F82070D2
:1023B0000C49DC60FFF720FC49463046FFF7DAFBAA
:1023C000094B0A211F640348BDE8F84FFFF7AABD77
:1023D000041C0020782F002074260020FFFF10002E
:1023E000482F00200120001000200B4000000B406F
:1023F00000487047041C0020F8B59DF820500446A2
:1024000017461E4635B900F0DBFA874266EB01013C
:1024100000295CDB2169EFF3108372B6D1E8CF0F9E
:1024200001220028FAD1C1E8402F0028F6D1BFF3DD
:102430005F8FB4F90220656902EB4201002A4FEA7E
:10244000C10C206905EBC10139DB35F80CE0A4F8BB
:1024500002E04FF0000EC0E88FEF83F31088488849
:10246000069B0130C0F30E00012838BF01200B612C
:10247000079B48804B61C1E9027640EA024023692C
:10248000EFF3108172B6D3E8CF7F0126002FFAD187
:10249000C3E8476F002FF6D1BFF35F8FA38825F8FD
:1024A0000C30A2802369C3E88FEF81F310880122EA
:1024B000E368217803F501538A405A60F8BD002291
:1024C000C0E88F2F83F310884FF0FF30F8BD284607
:1024D000F8BD00BF0146F0B50069EFF3108772B692
:1024E000D0E8CF5F0124002DFAD1C0E8454F002D80
:1024F000F6D1BFF35F8FB1F902E04C690EEB4E0CE1
:10250000BEF1000F4FEACC05086904EBCC0C3CDBB4
:10251000665B4E800026C0E88F6F87F31088BCF89A
:102520000200CCE902230130C0F30E00012838BFBD
:102530000120059BACF80200CCF81030069B40EA65
:102540000E40CCF814300B69EFF3108272B6D3E86A
:10255000CFCF0127BCF1000FF9D1C3E84C7FBCF10C
:10256000000FF4D1BFF35F8F8B886353A1F804E0B1
:102570000B69C3E88F6F82F310880122CB6809785A
:1025800003F501538A405A60F0BD0023C0E88F3F35
:1025900087F310884FF0FF30F0BD00BF034640893D
:1025A000B0EB214F37DD58690A1402EB420210B537
:1025B00000EBC2001C69EFF3108C72B6D4E8CFEFC9
:1025C0000122BEF1000FF9D1C4E84E2FBEF1000F79
:1025D000F4D1BFF35F8F428889B292B28A4207D0AA
:1025E00000221B69C3E88F2F8CF31088002010BDD8
:1025F00042F4004242800121002218699971C0E82A
:102600008F2F8CF310881C78DA68084602F5015386
:10261000A140596010BD0020704700BF407870474E
:102620002DE9F04182B0064600F0CAF94FF47A7302
:1026300004464FF0FF306FF00042E6FB0341A0423A
:1026400072EB01033ABF044615460D46A61F45F13D
:10265000FF37B44275EB07033CBF0026374600F056
:10266000AFF9301A67EB0101012871F1000106DAB8
:102670002046294602B0BDE8F04100F0ABB900F0B9
:102680009FF9864267EB010100290ADB0021174B05
:102690003246009316483B460191FFF71BFF01307D
:1026A000E6D04FF0000C134A1349536A9F4204D8F6
:1026B000906AB042DCD29F42DAD10B68EFF310800F
:1026C00072B6D3E8CF8F5FF0010EB8F1000FF8D1EA
:1026D000C3E848EFB8F1000FF3D1BFF35F8F0B6889
:1026E000C3E88FCF80F3108820BFDEE7C51F00103E
:1026F000041C002000000B40782F00202DE9F0433F
:1027000006460D4683B0EFF30584E4B23CB12D4B91
:102710005A6AAA421CD2002003B0BDE8F0832A4FB7
:10272000D7F80C9097F80080484600F041F908F17E
:10273000040859F828301B1A301A65EB0101984239
:1027400071F1000110DB20BF1E4B5A6AAA42E2D38E
:1027500014BF012400249B6AB34234BF204644F0D6
:10276000010003B0BDE8F08300F02AF9864265EB72
:102770000101002914DB154B3846CDE900343246FF
:102780002B46FFF7A7FE011E0ADD0E4B5A6AAA422E
:1027900016D39B6AB34211D30B48FFF7FFFEB6E78F
:1027A000084B5C6AAC42B6D3641B18BF01249B6A19
:1027B000B34234BF204644F00100ADE7AA42EBD15A
:1027C00020BFE9E700000B40041C0020C51F0010DB
:1027D0002DE9F0410446DDE9071552EA030072D005
:1027E000002B16461F4673DB0698C5E900232861B7
:1027F000AC60696100F0E4F84FF0FF326FF0004325
:10280000801947EB0107824273EB07013CBF1F466B
:1028100010462369EFF3108272B6D3E8CF6F01211F
:10282000002EFAD1C3E8461F002EF6D1BFF35F8F0A
:10283000B4F90210666901EB410300294FEAC30CA9
:10284000D4F8108006EBC30346DB36F80CE0A4F89E
:1028500002E04FF0000EC8E88FEF82F310885A882C
:10286000C3E902070132C2F30E02012A38BF012276
:102870001E485A805D61186142EA01422369EFF304
:10288000108072B6D3E8CF8F0127B8F1000FF9D1CD
:10289000C3E8487FB8F1000FF4D1BFF35F8FA3887E
:1028A00026F80C30A1802369C3E88FEF80F31088ED
:1028B00001202178E36800FA01F103F50153596022
:1028C000EA60BDE8F0810126002732463B468BE7EF
:1028D000564263EB430787E70020C8E88F0F82F377
:1028E00010884FF0FF32EA60BDE8F081012000104F
:1028F0000246C06800B9704791680314B1F80AC075
:10290000BCEB204F3DDD30B54C6903EB430304EBDA
:10291000C30C0B69EFF3108E72B6D3E8CF5F0124BE
:10292000002DFAD1C3E8454F002DF6D1BFF35F8FDC
:1029300083B2BCF8020080B2834209D00023096947
:10294000C1E88F3F8EF3108800230020D36030BD94
:1029500043F40043ACF802304FF0010C0023086947
:1029600081F806C0C0E88F3F8EF31088CB680978E5
:1029700003F501530CFA01F1596000236046D3605E
:1029800030BD00230020D360704700BF10B4054B5A
:10299000054C064AA04214BF1846581C5DF8044B6B
:1029A000FFF72CB8A42A002000800B40AC88001050
:1029B0000346416A0A46986A596A8A42FAD17047C0
:1029C000034B596A0A46986A596A9142FAD170478C
:1029D00000000B40074A536A9942FCD8994207D13C
:1029E000044B02E05A6A914202D19A6A9042F9D8A5
:1029F000704700BF00000B4000EB400C4FEA8C0C0E
:102A00000CF1804C0CF5803CF0B51646DCF8042047
:102A1000051FB2F5803F38BF4FF48032EDB238BFAA
:102A2000CCF80420012D2AD94FF40067254C0CF571
:102A30004052176054F82020B2B9DCF80020012D74
:102A400082EA461202F0E0020CF5805632602AD982
:102A50004FF4006144F820304FF480330CF50052FD
:102A60001160CCF80430F0BD6769B7FBF2FE0EF1DF
:102A7000010E0EEB4E0EBEF1030EFCD2DDE7012976
:102A8000D2D103240CF540521460DCF80820D207A0
:102A9000FBD5DCF800200B4C82EA461202F0E00283
:102AA0000CF5805632600122DCF800504D4005F0F4
:102AB0000305356002FA01F1DCF808200A42FBD078
:102AC000C6E700BFAC2A0020014B53F82000704736
:102AD000AC2A0020584B2DE9F0431C6C1746B4F586
:102AE000803F38BF4FF4803283B038BF1A6403226E
:102AF00080460E46514B504DDA636C6CE307FCD5B3
:102B0000EB6B4F4A83F0200303F0E003D363EB6BDE
:102B1000494D83F0010303F00303D3636C6CA407F6
:102B2000FCD54FF400624FF48039464B464CDA63D3
:102B3000464B4246636101213346C5F84090444804
:102B4000009700F057F94FF400616B6B07FB06F636
:102B50004B4538BFC5F83490384B2269B8FBF6F6C0
:102B600019633AB16369B3FBF2F3013303EB430337
:102B7000033BFDD23049324A0B6B03F0E003136391
:102B80000B6B83F0020303F0030313638B6B580793
:102B9000FCD54FF400654FF480332A4A15632D4A63
:102BA0004B6322610A6C9A424FF0030238BF0B64F8
:102BB000224B2149DA634B6CDA07FCD5CB6B204AF8
:102BC00003F0E003D363CB6B1B4983F0010303F0F5
:102BD0000303D3634B6C9B07FCD54FF480334FF456
:102BE0000065184A6661D5630B64CA6C9A4238BFA7
:102BF000CB644FF40061114BA26999643AB16369E7
:102C0000B3FBF2F3013303EB4303033BFDD24FF479
:102C100000604FF48031084A094D936C83F0400303
:102C200003F0E003AB64074B084DA5619864D164E1
:102C300003B0BDE8F08300BF000001400030014058
:102C40000010014000200140AC2A0020006CDC0292
:102C500000000540001BB7002DE9F04F4FF4A078AD
:102C6000994685B0CDE902125F4CDFF884A1544546
:102C70000AD908F1FF38A4F53B54B8F10F0FA4F1BD
:102C80002004F4D1002069E0072304F537220194E1
:102C900003FB03F402F5D872B2FBF4FE70454FF06B
:102CA000010C4FF002074FF003064FF004054FF000
:102CB00005013FD0B3F1010E00F094800EFB03F448
:102CC000B2FBF4FB58454CD019B301FB03F4B2FB43
:102CD000F4FB58454FD0E5B105FB03F4B2FBF4FB20
:102CE000584553D0AEB106FB03F4B2FBF4FB584594
:102CF00057D077B107FB03F4B2FBF4FB58455BD028
:102D0000BCF1000F05D00CFB03F4B2FBF4FB8345D0
:102D10005DD0734603FB03F4B2FBF4FE704501F192
:102D2000FF3105F1FF3506F1FF3607F1FF370CF1F2
:102D3000FF3CBFD104FB1024002CBBD19E464A4669
:102D4000DDF808B0DDF80C900120284901FB08F1FE
:102D5000CBF80010C9F80030C2F800E005B0BDE8BB
:102D6000F08F04FB1024002CAED14A46DDF808B0E9
:102D7000DDF80C90E8E704FB1024002CABD14A46A8
:102D80008E46DDF808B0DDF80C90DDE704FB10247A
:102D9000002CA7D14A46AE46DDF808B0DDF80C900D
:102DA000D2E704FB1024002CA3D14A46B646DDF836
:102DB00008B0DDF80C90C7E704FB1024002C9FD16D
:102DC0004A46BE46DDF808B0DDF80C90BCE704FBCF
:102DD0001024002C9DD14A46E646DDF808B0DDF807
:102DE0000C90B1E7019C44E750262F00001BB70070
:102DF00050F80C0070B4039D04682D0345EA0345A8
:102E00001B4B002CB3FBF1F3B2FBF3F61FDB194AAB
:102E1000194B904214BF4FF480424FF40042174CBC
:102E20001A6003F580531A60A36832EA0303FBD1EA
:102E3000212200F540530433016086601A60026865
:102E4000002AFCDA0822C5601A6070BC704703686B
:102E500003F03F038B42DAD18368C3F30B03B34221
:102E6000D5D1C36803F4EE23AB42D0D1EDE700BF68
:102E7000001BB70000800540002002400000024017
:102E80000A4B0B490B4A5960D3681904FCD40A4B0E
:102E9000D26843EA00130949534009481940054ADA
:102EA000C160D3681B04FCD4704700BF00201040F1
:102EB0000020FE5A000010400000FE5AF001FE5AA9
:102EC0000010104030B44FF080441C4B1C60E0B147
:102ED0001B4CA3F54053DC611A4C40F00100444008
:102EE0001C62596298624FF080454FF0E061134BCD
:102EF0001548164C1D60846019604AB930BC4FF00B
:102F00000042A3F580531A607047114BD861EAE77D
:102F10004FF47A7303FB02F2B2F1807F2ABF6FF0A5
:102F20007F4313461A464FF080410A4C08482360FD
:102F3000094B426030BC1960704700BF00B00D40C3
:102F4000D3C007B02D3FF84F00A00140F3FFFF01B1
:102F500000800D401C2F002000A00D40012300EB3D
:102F60004000800000F1804000F584104160036063
:102F7000704700BF002370B5DB8A04460D4600226F
:102F800042E800F2520254BF1021042144F25220C0
:102F9000984786462B462246F446BDE870400A21F3
:102FA0004FF48170604700BF0023DB8A002242E8B3
:102FB00000F2520201D4102118470421184700BF23
:102FC00008B503460846191E02DB1AB140F030006E
:102FD000FFF7D0FF40F02000FAE700BF034AD2F825
:102FE0002838002BFBD0BFF35F8F704700000E40E6
:102FF0000021044B044ABFF35F8F43F8041B934244
:10300000F9D170470C080E402C080E4010B44FF454
:103010008D704FF42A64064A064B07491460D0604D
:1030200019605368002BFCDA5DF8044B704700BF51
:103030000080044000A0044000B0FA00704700BFC8
:1030400008B50148FEF7A6FCD088001038B5054C3D
:10305000054DAC4204D254F8043B9847AC42FAD335
:1030600038BD00BFB8860010F886001038B5054C92
:10307000054DAC4204D254F8043B9847AC42FAD315
:1030800038BD00BFE4860010F886001010B4074871
:10309000074C084B084A094904601A608B6832EAF9
:1030A0000303FBD15DF8044B704700BF00200240D2
:1030B0007F3BEFEF00300240F6FFF30300000240D9
:1030C000044BDB6CB3F5004F03D14FF48022024B6D
:1030D000DA64704700001150002011504FF0E022D8
:1030E000044BD2F8881D0B43C2F8883D10EE300423
:1030F000704700BF030330006FF06041044B054A86
:1031000019609368DB4333F06043FAD1704700BF26
:10311000003002400000024010B545F25320FFF796
:1031200043FFBDE8104003460420184710B545F2A0
:103130005320FFF739FFBDE8104003460120184730
:10314000FEF7ECBC1449154B70B55C1AA610442E62
:10315000324628BF4422124D9200284605F086F8D8
:10316000B4F5867F13D80F4AC6F1440012D02B194C
:10317000410803EBC101C3E9002208338B42FAD1B5
:10318000C30704D520F00100304445F82020064B49
:103190009D6070BD4320F8E7000000101001001092
:1031A000000000201101001000ED00E0002370B5C8
:1031B0002B4C82B0C4F88430FFF728FF0122294B42
:1031C000DA63636C012BFCD10321264A244B116383
:1031D0009C6B012CFCD10226052521460523224AA1
:1031E00022480096FFF706FE21462B46204A21483A
:1031F0000095FFF7FFFD0022042031461E4BFFF72C
:10320000FBFB2146284600221C4BFFF7F5FB002262
:10321000082011461A4BFFF7EFFB00220920114648
:10322000174BFFF7E9FB002206201146134BFFF76F
:10323000E3FB0022114B07201146FFF7DDFB0420C2
:10324000FFF742FC00240F4BA3FB0035AD0CE0B2AE
:1032500029460134FFF782FE062CF8D102B070BD7A
:103260000000014000300140002F68590000054077
:10327000008C864700800540001BB70080D1F00815
:10328000006CDC0283DE1B4386B003B451FC0804EF
:10329000CDE9020151FC0904CDE9040151EC0A0415
:1032A000CDE9060103BCF047BDE800504EEC00C478
:1032B000BDE800504EEC01C4BDE800504EEC02C425
:1032C00000BD000000B5FFF7DFFF02E010FE30F4A4
:1032D000F8D441EC100443EC112400EE010410EE8C
:1032E000010480EE200451EC1004704700B5FFF794
:1032F000CBFF02E010FE30F4F8D441EC100443ECB4
:10330000112400EE010410EE210480EE200451ECA3
:103310003004704700B5FFF7B7FF02E010FE30F44D
:10332000F8D410B541EC100443EC112451EC040422
:1033300053EC0524A0FB024C5FF0000EE0FB03CE33
:10334000E1FB02CE4CEC20440024E1FB03E444EC1E
:1033500030E480EE200451EC5004BDE8104070478A
:1033600000B5FFF791FF02E010FE30F4F8D441EC15
:10337000100443EC112451EC2104A0FB01126FEA6C
:10338000820252FB100052FB12F252FB1000A0EB23
:10339000D07C53EC04245CFB13F153EC1524A1FB0B
:1033A000022001FB030053EC4424A2EB000050FB7D
:1033B0001CF24FEA111312EB017043EBE27140EA89
:1033C000515020EA915020F0070053EC7524A0FBE7
:1033D000023C53EC752400FB03CC01FB02CC53EC04
:1033E0000424ACEB824C40EA5C70A0F1010041EC9B
:1033F000400480EE200451EC7004704700B5FFF7E4
:1034000043FF02E010FE30F4F8D440EC700400EE0C
:10341000010410EE210480EE200451EC30047047CA
:1034200000B5FFF731FF02E010FE30F4F8D440ECB5
:10343000600400EE010410EE210480EE200451EC43
:103440003004704700B5FFF71FFF02E010FE30F4B4
:10345000F8D441EC800400EE010410EE010480EE8B
:10346000400410EE1304704700B5FFF70DFF02E0B3
:1034700010FE30F4F8D441EC800400EE010410EEAC
:10348000010480EE400410EE3304704700B5FFF7EE
:10349000FBFE02E010FE30F4F8D441EC100443ECE3
:1034A000112400EE010410EE3004C0F300707047E8
:1034B00000B5FFF7E9FE02E010FE30F4F8D443EC6B
:1034C000102441EC110400EE010410EE30F48CBF26
:1034D00001200020704700BF00B5FFF7D5FE02E0D5
:1034E00010FE30F4F8D443EC102441EC110400EE4B
:1034F000010410EE30F42CBF01200020704700BF03
:1035000000B5FFF7C1FE02E010FE30F4F8D441EC44
:10351000100443EC112400EE010410EE30F42CBF33
:1035200001200020704700BF00B5FFF7ADFE02E0AC
:1035300010FE30F4F8D441EC100443EC112400EEFA
:10354000010410EE30F48CBF01200020704700BF52
:1035500038B50446094805F09BF8204604F036FBD0
:103560000546064805F08CF82DB1054B2C449C42CD
:1035700001D8284638BD0348FEF70CFAB0210020D8
:1035800000000820DC88001010B50446054805F04E
:103590007FF8204604F022FBBDE81040014805F00A
:1035A0006FB800BFB0210020704700BF2DE9F04F79
:1035B00083B09946DDE90DAB0F9B884611469A070B
:1035C000074616D1DA453AD20C460D46ABEB0A0651
:1035D0000E4422464B46414620200134B847B442AF
:1035E000F7D12946BAF1000F08D1204603B0BDE853
:1035F000F08F0C46BAF1000F10D00E4655460C9BCA
:103600002E449A440191721B4B46013D41461AF8E3
:10361000010D3446B847002DF5D101990F9B9B074A
:10362000E3D5651AAB45E0D922464B4641462020FA
:103630000135B8475D4504F10104F5D3D5E70C46E3
:10364000BAF1000FD9D1D0E72DE9F04F0F9FDDF887
:10365000248017F0020F0A9C9DF82CA00E9DDDE936
:103660000C9644D1F5BBB44241D207F0010B04F1F2
:10367000FF3C4FF0300EC44404E00134A6420CF885
:1036800001EF01D9202CF8D1BBF1000F00F08880A8
:10369000A5422CD904F1FF3C4FF0300EC44404E0A5
:1036A0000134AC420CF801EF21D0202CF8D117F0F6
:1036B000100F0ED017F4806F54D1A64263D0A542EC
:1036C00061D0B9F1100F50D0B9F1020F56D0202CB3
:1036D00029D12024CDE90B57CDE90984BDE8F04F6D
:1036E000FFF764BF17F0010B34D1B442BFD317F01A
:1036F000100F1ED017F4806FE3D1002CDDD1B9F18B
:10370000100F63D0B9F1020F77D0302488F8004051
:103710000124BAF1000F11D17E0748D52B2608F8F5
:1037200004600134D6E7264601344FF0300C08F827
:1037300006C0202CCDD0BAF1000FEDD02D2608F810
:1037400004600134CDE90B57CDE90984BDE8F04FA1
:10375000FFF72CBFBAF1000F30D0B44205F1FF35AE
:1037600085D395E7B9F1100FB3D1BE063BD5202C18
:10377000AFD0582608F804600134A8E7202CA8D060
:103780002646013407E0661EB9D0B9F1100F36D0D5
:10379000B9F1020FC9D14FF0620C08F806C096E7E4
:1037A00017F0100FC5D017F4806F86D089E73E0759
:1037B00090D5202608F8046001348BE717F00C0F31
:1037C00000D0013DB442FFF452AF61E7BC0612D411
:1037D000782488F80040302488F801400224BAF1A7
:1037E000000F99D0AAE7202C3FF473AF782608F891
:1037F000046001346BE75824EBE76224E9E717F033
:10380000200FA4F1020C04D04FF0580E08F80CE081
:103810008BE74FF0780E08F80CE086E700B97047A8
:1038200001F084BB10B1D1E900311847704700BFE7
:103830002DE9F04F97B09DED207BDDE9225B074637
:10384000884651EC170B249C99460C920B46024675
:103850008DED047B0794FFF71DFE002840F0F481F6
:10386000DDE904014FF0FF326FF48013FFF724FE0F
:10387000002840F01B81DDE904014FF0FF32AC4B22
:10388000FFF756FE002840F0EE80DDE90401A4A316
:10389000D3E90023FFF74CFE002840F0D380DDE998
:1038A0000401A1A3D3E90023FFF706FE002840F09E
:1038B000C980DDE9040100220023FFF7FDFD002897
:1038C00040F0E88023460D9013F4806F08BF062572
:1038D00030212B460EAAA5F1200605E0013BB3429C
:1038E00002F8011B00F09381092BF7D81E46ED1A50
:1038F000DDE90401FFF7AAFD8E4B044603EBC60386
:1039000093ED007B8DED087BFFF77CFD02460B46B7
:10391000DDE90401FFF7EEFCDDE90823FFF7FEFC1B
:1039200002460B46CDE90A23FFF7A2FD8246FFF7C8
:103930007BFD02460B46DDE90A01FFF7DBFC024690
:103940000B46CDE90A2300227B4BFFF7F1FD00284F
:1039500000F0FE800AF1010A5046FFF765FD0246BD
:103960000B46DDE90801FFF7BBFD10B14FF0000A7F
:103970000134002E00F0FD80681E0EABDFF8CCC1D4
:1039800018440FE0ACFB0A21C90801EB8102AAEB45
:1039900042023032BAF1090F00F8012F40F21C81C7
:1039A0008A461D46202D05F1010306F1FF36E9D1B7
:1039B0002025691E0EAB6148194410E080FB0462AB
:1039C000C3EBA20303EB8302A4EB420404F1300235
:1039D00001351C4601F8012F002B00F0EB80202D53
:1039E0004FEAE473EAD1079B03F00303012B18D1DC
:1039F000BBF1000F15D00D9B002B00F00A810BF1DD
:103A0000FF3BBBF1200F0CD96B1E0EA930220B44DB
:103A100005E001355D4503F8012F80F0D180202DB0
:103A2000F7D1079B0EACCDE902B341464B46384671
:103A30000C9A01950094FFF7B9FD8246504617B0E5
:103A4000BDE8F08F079B9DED047BCDE923B3414694
:103A50004B4638460C9A8DED207B229517B0BDE879
:103A6000F04F00F045B9610723464CBF0423032300
:103A70004146219338464B46079A48BF304CCDE922
:103A800022B258BF2F4C0C9A209417B0BDE8F04FCB
:103A9000FFF78CBDDDE9042300200021FFF72AFC9D
:103AA0000123CDE904010D9323460DE723469C072E
:103AB00040F0AA80BBF1040F40F2A6800C9B1D468B
:103AC0001C1F04EB0B0A2A464B46414620200135B9
:103AD000B847AA45F7D155461B4C261F14F8010DCF
:103AE0002A464B464146B847B44205F10105F5D197
:103AF000079B0AF1040A9807A0D50C9CAAEB0403C3
:103B00009B459BD952464B46414620200AF1010A6B
:103B1000B847AAEB04035B45F4D38FE7AFF300800B
:103B20000000000065CDCD410000000065CDCDC195
:103B3000FFFFEF7FD0B000100000E03F67666666D1
:103B4000308900103889001044890010CDCCCCCCCD
:103B50000022DDE90A01634BFFF7AEFC00287FF489
:103B600008AFBAF1000F6AD10AF1010A002E7FF402
:103B700003AF2046FFF746FC02460B46DDE9040191
:103B8000FFF7B8FB02460B46CDE904230022554B54
:103B9000FFF792FC00287FF40CAFDDE9040100225E
:103BA000504BFFF7C5FC00287FF403AF013424F02D
:103BB0000104FEE6079B03F00303012B00F0828063
:103BC000202D3FF42EAF0D9B7BB32D220DEB050373
:103BD00083F83820013524E7202B3FF4E9AE0EAA04
:103BE00015441E44302204E0202B05F8012F3FF439
:103BF000DFAE9E4203F10103F6D12E220DEB060348
:103C000083F83820751CD4E6DDF830A063E7202562
:103C10006EE6079B13F00C0F50D00BF1FF3BAB454A
:103C20003FF6F2AE202D3FF4FCAE079B5A0701D5BC
:103C30002B22CBE71B077FF5F4AE2022C6E71AF054
:103C4000010F3FF496AE8FE7A60734D1BBF1030F07
:103C500031D90C9B1D46DC1E04EB0B0A2A464B4651
:103C6000414620200135B8475545F7D155461E4CF1
:103C7000E61E14F8010D2A464B464146B847A642B7
:103C800005F10105F5D1079B0AF1030A9D077FF5B0
:103C9000D5AE0C9CAAEB04039B457FF6CFAE5246F3
:103CA0004B46414620200AF1010AB847AAEB04031B
:103CB0009B45F4D8C2E6DDF830A0D7E7AB453FF628
:103CC000A3AEAEE6BBF1000F3FF47AAF0D9B002B25
:103CD0009FD00BF1FF3B5D45FFF496AE202D7FF4A6
:103CE00074AF9EE60000E03F3F8900100000000036
:103CF0002DE9F04F9FB02A9EDDE9284507469346FF
:103D00000891099322462B46204629460E96DDE966
:103D10002BA6FFF7BFFB002840F0BE8020462946B7
:103D20004FF0FF32784BFFF703FC002840F0B480DF
:103D3000204629464FF0FF326FF48013FFF7BCFB9B
:103D4000002840F0A9802046294600220023FFF7E2
:103D5000B3FB002840F0D581CDE90A45DDE90A230F
:103D60009046994606F4006216F480630F9213930E
:103D700040F0A18058EA090340F0CA80002A40F0D0
:103D8000E38106230E9316F00202109240F0D481D4
:103D90005346042B38BF04230C920422043B129296
:103DA0000F932046294600220023FFF785FB0028B9
:103DB00040F0F3819DED0A7B0F9B5A4603930E9BC7
:103DC0008DED007B029326F4006304933846099B33
:103DD0000899FFF72DFD024616F0200F099B089960
:103DE0000CBF6520452002F10108B8470C9A129BD0
:103DF00016AC5D1E82EAE273A3EBE273D10F0026DC
:103E000022469946DFF804C101E0202E10D0CE46AC
:103E1000ACFB0930C00800EB8003A9EB430330334F
:103E2000BEF1090F814606F1010602F8013BECD80C
:103E30000523002006930A2305950094099D089CFC
:103E40004246CDE90330CDE901612B462146384693
:103E5000FFF7FAFB109A8046D2B1A0EB0B06B245F1
:103E600016D90BEB06022B46214620200136B84717
:103E7000B245F6D80BF1FF335344CBF10102A3EB6B
:103E800008034244924538BF002308F101089844D2
:103E900040461FB0BDE8F08F5A463846CDE9284568
:103EA000CDE92BA60E9C099B08992A941FB0BDE86A
:103EB000F04FFFF7BDBC58EA09032BD1002A3FF4AD
:103EC00062AF00230C930E9B0C9A934200F3B981CE
:103ED0004FF000082046294600220023FFF7ECFAA5
:103EE000002840F013819DED0A7B26F4006646F41D
:103EF00080668DED287B5A463846CDE92A8A099B93
:103F000008992C96D2E700BFFFFFEF7FCDCCCCCC39
:103F100006230E93C9F30A50A0F2FF30FFF772FA9E
:103F2000C1A3D3E90023FFF7F9F9C1A3D3E9002323
:103F3000FFF7CCF9C9F31309CDE90C0149F07F5122
:103F400040460022B24B41F44011FFF7D3F9A4A33D
:103F5000D3E90023FFF7E2F902460B46DDE90C0145
:103F6000FFF7B4F9FFF772FA0C90FFF74BFA9EA334
:103F7000D3E9002380468946FFF7D0F90022A54BFC
:103F8000FFF7A4F9FFF762FA034649464046129349
:103F900097A3D3E90023FFF7C1F980461298894619
:103FA000FFF730FA94A3D3E90023FFF7B7F90246ED
:103FB0000B4640464946FFF79DF902460B468046B0
:103FC0008946FFF7ABF942464B46CDE91001404622
:103FD0004946FFF77BF90022CDE91401DDE9100124
:103FE0008D4BFFF7C1F900228C4BFFF76FF90246AA
:103FF0000B46DDE91001FFF7B7F90022884BFFF708
:1040000065F902460B46DDE91001FFF7ADF94246BE
:104010004B468046894600204FF08041FFF76AF901
:1040200002460B4640464946FFF750F902460B460A
:10403000DDE91401FFF798F900227A4BFFF746F902
:10404000129B002203F2FF3C4FEA0C53FFF766F984
:1040500080468946DDE90A0142464B46FFF72CFAC5
:1040600050B10C9B4046013B49460C9300226B4BE0
:10407000FFF77AF9804689460C9A43466332C62A8E
:1040800006F00202109249460F9A2CD8002A5ED000
:10409000042212920B433FF416AFDDE90A0158A344
:1040A000D3E90023FFF730FA48B1DDE90A0156A34E
:1040B000D3E90023FFF700FA00287FF404AF0E9B3A
:1040C000002B50D0139A002A7DD0013B0E93129BF7
:1040D0009A4505D9109B002B00F0AE800223109367
:1040E00000230F9344E022BBBAF1050F4FD906F02D
:1040F0000203002B49D105231293AAF105030F9364
:104100003AE005F100430A940B9327E626F4006693
:1041100046F4806638462C96DDE90A67344607F196
:1041200000455A46CDE92A8ACDE92845099B0899D8
:10413000BCE605221292ADE700230222CDE90F3240
:1041400004220C9312922CE64FF00508C2E6BAF155
:10415000040F1FD9109B002B78D104231293AAF1CE
:1041600004030F9304E0129B9A4531D80E9B0F93E2
:104170000C9B002B3FF415AEDDE90A0142464B468D
:10418000FFF7F2F8CDE90A010BE6022310930523AD
:104190001293F1E704231293EAE7DDE90A45A0460A
:1041A0000F9B05F1004903930E9B5A46029326F498
:1041B000006304933846CDE90089099B0899FFF70D
:1041C00037FB024608E6129B9A4544D80F92CFE788
:1041D000109B8BB30E9B0F9302231093C8E700BF75
:1041E00061436F63A787D23F71A379094F930A4058
:1041F0001655B5BBB16B0240EF39FAFE422EE63FD1
:104200002D431CEBE2361A3F0000000080842E4153
:104210000000F83F0000E03F00002C400000244078
:10422000000018400000F03FFB799F501344D33F3B
:10423000B3C8608B288AC63F129BAAEB03030F9377
:1042400096E7A3EB020808F1FF3843E60423129334
:10425000022310938CE7109B002BEDD002230F92CA
:10426000109385E72DE9F04F9BB0249C954D0A945F
:10427000954CB1F1000A18BF834625601878934C1D
:10428000914608BFA3460993002800F093824FF09F
:1042900000080AE042464B46514608F10108D8475B
:1042A000099B1878002800F0CE80099B252803F18F
:1042B00001030993EED11C460023224612F8010B9C
:1042C000A0F1200110290AD8DFE801F04009093CDB
:1042D0000909090909090938093409093000A0F157
:1042E00030010929099440F28A802A2800F0F080E0
:1042F00000252E2800F096800026A0F168011229E2
:104300002DD8DFE811F049012C0043012C003801C1
:104310002C002C002C002C002C002C002C00270042
:104320002C002C002C002C002C002700144643F0FD
:104330000103C2E7144643F00203BEE7144643F00C
:104340000403BAE7144643F01003B6E7144643F0FB
:104350000803B2E70999487843F48073013267286B
:1043600009927ED8242840F2C180A0F12502422A79
:1043700000F2BC80DFE812F05001BA00BA00BA00C7
:10438000BA00BA00BA00BA00BA00BA00BA00BA005D
:10439000BA00BA00BA00BA00BA00BA00BA00BA004D
:1043A000BA00BA00BA00BA00BA00BA00BA00BA003D
:1043B000BA00BA00BA00BA00190137011901BA00EF
:1043C000BA00BA00BA00BA00BA00BA00BA00BA001D
:1043D000BA00BA00BA00BA00BA00BA00BA00BC010A
:1043E000BA00BA00BA00BA00BA00BA00BA00BA00FD
:1043F000BA00BC015801BC0119013701190100259F
:1044000000E0013205EB850500EB45051078303DF5
:10441000A0F130010929F4D92E28099202F10102F4
:104420007FF46AAF099943F4806348781146A0F19C
:104430003006092E40F221812A2800F02F810992AE
:104440000026013259E74446C14501D809F1FF3839
:104450004B46424651460020D84720461BB0BDE897
:10446000F08FA0F16902D2B20F2A3FD8012149F2A0
:1044700041079140394040F0F3800A2A3DD0072A95
:1044800034D10A9D55F8042B002A00F0138143F023
:10449000210012AB1F460B9303E0202900F014818A
:1044A0001A4602F00F042346092C94BF30333733E9
:1044B0000F2A07F8013B01F101014FEA1213ECD872
:1044C00002E100BF65420010182F0020A93500103E
:1044D0000A99099851F8045B4078002DCDE909212B
:1044E000BCBF43F002036D42013202E742464B4635
:1044F000514608F10108D847D2E60A99002E51F832
:10450000047B18BF3246387808BF4FF0FF320028CE
:1045100000F07B83BC18A4463A4604E012F8014F31
:10452000002C00F03F819445F8D16446E41B5A0505
:1045300040F12281B44228BF344613F0020300F058
:1045400088820223CDE90A5142461D46464408E0CE
:104550004B465146D84717F8010F08F1010810B132
:1045600042464645F4D12B460B990A9D002B40F05C
:1045700041810A9194E6099948786C287FF4ECAE61
:104580000A46887843F440730332E8E6099943F415
:10459000007348780132E2E609994878682800F00B
:1045A000038143F080030132D9E6672800F0D98007
:1045B000472800F0DC80452800F0DB80CDE903537C
:1045C0000A9B0296073323F007031C464246F4E891
:1045D00002674B4651465846CDE900670A94FFF7FB
:1045E00087FB80465CE6462808BF43F02003CDE900
:1045F00003530A9B0296073323F007031C464246E7
:10460000F4E802674B4651465846CDE900670A94E4
:10461000FFF70EF9804643E642464B4651462520B9
:1046200008F10108D8473BE60A9A990702F1040409
:1046300008F1010640F1C68010784B4642465146CB
:10464000D847012D88BFA84440F2BD8132464B4671
:10465000514620200136D8474645F7D10A941FE637
:104660006F2800F0818040F24882782800F0908125
:104670000A2723F01003BC4641E0002606EB86061D
:1046800000EB4600A0F1300611F8010FA0F1300256
:10469000092AF3D90A46099101322EE6DDE90921FA
:1046A00051F8046B9078023209920A91013226EA9D
:1046B000E67622E623F0100013F4806240F0210039
:1046C0003FF4E7AE12AB0B930B9B069000930823CD
:1046D0001020059300234246CDE9023001914B465C
:1046E000514658460496FEF7AFFF0A958046D7E537
:1046F000582862D0622840F08F800227BC4613F40D
:10470000806000F0DD8023F00D0313F4007240F0B0
:1047100081810A990F1D13F4807140F037825C0685
:104720000A9A40F13B811278002A40F04E8123F032
:104730001003002800F04981114612AA0B92CDE91E
:104740000553CDE903C601910B9B4246009300231C
:104750005146029358464B46FEF776FF0A9780462D
:104760009EE543F4006329E70827BC46C7E743F406
:10477000006343F0200321E713F0020300F08E8171
:1047800002230A951E460D4642464B465146D847DF
:1047900017F8010F08F101080028F5D12946334622
:1047A0000A9DE3E6D41BC2E60A46887843F0C003BC
:1047B0000332D4E50446804646E6102743F0200342
:1047C000BC469CE7012D40F2F880464608F1FF37D1
:1047D0002F4432464B46514620200136D847BE4230
:1047E000F7D10A9B3246187851464B46D847A84421
:1047F0000A9455E54646A5427FF6BBAEA844A8EB11
:1048000004080C4632464B46514620200136D84714
:104810004645F7D12146ACE613F4806200F0BB8038
:104820004FF4806223F0110C1CF400770A9B4AD1EC
:104830001CF4807003F1040440F034811CF0400F3C
:1048400040F0A3801CF0800F00F0D381B3F900107A
:1048500081EAE177A7EBE177BFB2CB0F002900F047
:1048600056813A4612A90F46DFF8D8E30B910A9316
:104870000C9501E020280FD01546AEFB0213DB0893
:1048800003EB8301A2EB41013031092D1A4600F1FF
:10489000010007F8011BEDD80A9B0C9DCDE9055CD2
:1048A000CDE9010304960B9B424600930A2351462F
:1048B000039358464B46FEF7C7FE0A948046EFE442
:1048C00023F00C0321E7073323F0070319460846BA
:1048D0005B6850F8081BDF0F0A9051EA030062D1B1
:1048E000002A40F09F811346114612AACDE90C75AB
:1048F00000201546CDE90E68DFF848E30B9201E091
:1049000020282DD05A1842F10002AEFB027828F080
:10491000030707EB9807D21B1E469B1A61F100079D
:104920000C464FF0CC3101FB03F10EFB0711A3FB4A
:104930000E731944052307F00108A8FB03389B18E0
:104940000A2E03F130034FEA570774F1000405F80B
:10495000013B00F1010047EAC1734FEA5101CFD298
:10496000DDE90C75DDE90E680B9B424600930A23D6
:10497000CDE9055CCDE90107049603934B4651460A
:104980005846FEF761FE80468AE419780F4664E7D0
:104990001027BC46B3E623F0100C45E71C064CBFBD
:1049A00012881268C0E60A46191E01DB13469CE70E
:1049B0005242134661EB410197E71346514618787E
:1049C00042464B46D847B04648E613F0200F14BF86
:1049D0004120612012ACA6460B940A93A0F10A0470
:1049E0000C9502E0202912D02A46B2FBFCF50CFB04
:1049F0001520C3B2092803F130008ABF1B19C3B2C6
:104A0000DBB262450EF8013B01F10101EAD20A9BDB
:104A10000C9D94E60A9A073222F00702516852F878
:104A2000084B8E460A9254EA010276D123F0100315
:104A3000002872D00022114612AA0B92CDE905532C
:104A40000B9B424600930023CDE903C601910293DC
:104A500094E7A54298BF01347FF674AD4FF48063AC
:104A6000CDE90A7505EB08021F460D46141B4246A8
:104A70004B465146202008F10108D847A045F6D101
:104A80003B460A9F294638780B9D6C1C00283FF452
:104A900070AD002B3FF475AE002353E5A542DFD87F
:104AA00001346EE61968CB0F002900F0A88081EA76
:104AB000E172A2EBE17212A90846DFF888E10B91DE
:104AC0000A930C9501E0202F0FD01546AEFB021380
:104AD000DB0803EB8301A2EB41013031092D1A46BB
:104AE00007F1010700F8011BEDD80A9B0C9DCDE9E9
:104AF000055CCDE901730496D5E6692823F0100C16
:104B000040F08C8013F480623FF48EAE88E6002A79
:104B10003FF4A8AE12AA0B92C0E613F0200F14BF08
:104B200041226122002012A90A3ACDE90E68CDE99E
:104B30000C35CDF844B006468846754693460B9131
:104B4000CDF840C003E0202E17D004460D4629467C
:104B50003A460023204603F08FFDD2B2092A02F123
:104B6000300388BF02EB0B03BC42DBB275F10005DA
:104B700008F8013B06F10106E5D23146DDE90C35C6
:104B8000DDE910CBDDF83C800E9E57E70A990968F5
:104B900051B923F0100338B112A90B91CDE9055397
:104BA000CDE903C60192CFE513F0200F14BF4120D9
:104BB000612012ACA6460B940A93A0F10A040C954E
:104BC00002E0202A12D02946B1FBFCF50CFB15109F
:104BD000C3B2092803F130008ABF1B19C3B2DBB28C
:104BE00061450EF8013B02F10102EAD20A9B0C9DDD
:104BF000D4E7196881EAE177A7EBE1772DE6002A8F
:104C00003FF459AF12AA0B9271E713F480640DD0F0
:104C100013F0020412D004464646ECE50A27634628
:104C2000BC466CE512AB00200B939DE613F002032B
:104C30007FF4E0AD002D7FF413AF9AE4002D7FF4F4
:104C40000DAF96E4CDCCCCCC70B594461E4605464F
:104C50000C4684B04FF0FF32634602A90096034829
:104C6000CDE90254FFF7FEFA04B070BD25380010FC
:104C700010B5094B84B01C684CB1034600914FF04D
:104C8000FF3203A90548A047012004B010BD00F081
:104C90008FF9204604B010BD182F00201D380010D9
:104CA00000BEFDE7074A0346106838B106490344D1
:104CB0008B428CBF4FF0FF301360704703490846AA
:104CC0001160F3E7102B002000000820BC870220B1
:104CD00008B5FFF7E5FF00BF38B5064C064DFEF7F7
:104CE000B5F9AC4204D254F8043B9847AC42FAD32D
:104CF00038BD00BFF8860010008700100368084622
:104D0000114618472DE9F0411546427D0746884671
:104D1000002A46D0002D1DDD0B780A2B23D0012D53
:104D20004FF0000C18D04646012416F8012F2146FA
:104D30000A2A04F1010422D0A542F6D165450BDC14
:104D400008EB050313F8013CA3F10D03B3FA83F359
:104D50005B093B75BDE8F0813B68A5EB0C0108EBF6
:104D60000C009847ECE7037D002BD8D103680221A3
:104D70000F489847012DE3D04FF0010CD3E716F808
:104D8000013C0D2BD8D08C4508EB0C00A1EB0C019D
:104D900001DA3B689847022105483B689847A446DA
:104DA000CAE7294640463B68BDE8F041184700BFC6
:104DB00020B100100B682DE9F041802B0D4606460E
:104DC00005D05A1C2B442A601E71BDE8F0810F4BA0
:104DD0001C68A4B10E4F01F1040801E0246974B10C
:104DE0002368002BFAD03B680BB1A342F6D12046D2
:104DF00041462A68FFF786FF2469002CF0D1002382
:104E000001222B442A601E71BDE8F081FC2A00209B
:104E1000082B00202DE9F04782B00D4691461C4634
:104E20000646FDF7CDFD4FF0FF3C6FF000472E4AE0
:104E3000821841F10003944577EB03013CBF6246C1
:104E40003B462A4803F02CFC6B1C804640D00CB338
:104E5000274F284B1C68B4B1B9F1000F1CD1DFF803
:104E60009C9001E0246974B12368002BFAD0D9F832
:104E700000300BB19C42F5D120462A463146B84756
:104E80002469002CF0D1B8F1000F26D1284602B0D9
:104E9000BDE8F087184FDCE74FF00A0ADFF85C90B6
:104EA00002E02469002CEED02368002BF9D0D9F859
:104EB00000300BB1A342F4D12A4631462046B84710
:104EC000012220460DF107018DF807A0B847E8E759
:104ED000304603F041FA0546B9E7044803F0D0FB39
:104EE000284602B0BDE8F08740420F00B8210020FC
:104EF000054D0010FC2A0020FD4C0010082B00205E
:104F0000084A136823B90AE003F110021B6933B1A0
:104F10008342F9D129B9186910601961704701B14C
:104F200010607047FC2A002000F0DEBAF0B583B0B4
:104F300006468DF80700FDF743FD4FF0FF356FF093
:104F40000044174A821841F10003954274EB0301B3
:104F50003CBF23462A46134803F0A2FB124B0746E8
:104F60001C689CB1114D01E024697CB12368002BC1
:104F7000FAD02B680BB19C42F6D1204601220DF1EC
:104F80000701FFF7BFFE2469002CEFD117B93046A7
:104F900003B0F0BD034803F073FB304603B0F0BD2F
:104FA00040420F00B8210020FC2A0020082B0020DE
:104FB00038B5044603F0D0F9012305461A462046C9
:104FC0002946FFF727FF084B1C682CB163682BB1FB
:104FD00098472469002CF9D1284638BD2469002C53
:104FE000F4D1284638BD00BFFC2A00202DE9F0414D
:104FF000A2B004460D46FDF7E3FC4FF0FF376FF01B
:105000000046264ADFF8A480821841F10003974247
:1050100076EB03013CBF3A463346214803F040FBA0
:1050200000272B462246064601A91E480197FFF796
:105030000BFE019B0546D8F80040C3B1002C2BD0D5
:10504000194F01E0246974B12368002BFAD03B6842
:105050000BB1A342F6D12046019A02A9FFF752FEF6
:105060002469002CF0D10023D8F8004001932CB122
:10507000636843B198472469002CF9D12EB92846BA
:1050800022B0BDE8F0812469F1E7054803F0F8FAA1
:10509000284622B0BDE8F0810194EFE740420F00BE
:1050A000B8210020B54D0010082B0020FC2A00205C
:1050B0000FB400B583B004A951F8040B0191FFF7B8
:1050C00095FF03B05DF804EB04B07047704700BF74
:1050D0000022014B1A707047B38702204B79FF2BD7
:1050E0000BD1887948B9CB79012B07D1082A05D98A
:1050F000034B8A7809201A7070470020704700BF60
:10510000B387022001207047012901D00120704798
:1051100008B5104B91881B78994201D0002008BD3A
:105120005378012B08D0022BF8D1002164220846C5
:10513000FDF7C8FE012008BD5188CB0548BF480ACD
:10514000C1F3402258BF4FF0FF3001F07F01FDF75F
:1051500037FF00BFB387022000487047ECB1001052
:10516000012907D15378012B02D19388072B03D053
:1051700000207047012070471146A623014A01F024
:1051800039BA00BF44B100100346012201481A7029
:10519000704700BF24B1001008B50B68B3F5966FD7
:1051A00000D008BD00224FF0FF301146FDF708FF88
:1051B000024A034B10601960704700BF982A002014
:1051C0009C2A0020184B70B51A68002A28D0EFF3EB
:1051D000108172B6D2E8CF4F0120002CFAD1C2E87C
:1051E000440F002CF6D1BFF35F8F00220F4C1868DC
:1051F00059602270C0E88F2F81F3108800240025A9
:105200000B4E3078FCF7CCFC20B90024002520465A
:10521000294670BD3078FCF7D3FC2046294670BD86
:105220004FF47A740025EBE7402F0020B587022069
:10523000B4870220014B1878FCF7C2BCB487022067
:1052400038B5044600200D4601F004FBA8B3002049
:1052500001F016FB88B3FDF7B3FB4FF0FF3E6FF094
:10526000004C174A821841F1000396457CEB03017C
:105270003CBF72466346134803F012FAE8B10020BF
:1052800001F0E8FA58B900214FF0FF3000F00AFDB4
:105290006FF002040B4803F0F3F9204638BD0020FC
:1052A00001F0EEFA0028EED021462A46002001F057
:1052B000F1FA04460028EDD1EAE76FF00204ECE7CA
:1052C00040420F007C2F002008B5FDF779FB4FF01E
:1052D000FF3E6FF0004C0F4A821841F100039645E3
:1052E0007CEB03013CBF724663460B4803F0D8F9E0
:1052F00070B14FF0FF30002100F0D4FC002001F02D
:1053000011FB0028F5D1BDE80840034803F0B8B907
:1053100008BD00BF40420F007C2F00202DE9F8435C
:1053200080460F46FDF74CFB4FF0FF356FF0004411
:10533000334A821841F10003954274EB03013CBFEC
:105340002A4623462F4803F0ABF908B9BDE8F88395
:10535000002001F07FFA002847D0002F40DD002513
:10536000DFF8A890284E13E02246002001F020FB31
:10537000002104464FF0FF3000F094FC002001F0C3
:10538000D1FAFDF71DFBC9E900012544AF4227DD35
:10539000002001F02DFB7C1B8442A8BF044608EBD3
:1053A0000501002CE0D121464FF0FF3000F07AFCDF
:1053B000204601F0B7FA204601F04CFA80B12046B1
:1053C00001F016FB0028E1D1FDF7FAFAD9F8003018
:1053D000D9F804209B1942F1000283428A41D5D2B8
:1053E0000848BDE8F84303F04BB900200021074B03
:1053F000C3E90001BDE8F843024803F041B900BF2A
:1054000040420F007C2F002020A1070040230020F5
:1054100030B5002185B02E4803F04AF9F0B92D4B84
:105420001A68CAB1EFF3108172B6D2E8CF5F0124D7
:10543000002DFAD1C2E8454F002DF6D1BFF35F8FA2
:10544000254C1D6822785960D3B201222270C5E82C
:105450008F0F81F31088CBB105B030BD00214FF024
:10546000FF3000F01FFC002001F00AFA0446184843
:1054700003F006F9002CEFD0184B1B68002BEBD083
:10548000174A106805B0BDE830401847FCF7B0FF78
:105490000446FDF795FA4FF0FF3C6FF0004510F51C
:1054A0007A7241F10003944575EB030138BF2B4636
:1054B0004FF000014FF0010520460A4C38BF62460C
:1054C000CDE901150094FCF797FF05B030BD00BF92
:1054D0007C2F0020402F0020B5870220982A002032
:1054E0009C2A0020C55100104FF0504330B585B0C4
:1054F0001C68FCF77DFFFDF791F8A04202D0002068
:1055000005B030BD00212A4B08461B7801F038FD5C
:1055100028480368002B47D00120FCF7EFFC034626
:10552000254C2649C0B22370FCF766FB2078012188
:10553000FCF720FB0E20FCF74FFB40BB204B012566
:10554000C3E90000FCF754FF0446FDF739FA4FF0B9
:10555000FF3E6FF0004C10F57A7241F10003964562
:105560007CEB03014FF000012046164C3CBF724615
:105570006346CDE901150094FCF73EFF0028BEDB31
:1055800001211148FFF7BCFC012005B030BD01200E
:10559000FCF7ACFA01460A48FCF70CFD00220E208D
:1055A0000A49FCF759FBEBE7FCF7E8FCB4E700BF5E
:1055B00004B300107C2F0020B48702201154001087
:1055C000402F0020C55100101C1C00203552001037
:1055D0000048704788B200100048704734B200108D
:1055E00038B5184B04461A780AB344B940F2094258
:1055F0004FF44173144D6A8013482B8038BD052C3D
:105600001DD8124B104D53F82410284600230139A1
:1056100003E0132B20F8022F0ED011F8012F0133D5
:10562000DBB2002AF5D15B0043F44073E4E71121BB
:10563000184600F025F8D8E74FF44A73DCE700205D
:1056400038BD00BF882F0020D42A00201CB20010D3
:1056500000B545F247308BB0FDF7A6FC01220346AA
:10566000092101A89847DDE90332044912BA1BBA9F
:10567000C1E900230BB05DF804FB00BF682F0020D8
:10568000012901F1FF3300F0B3805D490A784FEA48
:10569000121C9F2A8CBF0CF1370C0CF1300C012B23
:1056A00080F800C000F0A78002F00F02092A8CBF2A
:1056B00037323032022B427000F09D804A784FEA38
:1056C000121C9F2A8CBF0CF1370C0CF1300C032BF1
:1056D00080F802C000F08F8002F00F02092A8CBF10
:1056E00037323032042BC27000F085808A784FEA5E
:1056F000121C9F2A8CBF0CF1370C0CF1300C052BBF
:1057000080F804C077D002F00F02092A8CBF37322C
:105710003032062B42716ED0CA784FEA121C9F2A93
:105720008CBF0CF1370C0CF1300C072B80F806C045
:1057300061D002F00F02092A8CBF37323032082BB9
:10574000C27158D00A794FEA121C9F2A8CBF0CF103
:10575000370C0CF1300C092B80F808C04BD002F04C
:105760000F02092A8CBF373230320A2B427242D0E4
:105770004A794FEA121C9F2A8CBF0CF1370C0CF1AE
:10578000300C0B2B80F80AC035D002F00F02092A2A
:105790008CBF373230320C2BC2722CD08A794FEA50
:1057A000121C9F2A8CBF0CF1370C0CF1300C0D2B06
:1057B00080F80CC01FD002F00F02092A8CBF3732CC
:1057C00030320E2B427316D0CA7911099F2A8CBF32
:1057D000373130310F2B81730DD002F00F02092ABF
:1057E00094BF30323732102BC27318BF103002D042
:1057F000002303707047184400230370704700BFF4
:10580000682F002070B500F02DF90C234026194CAC
:10581000FF22A3670E201849FCF71EFA324600212A
:10582000164802F0ABFC0125002380211348144ADE
:10583000418445700683068782604360136042F8A6
:10584000043C80F8213080F83B3043620D4B4FF030
:105850000056C360C362803B836202F015FF4FF4C1
:1058600080320949094B25642846E664C4F8901043
:10587000DA6470BD000011508D0D0020182B00203F
:10588000840010500001105010D001000020115071
:1058900001210E20FCF76EB900220248114600F0EB
:1058A00001B900BF382B0020044B197021B14FF40F
:1058B0000032034BC3F89020704700BFAF8702202F
:1058C000002011500B785B0602D14B78052B00D0DD
:1058D00070474B88014ADBB21360704700001150DB
:1058E000CB782DE9F04103F0030EBEF1010FC3F3B5
:1058F00001005BD0002791F802C0344C0CF07F020D
:105900005600898806EBDC1304EB43134FEADC15E1
:10591000D876C1F30A0185F0010083F802C019832B
:105920005870DF70D3008DBB2948043304EB821C10
:1059300003EB0008CCF808801F5082B3254BD2003F
:105940001344CCF80430244B3F311A6821F03F0156
:10595000BEF1020F08BF4900114419601F4B7719AF
:1059600004EB47179942FA602BD82E4404EB4613F8
:10597000D97E82F0A04282F480125B6842EA8162A2
:1059800042F000421A600120BDE8F081104804EBAB
:10599000821C0344CCF8283040F832704AB9002207
:1059A0000F4904EB4513D9605A60ECE70020BDE8CD
:1059B000F081D20002F1A04202F58012CCF824203E
:1059C000C1E7FDF73DFBFA68CFE700BF182B0020C9
:1059D0008000105004001050242F0020FF0F1050A2
:1059E0000001105002F050BE8C4608B51146074821
:1059F0001A460CF07F034FEADC1C0CEB430C00EB67
:105A00004C1000F04FF8012008BD00BF182B0020FB
:105A100011F07F0205D100290CBF02200120064BA6
:105A20009866C909054B01EB420003EB40104FF4A7
:105A30000062002102F030BE00201150182B00201F
:105A400011F07F0300D17047002205485B0003EB93
:105A5000D11300EB43106FF40061C27002F01CBE62
:105A6000182B00204FF0805209480A4908B50A4B0C
:105A700002600A609968C94311F08051FAD14FF46D
:105A80008052064802F07AFB0922054B5A6708BD8E
:105A90000020024000300240000002400000105090
:105AA0000000115000234FF0010C10B580F81AC00F
:105AB0008282C3820161044602F0F6FD20B14FF4F8
:105AC0000032074BC3F89020204602F0C5FD10B10C
:105AD0000123237710BD2046BDE8104002F0C8BD69
