:020000041000EA
:10000000002008205D0100101B0100101D010010E0
:100010001101001011010010110100101101001058
:100020001901001019010010190100101F01001022
:10003000110100101901001021010010230100100E
:100040001101001011010010110100101101001028
:100050001101001011010010110100101101001018
:100060001101001011010010110100101101001008
:1000700011010010110100101101001011010010F8
:1000800011010010110100101101001011010010E8
:1000900011010010110100101101001011010010D8
:1000A00011010010110100101101001011010010C8
:1000B00011010010110100101101001011010010B8
:1000C00011010010110100101101001011010010A8
:1000D0001101001011010010110100101101001098
:1000E0001101001011010010110100101101001088
:1000F0001101001011010010110100101101001078
:100100001101001011010010110100101101001067
:10011000EFF30580103800BE00BE00BE00BE00BE7A
:1001200000BE00BEF2EB8871BCC40010E0C4001039
:10013000A001001090A31AE7D3DEFFFF42012110B7
:10014000FF01000060E80000793512AB4FF00000BD
:100150001E49086006C881F3088810474FF05040D8
:10016000006810B14FF00000F2E70DA40ECC00299A
:1001700002D000F012F8F9E71549164A002000E015
:1001800001C19142FCD11449884714498847144958
:10019000884700BEFDE701C901C29A42FBD3704700
:1001A000E0C4001010010020C825002098E90010CC
:1001B000000008200000082098E900100010082026
:1001C00000100820000000007047000008ED00E06B
:1001D000C8250020D88C0220655E0010890300101D
:1001E0005D5E0010F8B500BF064B0749C91A8910BB
:1001F00048BF0131491003D0044B0BB101481847E7
:10020000704700BFC8250020C8250020000000005E
:1002100008B5054B1BB105490548AFF30080BDE8A3
:100220000840FFF7E1BF00BF0000000030340020AD
:100230009098001008B5034D034C2968206809F018
:10024000DBFAFAE79C2F0020841F002010B5084C31
:100250002068012806D0002000F024FE01230120A0
:10026000236010BD00F01EFE00230120236010BD9E
:10027000781F0020002110B5264C084623681B6912
:100280009847236800210420DB68984723682248A8
:10029000DB6A9847236800210620DB6898472368BB
:1002A0001E48DB6A9847236803200021DB689847D3
:1002B0001B4B1A782368012A94BF1A481A48DB6A34
:1002C0009847236800210220DB68984703234FF4F6
:1002D00020723021002001F0F1F903234FF4207245
:1002E0003121002001F0EAF903234FF4207232217A
:1002F000002001F0E3F90323332100204FF42072A2
:1003000001F0DCF923680421BDE8104000201B69DE
:10031000184700BFA434002090980010BC9800102B
:10032000D78C0220D49800101499001000B510202A
:1003300085B003F051FE0A2003F01EFA0E4803AB0D
:1003400002AA01A903F034FD18B90B490B4802F0C9
:10035000CBFBDDE90212019803F068FC012108489B
:1003600005F06CFF052003F05BFC0146054805B075
:100370005DF804EB05F062BFE09304008C99001077
:10038000589900107499001000B585B005F092FEE0
:10039000FFF7CCFF00F094F8022001F0A1F8022250
:1003A000174B184C184D1A702060FFF763FF284652
:1003B00003F04AFB23689B689847044603F0C4F89F
:1003C00000214FF47A72114BCDE90115009323B24D
:1003D00083FB022303F0A8FA0D4808F099FC0121E1
:1003E0000C4A0D4B10681B6808305A6881400A425D
:1003F00004D153F820205A680A42FAD0FEE700BF21
:10040000D78C0220A4340020502700204D02001079
:10041000350200109C2F0020841F0020244870B457
:100420000468A10101F1A0431A69520117D44FF4E5
:10043000113C204B204803F5A05200EA44309D07B0
:1004400012D012F8011BBCF1010C03F8011BF6D10C
:100450004FF4A05270BC0021184808F055BF1A692B
:100460005601FCD40468E2E75FEA9C060CF0030541
:1004700011D040F4FC00A10101F1A04140F059006D
:100480000A604B608E60C86008694001FCD42CF0A3
:10049000030C63446244002DDAD01178012D1970E9
:1004A000D6D05178022D59701CBF92789A70CFE740
:1004B00028340020B4340020FDFF7FFCB4780220F3
:1004C000F0B5474989B0474808F062FA0024464B26
:1004D0000646214643481C6008F036FA4FF4803047
:1004E0004FF4F8314FF440234FF4000E6D46CDE940
:1004F0000001039402930DF1100C06F11703F701AC
:1005000047EA03379DE80F008CE80F0005979CE849
:100510000F008DE80F00CDF80CE0204607210134D4
:1005200002F0B0FA0E2CF8D1039B072123F0E05320
:1005300023F4787343F0806343F4E073204603931D
:100540000F2702F09FFA4FF0000343EC447015248C
:1005500043EC444000223846012102F0B1FA002267
:100560002046012102F0ACFA3846072102F08AFA4F
:100570002046072102F086FADDE901746FF31D447D
:1005800027F0F85744F0847444F480344FF48042E8
:100590000021164B134847F070670294019708F04A
:1005A0008BFA104C616811F48031FBD144F2FF0CDE
:1005B000324648F2A0074AF247062B464FF48035F0
:1005C000C4F810C00748C4F8D870C4F8D8600095C3
:1005D00008F0EEFA236843F00103236009B0F0BD90
:1005E0003C9C0010000030509C2F0020FFFF20009A
:1005F0002DE9F8430124DFF89890DFF89880214E28
:10060000D9F80030D8F800101F48326804FA01F118
:1006100004FA03F3056804FA02F21C4F0B43134378
:1006200025EA03033D46036008F02CFA38464FF0F4
:100630000041D9F80020DFF860C0131D04FA03F36D
:10064000CCF8003002EB4202D8F80030D200174458
:100650001A1D04FA02F2CCF8002003EB43033268BF
:10066000DB001D4402EB4203DB00043218449440DB
:10067000CCF8004039603960296029600160016070
:10068000BDE8F8837C1F002000002050D0102050CF
:100690001C300020801F002000202050000000009F
:1006A0002DE9F04F2DED028B14468FB0029004918E
:1006B000FFF79EFF052C00F23381DFE814F00600FF
:1006C00006005D015D0106005D019D499D4808F041
:1006D0005FF99D4981469B4808F05AF99B4980463D
:1006E000984808F055F99FED928B994BDFF878A266
:1006F00019680746DFF874B2924808F025F9914866
:10070000DAF8001008F020F98E48DBF8001008F045
:100710001BF94FF4402200218DED068B09F10606EE
:1007200009F10103360346EAC316894BCDE90821D6
:10073000186806AC0AAD4FF4A80C039094E80F00BB
:1007400085E80F000B96012695E80F00DFF820E200
:1007500084E80F0006211020CDF824E0CDF818C061
:1007600002F090F93346102203990096754808F07C
:10077000D9F923464A460399724808F019FA4FF40A
:1007800040334FF440220A9308F10D030C921B03EF
:1007900008EB060243EAC21323F0C04343F0804350
:1007A000DAF800900B936B4B062111200D9302F0A9
:1007B00069F93346112249460096624808F0B2F9B9
:1007C00042462B4649465F4808F0F2F94FF4402272
:1007D00000218DED068B4FF4102E9FED577BCDE958
:1007E000082107F1080CBB1C4FEA0C3C4CEAC31C67
:1007F00094E80F0085E80F00CDF82CC095E80F00B5
:1008000084E80F00062112208DED087BCDF818E05A
:10081000DBF8008002F036F90621132002F032F9ED
:100820000621142002F02EF90323122241460096DD
:10083000444808F077F9234641463A46414808F0D3
:10084000B7F9434B3F4C196801F110039E406368B0
:100850003342FCD140F247150122DAF800000B1DAB
:1008600044F8235000F11003364D9A406B68134250
:10087000FCD140F2DF160122DBF80040031D45F8F1
:100880002360DFF8C08004F110039A40D8F80430E8
:100890001342FBD101259F23029E05FA00F0D6F8F2
:1008A00000C0261D48F8263005FA01F3034305FA77
:1008B00004F10B43190201F47061DFF8B8E003F0B2
:1008C0000F030B43244A254FCEF800302846C7F8C3
:1008D00000C0176808F0C0F94FF0A041204B8540D8
:1008E000820118600A44C1F86454D3685B01FCD4E7
:1008F000C1F80C54A021029B07EB8606136007F198
:100900002F4303F560031B0D04EBC304154B566026
:1009100003EA403343EA444343F011039160136117
:100920000FB0BDEC028BBDE8F08F00BFAFF30080CD
:100930000000010000F0010000000C405202300CE9
:100940000C9D001000002050E89C0010CC9C001072
:100950001C30002020460044881F0020B0340020B6
:1009600078340020FDFF01FC801F00207C1F002048
:100970000002000400202050B149B24808F008F8F5
:10098000B1498046AF4808F003F8B0490746AD4882
:1009900007F0FEFF03469FEDA68BAD4ADFF8D0A21D
:1009A0001168A848DFF8CCB2039307F0CDFFA54843
:1009B000DAF8001007F0C8FFA248DBF8001007F0D3
:1009C000C3FF4FF4402900218DED068BA04ACDE9ED
:1009D000089108F10606106808F10103360306AC19
:1009E0000AAD46EAC316059094E80F0085E80F00AB
:1009F0000B96012695E80F00DFF87CE2DFF87CC259
:100A000084E80F0006211020CDF824E0CDF818C0AE
:100A100002F038F83346102205990096894808F00C
:100A200081F8234642460599864808F0C1F84FF4FC
:100A300080330A9307F10D03BA191B0343EAC2136B
:100A400023F0C04343F08043DAF800800B93814BDE
:100A500006211120CDF830900D9302F013F83346A3
:100A6000414611220096774808F05CF83A46414624
:100A70002B46744808F09CF800218DED068B4FF44E
:100A8000003E039BCDE908910FF2AC19D9E900892A
:100A900003F1080C4FEA0C3C02334CEAC31C94E807
:100AA0000F0085E80F00CDF82CC095E80F0084E812
:100AB0000F0006211220CDF818E0DBF80070CDE918
:100AC000088901F0DFFF0621132001F0DBFF06217A
:100AD000142001F0D7FF032312223946009659480B
:100AE00008F020F82346039A3946564808F060F883
:100AF000574A544C126802F110039E406368334217
:100B0000FCD140F247150121DAF80000131D44F82A
:100B1000235000F110034B4C994063680B42FCD109
:100B200040F2DF160121DBF80050031D44F823607A
:100B3000444F05F1100399407B680B42FCD101231F
:100B400040F23F1E4FF0A04103FA00F003FA02F218
:100B500005F1040C024303FA05F52A43100200F4E0
:100B600070603D4E3D4C02F00F02024347F82CE00E
:100B70003260226803FA02F0394B92011D680A4480
:100B8000C1F86404D3685E01FCD4C1F80C040120F0
:100B90004FF0A046334F3B689A0198403244C1F869
:100BA0006404D3685B01FCD4C6F80C04012008F08F
:100BB00053F82060012008F04FF80121D4F800C05C
:100BC000DBF80040284A04F1040E05EB8E04029D78
:100BD000386002EA4C322F684FEA8C1505F1A045C7
:100BE00042EA4032214B2F6042F480226C60049C28
:100BF00003EA403342F01102AC6043EA4C332A610D
:100C00008001029A00F1A04043F4FC03026043F02B
:100C1000090301FA0CF2456081600361C6F85024B3
:100C20000FB0BDEC028BBDE8F08F00BFAFF30080CA
:100C30000000010000F0010000000C405202300CE6
:100C4000B49C001000002050909C0010749C001078
:100C50001C30002020460044002020507834002022
:100C6000881F00207C340020FD1F00FCFD1F7EFC3F
:100C7000801F00207C1F00200002000400CD170010
:100C8000054B1B685B6D5A68197C13885B1A1BB295
:100C900023EAE37313807047A8340020054B1B68D8
:100CA0005B6D5A68597C53885B1A1BB223EAE37365
:100CB00053807047A83400200B4B1B68596D4A685D
:100CC0000B7C108803441BB24F2B01DC1380704750
:100CD00000201080B2F802C04B7C63441BB21E2B74
:100CE000D4BF538050807047A8340020064B1B6847
:100CF0005B6D5A685B7C51880B441BB21F2BA8BFED
:100D000000235380704700BFA8340020024B1B68AB
:100D10005B6D9862704700BFA8340020002110B5B9
:100D2000064C084623685A6D1B6952681171984732
:100D3000012223685B6D5B681A7110BDA834002026
:100D40000A4B1B685B6D187205280AD8DFE800F0B3
:100D5000060603030603064A1A607047054A1A602E
:100D60007047022202491A7219607047A8340020A5
:100D70008002E0014001F0000F4B1B685B6DB3F88F
:100D800000C0844517D900B5B3F802E08E4510D9EC
:100D90001A7C12FB00F258685B7C92B213FB01F3E1
:100DA0009BB2944598BF00229E4598BF00230280C5
:100DB00043805DF804FB7047A8340020024B1B6899
:100DC0005B6D987C704700BFA8340020024B1B6805
:100DD0005B6D5B68D8807047A8340020024B1B68AD
:100DE0005B6D5B68D8887047A8340020024B1B6895
:100DF0005B6D5B6818717047A8340020024B1B685C
:100E00005B6D5B6858717047A8340020024B1B680B
:100E10005B6D187659767047A8340020024B1B682A
:100E20005B6D187E704700BFA8340020064B10B5DC
:100E30001B6800215C6DE269A06A08F065FA002277
:100E400063681A6010BD00BFA8340020014B186809
:100E5000704700BFA8340020114B30B51B685C6D93
:100E600040EA0103B4F802E0DB0F8E45D8BF43F03F
:100E70000103B4F800C06BB984450BDD01FB0C0025
:100E8000A56A4110C0076B5C05D5208C034043EA7E
:100E900002126A5430BD608C03401A436A5430BD5C
:100EA000A83400207A4B2DE9F04F1B6885B0D3F8A9
:100EB0005490D9F8043099F818701D7999F8196090
:100EC000B3F90040B3F902A0002D75D05D79002D73
:100ED0003AD08046002800F0A5801D7A51461023A4
:100EE00008222046009601F095FC99F8113015FB78
:100EF00003F133B30022674BCDF808901944CDF8C5
:100F00000CA091468A4607344FF0070B039B1AF852
:100F1000018F03EB09052DB248FA0BF3DB07A4EBB5
:100F20000B004CBF3A463246294600B2FFF794FF09
:100F3000BBF1010BF0D2029B09F101095B7C9945E1
:100F4000E2DB05B0BDE8F08F93F80880514610232E
:100F500008222046009601F05DFC99F8113018FB3C
:100F600003F1002BEDD04B4BCDF808901944CDF890
:100F70000CA0A9468A4607344FF0070B039B1AF8CA
:100F8000018F03EB09052DB248FA0BF3DA07A4EB46
:100F90000B004CBF3A463246294600B2FFF75CFFD1
:100FA000BBF1010BF0D2029B09F101095B7C994571
:100FB000E2DB05B0BDE8F08F102351460822204641
:100FC000009601F027FC99F811305901002BB8D098
:100FD000314BCDF808901944CDF80CA02A4689462B
:100FE000AA4607344FF0070B039B19F8018B0AEB55
:100FF00003052DB248FA0BF3DB07A4EB0B004CBF43
:101000003A463246294600B2FFF726FFBBF1010BF4
:10101000F0D2029B0AF1010A5B7C9A45E2DB05B043
:10102000BDE8F08F1023514608222046009601F0BB
:10103000F1FB99F811305901002B82D0164BCDF8F5
:1010400008901944CDF80CA04246C1468A460734A0
:101050004FF0070B039B1AF8018B09EB03052DB228
:1010600048FA0BF3D907A4EB0B004CBF3A463246C3
:10107000294600B2FFF7F0FEBBF1010BF0D2029B54
:1010800009F101095B7C9945E2DB05B0BDE8F08F11
:10109000A834002007060020080600202DE9F04FA4
:1010A000AC4D89B02B685C6DA0F10803052B3CD8D2
:1010B000DFE803F01BB3123B3B036368002201200F
:1010C0001A80FFF7EFFE62686388B2F902709F42F0
:1010D0001FDA09B0BDE8F08F0020FFF7E3FE636878
:1010E000627C59880A445A80E8E70020FFF7DAFE5C
:1010F0006268217C138801205B1A1BB223EAE37328
:101100001380FFF7CFFE62686388B2F902709F42D6
:10111000DFDBFFF783F9002263681A80617C5A885D
:10112000521A5A8009B0BDE8F08F237E626804939A
:10113000A37C0646022B94F819B0B2F90090B2F9DC
:10114000027078D01023484608223946CDF800B006
:1011500001F060FB637C16FB03F0002B00F0D780EE
:101160001FFA89F319464FF000097B4AD5F8008031
:1011700010444FEA0B120592049ABDB21201CDE958
:1011800006240A46072610F801AF0FFA85FECDF8AF
:101190000C9017E083B909FB0E49BC6A4FEA690C51
:1011A00019F0010F14F80C3000F0C6803F8C1F407E
:1011B000069B1F4304F80C70013E0132731C92B26F
:1011C00000F09980D8F8547045EA02047B88B7F89B
:1011D00000909E45B4BF002301234AFA06FC43EA6F
:1011E000D43314B2A145D8BF43F001031CF0010F62
:1011F000D0D1002BE0D109FB0E44D7F828904FEA5C
:10120000640CE40719F80C3040F19D803C8C1C40C4
:10121000059B1C4309F80C40CEE7616894F8240054
:10122000B1F90020238802449342B1F90270638827
:10123000C8BF0A804BE72088638848456EDD9F421F
:101240006CDA19F10B0F69DB17F10F0FC0F2888010
:1012500000230093102339461A46484601F0DAFA73
:10126000049B1FFA89F55B4506EB86063B4BBAB239
:101270007DD033441F4605F10A0102F110090394A1
:10128000049C89B21FFA89F917F8018B0FFA85FAC5
:10129000CDE90427069516465D460F469346022380
:1012A00018F0010F31B206F1020614BF0094009548
:1012B00050461A46B6B201F0ADFA4E454FEA58080C
:1012C000EDD139465A46AB46069D049B0235ADB278
:1012D0008D42059FD8D11F465E46039C2DB2022346
:1012E00039B2023728461A460096BFB201F092FA88
:1012F0004F45F4D10BE0079BDDF80C905B7C09F1C6
:10130000010901359945ADB2FFF63BAF079C626814
:101310002088B2F90090B2F902706388217C4944B8
:1013200009B281421180FFF6D2AE0020617C1080AC
:1013300039440FB25780CAE67F8C3B40049F3B4341
:1013400004F80C3038E77C8C23404BEA030309F89F
:101350000C3031E7A834002007060020389D00102B
:10136000217C494409B288421180DEDDB1E6039454
:10137000144605F10A0702F1100906EB030BBFB290
:101380001FFA89F926460FFA85FA5446B2461BF829
:10139000018B18F0010F07D00223049A2046009217
:1013A00031B21A4601F036FA0236B6B24E454FEA6D
:1013B0005808EED10235ADB2AF425446E2D1039C9B
:1013C000A5E700BF30B5044600780D4685B028B1CA
:1013D000FFF764FE14F8010F0028F9D100240D4B2B
:1013E000C5F3031205F00F05985C5B5D8DF80400F2
:1013F0008DF805308DF806408DF80C4040B1013471
:10140000E4B2FFF74BFE0DEB040318790028F6D188
:1014100005B030BD249D001070B50446094D002074
:101420002B689B699847207828B1FFF737FE14F89E
:10143000010F0028F9D12B680120BDE870409B699D
:10144000184700BFA834002030B5044600780D4688
:1014500085B028B1FFF722FE14F8010F0028F9D15A
:1014600000241D4BC5F3031205F00F05985C5B5D6E
:101470008DF804008DF805308DF806408DF80C408D
:1014800040B10134E4B2FFF709FE0DEB0403187913
:101490000028F6D10025114B00201B685C6DFFF77A
:1014A00001FD6368627C59881D800A445A800120CE
:1014B000FFF7F8FC62686388B2F902209A4201DA09
:1014C00005B030BDFEF7AAFF63681D80617C5A88B5
:1014D000521A5A8005B030BD249D0010A834002057
:1014E0002DE9F84F0646582003F0DEF805463F4F39
:1014F0002C203D6003F0D8F80446002D6DD0002864
:101500006BD0012007F0A8FB0246394B0C201A6073
:1015100001F0ACFA0346374DDFF8188132464FF43C
:1015200016312846C8F80030FFF7BAF83B68DFF8F4
:1015300008B15C6501F05CFA0722D5F800C04FF4F1
:1015400016310425D8F8003022831A686060E26002
:1015500030469E88DFF8E4A026829B796261A374FE
:10156000254BC4F828C0C4E9071384F82450FFF7BA
:10157000E7FB3B682149224A2248C3E90912224A73
:10158000224958611A622248224A9863C3E90C1220
:101590002148224ADFF8A8E0C3E91102DFF8A4C01D
:1015A0001F49204ADFF8A090DFF8A0801E4E1F4D93
:1015B0001F4CC3E90098C3E90665C3E91312C3F8D9
:1015C0002CB0C3F80CA0C3F810E0C3F83CC09C607A
:1015D00000F03EF83868BDE8F88F284603F080F840
:1015E000204603F07DF80020F5E700BFA834002076
:1015F000283400208C1F00200F00F0001D0D00106B
:10160000410D0010CD0D00100D0D001049140010FB
:101610009D100010C5130010ED0C0010B90C001047
:101620009D0C0010810C0010ED0D0010FD0D001040
:10163000DD0D001014300020191400100D0E0010E4
:10164000790D00102D0E00101D0E0010BD0D0010A4
:1016500070B5C0B0FFF7FAFB6C460D4B0D4DC66A76
:1016600018600FCD0FC495E8030044F8040B2170F7
:101670006846B04714242046052201340A21FFF7AA
:10168000EBFBA3B2292B24B2F5D140B070BD00BF53
:10169000AC340020C0990010F8B55518A9420BDAF7
:1016A0000C4607461E46214601343246384624B2CF
:1016B000FFF7D2FBAC42F6DBF8BD00BF2DE9F041ED
:1016C000214C2468D4F85480B8F800C0844519DD52
:1016D0001F46B8F802300E468B4213DD83189C4536
:1016E000B8BFACEB000C1446B8BF0CF1FF34C20716
:1016F000054620D4E30715D46210002A02DDB6F5B2
:10170000F07F01DBBDE8F081D8F8280006EB860603
:101710006D1005EB861547EA07112844BDE8F04136
:1017200007F0F2BD281901383A4600B231B2FFF78E
:1017300093FB013CE0E73A4609B200B2FFF78CFBAD
:101740000135013CD6E700BFAC3400202DE9F84F4D
:10175000A3EB010A06468346101A0C461F468C4628
:101760008AEAEA7380EAE071A3EBEA73A1EBE07125
:101770008B429DF8289033DCB24271DAA6EB020A64
:10178000A4EB0708CAF3C035B8F1000F05FA8AF5D3
:10179000B8BFC8F10008A7421FFA8AFA4FEA6505E8
:1017A00070DA304614463E464FF0010B07468B4236
:1017B0001FFA88F83FDD21464A463046FFF74CFBCA
:1017C000A5EB08031DB20134002D24B29BB203DA4D
:1017D0005E44534436B21DB2BC42ECDDBDE8F88F26
:1017E000A74217DAA4EB070AA6EB0208CAF3C03532
:1017F000B8F1000F05FA8AF5B8BFC8F10008B24287
:101800001FFA8AFA4FEA650549DA964626463A46AD
:101810007746C6E7CAF3C03505FA8AF5B24288466C
:101820001FFA8AFA4FEA65053FDC8B424FF6FF7BD1
:101830001FFA88F8BFDC20464A463146FFF70CFB0A
:10184000A5EB08031DB20134002D24B29BB203DACC
:101850005E44534436B21DB2BC42ECDDBDE8F88FA5
:10186000C0F3C035A74205FA80F5344617466646F0
:101870001FFA80FA4FEA65050DDC4FF6FF7B1FFA71
:1018800083F8D8E73E4614465F464FF6FF7BA742F3
:101890008DDABDE8F88F98464FF0010BF7E73C462C
:1018A000164667464FF6FF7B81E74FF0010B7EE758
:1018B0002DE9F04F1F4682460E46904694B21FFA1D
:1018C00081FBC4EBC43385B05B0004EB0B011BB29E
:1018D000029209B23A460393FFF7BEFAABEB04015A
:1018E00050463A4609B21FFA8AFAFFF7B5FA04EBF6
:1018F0000A003A46314600B2FFF7AEFAAAEB0400FE
:1019000031463A4600B2FFF7A7FA4346002B68DD9E
:10191000C4F101052DB22B464FF00008554601E0F9
:101920009CB2019B08F101081FFA88F605EB060A34
:101930000FFA8AFA002B3A4650460FFA88F899B205
:101940000ADB039B023311FA83F11BB20393631E7C
:101950009CB21BB289B2029301EB460101310BB27A
:10196000A5EB06090BEB040109B20FFA89F9019303
:101970000091FFF771FA48463A460099FFF76CFA72
:10198000ABEB0401504609B23A4600910BEB060A54
:10199000FFF762FA484605EB04093A4600990FFA48
:1019A00089F90FFA8AFA2C1BFFF756FA24B23A4645
:1019B00051464846ABEB0606FFF74EFA36B23A46BA
:1019C00051462046FFF748FA3A4631464846FFF767
:1019D00043FA3A4631462046FFF73EFA029B43451A
:1019E0009EDC05B0BDE8F08F2DE9F04F154689B0BB
:1019F0001FFA82F9002D9DF848B0C9EBC93262DDAB
:101A000052000FFA82FE03F00202C9F1010403F052
:101A1000040C029203F0080213F0010324B20192B5
:101A200054D1BCF1000F40F0C580E146F24687B2C8
:101A30008EB204E0019B002B30D14D4543DD09F10E
:101A40000109002C1FFA89F8A3B208DB0AF1020A87
:101A500013FA8AF3013D2DB29BB20FFA8AFA03EB17
:101A6000480301331CB2029B0FFA89F9002BE1D025
:101A7000ABB2F11A07EB08005A4609B200B2039361
:101A8000FFF7EAF9039BA6EB0801F8185A4600B2E3
:101A900009B2FFF7E1F9019B002BCED0ABB2F81AE7
:101AA00006EB08015A4609B200B20393FFF7D4F9D6
:101AB000039BA7EB080099195A4609B200B2FFF739
:101AC000CBF94D45BBDC09B0BDE8F08F4FF0000805
:101AD000F246CDE9034C87B28EB217E0029B002B91
:101AE00044D1019B002B54D1311BA7EB09005A466E
:101AF00009B200B2FFF7B0F9381BA6EB09015A464C
:101B000000B209B2FFF7A8F94545DCDD039B08F1F7
:101B10000108002B1FFA88F49AB20ADB0AF1020AC4
:101B2000013D12FA8AF21FFA85F992B22DB20FFA2C
:101B30008AFA02EB4402013213B20393049B0FFAB8
:101B400088F8002BCAD006EB090138195A4609B2A9
:101B500000B2FFF781F9311907EB09005A4609B2C3
:101B600000B2FFF779F9029B002BBAD0A6EB09016E
:101B700038195A4609B200B2FFF76EF9311B07EB6C
:101B800009005A4609B200B2FFF766F9019B002B23
:101B9000AAD03119A7EB09005A4609B200B2FFF7E3
:101BA0005BF909EB0601381B5A4609B200B2FFF790
:101BB00053F999E7CDE903B587B29B468EB2CDF8CC
:101BC0001CE006E0019B002B49D1049B9B45BFF61E
:101BD0007AAF0BF10103002C9DB20FFA83FBA3B285
:101BE0000CDB079A04990232013913FA82F31FFAC7
:101BF00081F912B209B29BB20491079203EB45033B
:101C000001331CB206EB09027B191BB212B207EBBF
:101C1000090A06EB05081846114606920FFA8AFAD9
:101C2000039A0FFA88F80593FFF716F9039A4146CD
:101C30005046FFF711F9029A059B002AC2D0A6EB85
:101C400009011846039A09B2FFF706F9711B5046BD
:101C5000039A09B2FFF700F9019B002BB5D041466A
:101C6000DDF80C80A7EB0900424600B2FFF7F4F85C
:101C7000781B4246069900B2FFF7EEF8A5E700BFD1
:101C8000914244DB2DE9F04F9B465318B3F5F07FAA
:101C900083B036DA002A34DB0D46002602FB022729
:101CA00002F101094FEA4108019016FB06F3FB1A05
:101CB000B3F1804F4FF0804203D292089342FCD39D
:101CC00012B30020811899424FEA50009CBF80183F
:101CD0005B1A9208F6D14FEA400A019BA8EB050176
:101CE0001C1A52465B462046FFF7E8FC013629469F
:101CF0005B4652462046FFF7E1FC4E4505F1FF35B5
:101D0000D3D103B0BDE8F08F92461046E5E77047A7
:101D10002DE9F04F002A89B095B21646BDF948402A
:101D20009DF84C90C5EBC53C40F3B680A4B289B297
:101D3000029104F1030B611C1FFA8BFB059103F068
:101D4000010103F002034FF0000A03935B46C5F163
:101D500001054FEA4C0C2DB20FFA8CF280B2D3463B
:101D60000190AA4604911D46009207E0039B002BB8
:101D70005BD1AB1C5E459DB240F38E80BAF1000F83
:101D80001FFA8AF20ADB009B711E03F1020812FAA5
:101D900088F20FFA88F30EB2009392B20BF1010BA6
:101DA0001FFA8BF402EB4402049B01320FFA8BFB07
:101DB0000FFA82FA002BD9D0029AB3B2D71A059A39
:101DC0003FB202EB430E019A07FA8EF8101947450D
:101DD00000B20FDACDE906343C464746804621463C
:101DE0004A464046FFF738F8611C0CB2BC42F6DBAD
:101DF000DDE90634019A1A44029B12B21F1B3FB25E
:101E000007FA85F84745B1DA06943C4647469046BE
:101E100021464A464046FFF71FF8611C0CB2BC42FF
:101E2000F6DB039B069C002BA3D0029BB2B29F1A49
:101E3000059B3FB203EB420E019B07FA8EF8181B7D
:101E4000474500B20FDACDE906243C4647468046B6
:101E500021464A464046FEF7FFFF611C0CB2BC42D9
:101E6000F6DBDDE90624029B1C1B24B2019B04FA6D
:101E700085F89A1A444517B2BFF67BAF2146013464
:101E80004A46384624B2FEF7E7FF4445F6DBAB1C72
:101E90005E459DB23FF772AF09B0BDE8F08F00BF5D
:101EA0002DE9F04F92461C460F4606468BB0BDF911
:101EB00050309DF854500493049A2B4600EB0208CE
:101EC000AAEB42094A464046FFF7F8FBE1194A46A9
:101ED00040462B460139FFF7F1FBBDF810C0BBB2FD
:101EE0004FEA4C0703EB0C09A1B2BFB20FFA89FB12
:101EF000CC1B1FFA86F80BFA84F4C24406935C45A7
:101F00001FFA8AF307911FFA89F902931BDD0197E3
:101F1000E2465F4639462A463046FEF79DFF791C69
:101F20000FB2A742F6DB029B019F5E1E36B25946F6
:101F30000BF1010B2A4630460FFA8BFBFEF78CFFA4
:101F4000A345F4DBD4467F423BB20393CCF10103BB
:101F50001BB20593049BE044002B1FFA88F840F362
:101F6000F780DDF80CB0059CCDF804B00027A3463F
:101F70001C46CDF820C001371FFA87FAA9EB0A01E9
:101F8000BBF1000F2A4609B23FB2A6B21FFA8BF08E
:101F90000BDB019B741E03F1020B10FA8BF00FFA9E
:101FA0008BF3A6B280B224B2019300EB4A03A8EBF4
:101FB0000600013300B20FFA83FBFEF74DFFA9EBD9
:101FC0000601A8EB0A002A4609B200B2FEF744FF58
:101FD000A742D0DBDDF820C0029B0026A3EB0C0358
:101FE0009BB21A460293DDE903B39A46013A92B2D4
:101FF000059C0192CDF82080CDF824C0029BB6B29A
:10200000721C002C1E441FFA82F830B21FFA8AF7A5
:1020100016B2A2B20CDB0BF1020B07F1FF3A12FA77
:102020008BF21FFA8AF792B20FFA8AFA0FFA8BFB39
:1020300002EB4802A9EB0701531C09B22A461CB265
:10204000FEF70AFF019BA9EB0801D8192A4609B23D
:1020500000B2FEF701FF5645D0DBDDE9088C079B97
:10206000069A013B1A440026DDE903B39946A2EB28
:102070000C0A059C1FFA8AFACDF81880CDF81CC00E
:10208000029BB6B2721C002C1E441FFA82F830B2BA
:102090001FFA89F716B2A2B20CDB0BF1020B07F1A3
:1020A000FF3912FA8BF21FFA89F792B20FFA89F907
:1020B0000FFA8BFB02EB48020AEB0701531C09B233
:1020C0002A461CB2FEF7C8FE019B0AEB0801D8198C
:1020D0002A4609B200B2FEF7BFFE4E45D0DBDDE96D
:1020E000068CDDE9049B0024664601E01FFA89F6B0
:1020F0000134A7B20AEB0701BBF1000F2A4609B26F
:1021000024B21FFA8BF00EDB039B06F1FF3903F1BB
:10211000020B10FA8BF00FFA8BF31FFA89F680B2DC
:1021200003930FFA89F900EB470001300FFA80FBA7
:10213000A8EB060000B2FEF78FFE0AEB0601A8EB43
:1021400007002A4609B200B2FEF786FE4C45CDDBF9
:102150000BB0BDE8F08F00BF2DE9F04F06468DB003
:10216000BDF95800DFF8A8861FFA80FE0490D8F861
:1021700000004FEA4E04476D91469AB29DF85C30DC
:10218000B7F800C0A0B28CB2009304EB0E031BB2F0
:102190006645029341DA1D467B8801959D423CDAF3
:1021A000131A1BB2002B03EB050A36DDF30700F10F
:1021B000DE81B5F5F07FC0F24381CDE905E2019DF6
:1021C0003A4606EB090B0746039401910AE04C4698
:1021D000E00713D4D8F80020526DB2F800C00135E2
:1021E000AA4513DD6645FADA51888D42F7DADC45F7
:1021F000EDDAACEB0604013CE007EBD5701E2044A1
:10220000009A00B229B2FEF727FEE3E73846039CA6
:102210001746DDF814E0069A0199B3B203937344AC
:10222000A4EB0E041DB2224465451FFA89F49BB24B
:102230000FFA82F942DA221A12B201927A880E4615
:10224000914262DA049A002A02EB010A36DD03F0B9
:102250000102D907059200F1C081B6F5F07FC0F206
:102260003881019ACDE906E905EB020BA1461C462F
:102270000BE0019FFB0714D4D8F80020576DB7F886
:1022800000C00136B24540F389806545F9DA7A88A5
:10229000B242F6DDE345ECDDACEB0507013FFB07A1
:1022A000EAD5601E3844009A00B231B2FEF7D4FD80
:1022B000E2E75C46DDF814E0DDF81890039E009F2D
:1022C0002644DDF80880A6EB0E060EF1FF3E0FFA5D
:1022D0008EF436B23B46224641463046FFF7D0FCEC
:1022E0003B46224641462846FFF7CAFC3B4622466B
:1022F00049463046FFF7C4FC3B462246494628463D
:102300000DB0BDE8F04FFFF7BBBC91454E46D5DAA6
:10231000049A002A02EB090AD0DD03F001020592BB
:10232000059A002A4CD0019BCDE904E405EB030B90
:102330006B1C3C460793CDF818900FE05210002A12
:1023400003DDB6F5F07FC0F28D810136564580F28F
:102350007681D8F80020546DB4F800C06545F4DAF1
:102360006288B242F1DDDC45B4BFACEB0507019FEA
:102370000FFA86F9B8BF07F1FF37009A4946284699
:10238000FEF76AFDFB0707F1FF32D7D42A4410B2EB
:102390004946009AFEF760FDBA1ECFE72346DDF8F6
:1023A00018E04C46DDF81C90654587DA7A884E4681
:1023B0004A4583DD049A4A449246059A002AB2D1DE
:1023C000013B0493019BCDE905E905EB030BD946DD
:1023D000A3463C46374611E0019EF2071AD472101C
:1023E000002A02DDB7F5F07F1DDB01375745BFF648
:1023F00060AFD8F80020546DB4F800C06545F4DA39
:1024000062889742F1DAE145E6DDACEB0506013E74
:10241000F207E4D5049B009A981900B239B2FEF78E
:102420001BFD013EDBE707EB8701A06A009B8901EA
:1024300001EB6501084443EA031106F065FFD4E7A8
:1024400040F2DF130AF1FF3B9B45A8BF9B46009B70
:10245000CDE9054E43EA0313CDE907200393099123
:1024600018E04C46E30723D46210002A2BDDB86A3B
:1024700005EB8504711001EB84110844039906F003
:1024800043FFD8F80020576DB7F800C001355D450F
:1024900000F30181B445F9DD7A88AA42F6DD06EB46
:1024A00009029445DDDAACEB0604013CE307DBD519
:1024B000701E2044009A00B229B2013CFEF7CCFC09
:1024C0006210002AD3DCD8F80020576DB7F800C09E
:1024D000DCE740F2DF120AF1FF3B9345A8BF9346C9
:1024E000009ACDE9084A42EA0212DA46CDF828906D
:1024F0009B46CDE9062EDDF8049018E04C46E20735
:1025000023D46210002A2CDD06EB8601B86A89010B
:1025100001EB65010844069906F0F6FED8F80020A4
:10252000576DB7F800C00136564500F3A9806545E0
:10253000F9DA7A88B242F6DD05EB09026245DDDDA3
:10254000ACEB0504013CE207DBD50BF1FF30204486
:10255000009A00B231B2013CFEF77EFC6210002A04
:10256000D2DCD8F80020576DB7F800C0DBE7B5F52E
:10257000F07FC0F29A8093463A465746CDE9054E21
:1025800006EB0903019D03930790019166451ADA52
:1025900051888D4217DA039B0FFA85FA9C45AEBF2E
:1025A0004C46ACEB060404F1FF3430465146009A29
:1025B000FEF752FCE30704F1FF304CD5D8F80020B9
:1025C000526DB2F800C00135AF42DFDCDDE9054EE7
:1025D000174607985A4601991FE6B6F5F07FC0F2F4
:1025E000B5800794F34654469A46019ACDF8209058
:1025F000AA18069265451ADA7A88964217DA069B77
:102600000FFA86F99C45B6BFACEB0507019F07F1B1
:10261000FF3749462846009AFEF71EFCF90707F1E6
:10262000FF3011D5D8F80020576DB7F800C001363B
:10263000B442DFDCDDE90749DE465346B4E6DDF8A7
:102640001890DDE904E439E628444946009A00B2CE
:10265000FEF702FCE6E730445146009A00B2FEF76E
:10266000FBFBABE7079BA06A591006EB8604009BB7
:1026700001EB8411084443EA031106F045FE64E6C9
:10268000DDE9084AB2455B46DDF81CE0DDF828903C
:102690003FF7E7AD88E6AA4509990195DDE9054EC2
:1026A000DDE907203FF789ADB7E540F2DF130AF116
:1026B000FF359D42A8BF1D462B46009DCDF824A0A6
:1026C00045EA051503959A46CDE9054ECDE9072063
:1026D000019D0A9114E05210002A09DD05EB8501E5
:1026E000B86A5B1003EB81131844039906F00CFEE3
:1026F000D8F800305F6DB7F800C00135554571DC82
:102700006645FADA7B88AB42F7DD06EB09039C45A8
:10271000ACBF4C46ACEB06040FFA85FBB8BF04F126
:10272000FF345946009A3046FEF796FBE10706F162
:10273000010304F1FF32CED4324410B25946009A5C
:102740000193FEF789FB019BA21EC4E740F2DF1252
:102750000AF1FF319142A8BF11460A4600999346FB
:1027600041EA0111CDE9061ECDE90834CDE90AA9F7
:1027700015E05210002A0ADD06EB8601B86A4FEA1E
:102780006A0303EB81131844069906F0BDFDD8F8DF
:1027900000305F6DB7F800C001365E452EDC654540
:1027A000FADA7B88B342F7DD019B0FFA86F9EB1862
:1027B0009C45B6BFACEB0504019C04F1FF342846F0
:1027C000009A4946FEF748FBE00705F1010A04F1CB
:1027D000FF32CED42A4410B24946009AFEF73CFBA1
:1027E000A21EC6E7DDF824A00A9955450195DDE94A
:1027F000054EDDE90720FFF6BEAE0EE5DDE9094A2C
:102800005645DDF82C90DDE907E3FFF6EAAECBE5AF
:10281000AC3400202DE9F04F494F9E463B6885B00F
:102820005B6D9DF838A01D88A84237DA90465A881B
:102830000C46914232DABEF1000F0EEB01092DDD9C
:10284000C1073AD4421ECDE9018200EB080B1E46B7
:1028500080460EE0019DEA0717D46A10002A02DDC7
:10286000B4F5F07F1DDB0134A14517DD3A68566DE4
:102870003588A845F7DA7288A242F4DDAB45E9DD78
:10288000A5EB0805013DEA07E7D5029B524658191A
:1028900000B221B2FEF7E0FA013DDEE705B0BDE887
:1028A000F08F04EB8401B06A890101EB68010844F0
:1028B0004AEA0A1106F028FDD5E700EB080201926A
:1028C000421C83461E460392CDF808800BE052104E
:1028D000002A02DDB4F5F07F25DB01344C45DDDA5A
:1028E0003A68566D3588AB45F7DA7288A242F4DD56
:1028F000019B0FFA84F89D42B6BFA5EB0B05029D24
:1029000005F1FF35524641465846FEF7A5FAEB075A
:1029100005F1FF32DBD45A4410B241465246FEF76D
:102920009BFAAA1ED3E7039BB06A04EB84055910F7
:1029300001EB851108444AEA0A1106F0E5FCCCE7F0
:10294000AC340020704700BFB0F5207F02D2024BAC
:102950001B681880704700BF8C340020B0F5F07FF2
:1029600002D2024B1B685880704700BF8C34002095
:10297000B0F5207F02D2054B1B681880B1F5F07FBF
:1029800002D2024B1B685980704700BF8C34002074
:10299000014B1B68187170478C340020014B1B6879
:1029A000587170478C340020014B1B68D8807047E9
:1029B0008C340020014B1B68D88870478C34002071
:1029C000014B1B68187270478C340020014B1B6848
:1029D000188870478C340020014B1B68588870475A
:1029E0008C340020014B1B68187970478C34002010
:1029F00010B5382001F058FEE8B1002280230E4CBB
:102A00000E49206041600E4C0E490260C0E903414E
:102A10000D4C0E490372C0E905410D4C0D49C0E94A
:102A200007410D4C0D49446341620D4C0D49C0E90D
:102A30000A410D49016310BD8C340020010196004C
:102A4000492900105D2900107129001091290010FA
:102A50009D290010A9290010B5290010C1290010D6
:102A6000CD290010D9290010E52900100A38C0B27C
:102A700003289ABF024B53F820000020704700BF84
:102A800034A2001010B44FF480740C4B53F8202083
:102A900003EB8003C00082F0400200F1804003F5A8
:102AA000805C02F0C00200F5203003F54053CCF802
:102AB000002041601C605DF8044B704704800340B7
:102AC00010B4084CC90041EA820154F8202004EBFC
:102AD0008003514003F5805301F00C015DF8044B75
:102AE00019607047048003400FB400B583B0049CA4
:102AF000074803F023FB3CB105A92046019103F0F0
:102B00007DF9044803F01AFB012003F08FF900BFA0
:102B1000349A0010449A0010EFF3108072B6064BFE
:102B2000D3E8CF1F01220029FAD1C3E8412F0029A1
:102B3000F6D1BFF35F8F7047872A00200023034A36
:102B4000C2E88F3F80F31088704700BF872A0020BB
:102B500070B58646EFF3108572B6124CD4E8CF6F8D
:102B60000120002EFAD1C4E8460F002EF6D1BFF3A3
:102B70005F8F4FF0010CC80801F007030CFA03F354
:102B80001EF800C01CEA030608D14CEA030C0EF83C
:102B900000C0C4E88F6F85F3108870BD1046FFF742
:102BA000A3FF00BF872A0020F8B5EFF3108772B6A5
:102BB0001C4ED6E8CF5F0124002DFAD1C6E8454F60
:102BC000002DF6D1BFF35F8F9A421BD8012502E09A
:102BD0000132934222D3D40810F804E002F0070C2B
:102BE00005FA0CFC1EEA0C0FF2D14EEA0C0E00F8AE
:102BF00004E010460023C6E88F3F87F31088984210
:102C000007DBF8BD0023C6E88F3F87F310884FF03D
:102C1000FF300029F5D00698FFF766FF4FF0FF3030
:102C2000E8E700BF872A0020044A1078431CDBB283
:102C3000182B28BF10231370704700BFC01F00203F
:102C400010B5054C82B001461F231822009403489A
:102C5000FFF7AAFF02B010BD489A0010A82F00206D
:102C60004FF0E022936843F000539360704700BF39
:102C70000021044B03F12002C3E88F1F013393426C
:102C8000FAD170477C2A00204FF0E0234FF08032C9
:102C9000C3F80024C3F80424C3F80824C3F80C24A0
:102CA000C3F81024C3F81424C3F81824C3F81C2450
:102CB000C3F82024C3F82424C3F82824C3F82C2400
:102CC000C3F8302462B67047012300F01F0293401E
:102CD000400941B1800000F1604000F56140C0F85A
:102CE000803103607047024A203042F8203070473C
:102CF00000E100E00123064A410952F8212000F0DA
:102D00001F0003FA00F01040003818BF0120704780
:102D100000E100E001224309034900F01F00824066
:102D2000403341F82320704700E100E0054A1030AD
:102D30009268054B52F82000C01A2F288CBF002043
:102D40000120704700ED00E0C41F0020F8B50D46DB
:102D5000EFF3108772B6124ED6E8CF2F0123002A68
:102D6000FAD1C6E8423F002AF6D1BFF35F8F0D4B80
:102D700000F110049B680C4A53F82430934203D0AE
:102D8000994201D001F008FA064B9B6843F82450A1
:102D9000BFF35F8F0023C6E88F3F87F31088F8BD2D
:102DA000852A002000ED00E0110100102DE9F04F10
:102DB00081468B46164683B0EFF3108372B6DFF878
:102DC000D0A10093DAE8CF1F01230029FAD1CAE885
:102DD000413F0029F6D1BFF35F8F664B93F9004066
:102DE000002CC0F2A080644D04EB440705EB87087B
:102DF00098F8061009F110091970604BBF009B6824
:102E000053F829006300411B2F292FD95C498842C0
:102E100040F0A4801C445B4B02372F44043BDB1B77
:102E2000C3F34A036FEAC3434FF421416FEAD3432C
:102E300025F8241005EB840463804BF60153A3802E
:102E4000FF2348F00100E671C4F808B0A3714B4BB2
:102E50009B6843F82900BFF35F8F0023CAE88F3FC8
:102E6000009B83F3108803B0BDE8F08F20F0010EC3
:102E70009EF80710B1422ED84FF42143EB53414B3B
:102E8000B91C2944043B04375B1A2F44AEF10401FA
:102E9000C91BC1F34A043C49C3F34A030B43214312
:102EA000A8F804103949A8F802304AF6AA20734657
:102EB0005B1B5B415843000D88F8076088F80600EB
:102EC000C8F808B048F00100CEF80010BFE7D1798B
:102ED000B1422ED996469EF906C00CEB4C02BCF1CD
:102EE000000F05EB8202F2DA4BF601510EF10402FB
:102EF000A8F10407BF1AC7F34A076FEAC7476FEA8A
:102F0000D7478EF8064003EB0408204C05EB8803F6
:102F1000AEF8047045F82840998083F806C0DE7149
:102F2000C3F808B093E701F037F9124B93F900406A
:102F300059E7724632F8041F490514D44915023185
:102F400002EB410101916FF00701C91B019F491B71
:102F50003944C1F34A0141F46041C9E7019301F0EA
:102F60001BF9019B56E701F5FF1101F5FF511F31D8
:102F7000E4E700BFD08C0220C41F002000ED00E079
:102F800011010010F41F002000E0FFFF01488047FE
:102F9000852A0020F0B5EFF30585EDB2EFF3108C34
:102FA00072B62649D1E8CF2F0123002AFAD1C1E811
:102FB000423F002AF6D1BFF35F8F214E40F0010E51
:102FC000B4684AF6AA2354F825701E4A0446A41A87
:102FD000644163431B0D77455BB21BD092F90640F9
:102FE0009C421CD092F912409C4223D092F91E4080
:102FF0009C4221D092F92A409C4208BF03240FD062
:10300000114A0024157813708571C1E88F4F8CF335
:103010001088F0BDB2680D4C42F82540F0E700245E
:1030200004EB440402EB8402FF2494714BF6015438
:103030009480E5E70124F3E70224F1E7852A0020E4
:1030400000ED00E0C41F0020D08C02201101001010
:1030500010B5074C82B001460523002200940548B4
:10306000FFF7A2FD0028A8BFC0F1330002B010BDD9
:10307000649A0010D68C0220014B0B440360704709
:103080007C2A002070B5104C104DAC420ED2FF26A9
:10309000236863B1FFF7C8FD01462046FFF7ECFF48
:1030A000A680BFF35F8F0834AC42F1D370BDFFF749
:1030B000BBFD01462046FFF7DFFF2671BFF35F8FA0
:1030C0000834AC42E4D370BDB8250020C8250020E8
:1030D00010B50446FFF7A8FD01462046FFF7CCFFD8
:1030E000FF232371BFF35F8F10BD00BF10B50446EF
:1030F0000120FFF7A5FD034B03442360BFF35F8F5F
:1031000010BD00BF7C2A0020024B0B440360BFF3BC
:103110005F8F70477C2A00200D4B1A68EFF31081F7
:1031200072B6D2E8CFCF0120BCF1000FF9D1C2E8CE
:103130004C0FBCF1000FF4D1BFF35F8F00221B686E
:10314000C3E88F2F81F3108840BF00200021704713
:1031500080340020000000002DE9F04F2DED028B9F
:1031600085B0EFF30583DBB2103B9A0818BF01224C
:103170004FF0010103F0030B18BFAF4DAF4B08BF79
:10318000AF4D0BEB820253F8226001FA0BF205F50A
:1031900041539FEDA78B01925A602FE0B3881C0426
:1031A00040F19380B379002B40F0DD80B6F9082020
:1031B000002AC0F21E81736902EB420203EBC203D4
:1031C000D3E90247B7F1FF3F08BFB4F1FF3F0ED08C
:1031D00005EB8B01AB6A0A69D21AE31A934205D355
:1031E00001232A6A03FA0BF3134200D10C6128462B
:1031F00000F08AFCA042B941C0F2FB80B6F9083069
:10320000019A002B0093EA63C8DBD6F8148003EB25
:103210004309284608EBC907D7E9024A00F074FCC5
:10322000A04271EB0A01B9DBBAF1000FC0F2C38012
:10323000D7E90431834A934200F0ED807A88B6F9E9
:10324000080092B242EA0040984702460B4652EA12
:10325000030100F0B080002B80F2D180B4EB020EAD
:103260006AEB030A38F93930C7E902EA002B95DB2B
:10327000716903EB430201EBC202D2E90270BE4561
:103280007AEB000C4FEA430288DBB4462CF8083F87
:1032900006E003EB430001EBC0005A00D0E90270E6
:1032A000BE451A447AEB000001EBC20404DB31F99D
:1032B0003230A446002BECDA28F83930009BACF809
:1032C0000030B3881C043FF56DAF3369EFF3108213
:1032D00072B6D3E8CF0F01210028FAD1C3E8401F0E
:1032E0000028F6D1BFF35F8F4FF6FF74B08800233C
:1032F000316900B2B480C1E88F3F82F310889842F0
:10330000FFF650AF0746A946746906F1080807EBB7
:10331000470E04EBCE03D3E90250B6F90830C44699
:10332000002B13DBB246009704E034F936309446A4
:10333000002B09DB03EB430604EBC602D2E9027162
:10334000BD4270EB0101F0DA5646009FACF8007008
:1033500034F93E7024F83E30002FD8DAB3794D4668
:10336000002B3FF423AF0023B371B6F9083006F108
:103370000808581C3DD01A46776903E08046591C5E
:103380003FF416AF03EB430107EBC100B0F802C0F6
:103390001C461CF4004F9E4637F93130EED0944263
:1033A00080ED028B05D0A8F80030328927F8312053
:1033B00034817246E3E738F8393033813369EFF30B
:1033C000108272B6D3E8CF0F01210028FAD1C3E8EA
:1033D000401F0028F6D1BFF35F8F7388316928F84A
:1033E0003930009B73800023C1E88F3F82F310883F
:1033F000D4E640BF05B0BDEC028BBDE8F08F284697
:10340000CDE9022300F080FB029A039B10EB020E31
:1034100043EB010A26E708460B690291984700280A
:10342000C9D00299D1E9002311E700BFAFF30080B2
:10343000FFFFFFFFFFFFFFFF00800B405034002025
:1034400000000B40593100102DE9F84F364C25692A
:103450002DB1BDE8F84F0A213448FFF70DBEDFF863
:10346000E4800321404600F03DFB0326C4F80C80B5
:10347000FFF7DAFB4FF0504C2D4B267003442361CD
:10348000DCF800300F216370636961801D834FF0A9
:103490000405A3F878504FF00505A3F890504FF0BD
:1034A0000605A3F8A8504FF007050E214FF6FF724E
:1034B00008274FF00A0EA3F8C0504FF001094FF053
:1034C0000C0C4FF0020B4FF0090A0D204FF00B05CA
:1034D000A3F868111749A280A3F808E1A160A3F836
:1034E00048B0A3F8F0A0A3F82051A3F838C1A3F87E
:1034F0005001A3F83090A3F86060A3F8D8701A8048
:103500000D4B3046C8F820700C49DC60FFF71EFCFC
:1035100049463046FFF7D8FB094B0A211F64034890
:10352000BDE8F84FFFF7A8BD0C2000208034002034
:103530007C2A0020FFFF1000503400205931001079
:1035400000200B4000000B40004870470C2000207A
:10355000F8B59DF82050044617461E4635B900F0D0
:10356000DBFA874266EB010100295CDB2169EFF39E
:10357000108372B6D1E8CF0F01220028FAD1C1E83A
:10358000402F0028F6D1BFF35F8FB4F902206569A0
:1035900002EB4201002A4FEAC10C206905EBC10190
:1035A00039DB35F80CE0A4F802E04FF0000EC0E87B
:1035B0008FEF83F310884888069B0130C0F30E001C
:1035C000012838BF01200B61079B48804B61C1E98E
:1035D000027640EA02402369EFF3108172B6D3E825
:1035E000CF7F0126002FFAD1C3E8476F002FF6D115
:1035F000BFF35F8FA38825F80C30A2802369C3E84E
:103600008FEF81F310880122E368217803F50153DD
:103610008A405A60F8BD0022C0E88F2F83F31088DB
:103620004FF0FF30F8BD2846F8BD00BF0146F0B5A9
:103630000069EFF3108772B6D0E8CF5F0124002D48
:10364000FAD1C0E8454F002DF6D1BFF35F8FB1F935
:1036500002E04C690EEB4E0CBEF1000F4FEACC05B8
:10366000086904EBCC0C3CDB665B4E800026C0E8AE
:103670008F6F87F31088BCF80200CCE90223013079
:10368000C0F30E00012838BF0120059BACF80200F2
:10369000CCF81030069B40EA0E40CCF814300B6991
:1036A000EFF3108272B6D3E8CFCF0127BCF1000F41
:1036B000F9D1C3E84C7FBCF1000FF4D1BFF35F8FA9
:1036C0008B886353A1F804E00B69C3E88F6F82F322
:1036D00010880122CB68097803F501538A405A60AB
:1036E000F0BD0023C0E88F3F87F310884FF0FF3014
:1036F000F0BD00BF03464089B0EB214F37DD58696C
:103700000A1402EB420210B500EBC2001C69EFF391
:10371000108C72B6D4E8CFEF0122BEF1000FF9D1C0
:10372000C4E84E2FBEF1000FF4D1BFF35F8F428883
:1037300089B292B28A4207D000221B69C3E88F2F58
:103740008CF31088002010BD42F400424280012119
:10375000002218699971C0E88F2F8CF310881C78AB
:10376000DA68084602F50153A140596010BD0020F7
:10377000704700BF407870472DE9F04182B006469F
:1037800000F0CAF94FF47A7304464FF0FF306FF03F
:103790000042E6FB0341A04272EB01033ABF04463C
:1037A00015460D46A61F45F1FF37B44275EB0703DA
:1037B0003CBF0026374600F0AFF9301A67EB010135
:1037C000012871F1000106DA2046294602B0BDE861
:1037D000F04100F0ABB900F09FF9864267EB0101C0
:1037E00000290ADB0021174B3246009316483B465E
:1037F0000191FFF71BFF0130E6D04FF0000C134A98
:103800001349536A9F4204D8906AB042DCD29F4267
:10381000DAD10B68EFF3108072B6D3E8CF8F5FF088
:10382000010EB8F1000FF8D1C3E848EFB8F1000F6E
:10383000F3D1BFF35F8F0B68C3E88FCF80F310889D
:1038400020BFDEE7193100100C20002000000B40E3
:10385000803400202DE9F04306460D4683B0EFF397
:103860000584E4B23CB12D4B5A6AAA421CD2002016
:1038700003B0BDE8F0832A4FD7F80C9097F800808A
:10388000484600F041F908F1040859F828301B1A9D
:10389000301A65EB0101984271F1000110DB20BF85
:1038A0001E4B5A6AAA42E2D314BF012400249B6A29
:1038B000B34234BF204644F0010003B0BDE8F083BA
:1038C00000F02AF9864265EB0101002914DB154B53
:1038D0003846CDE9003432462B46FFF7A7FE011EDD
:1038E0000ADD0E4B5A6AAA4216D39B6AB34211D321
:1038F0000B48FFF7FFFEB6E7084B5C6AAC42B6D355
:10390000641B18BF01249B6AB34234BF204644F0B5
:103910000100ADE7AA42EBD120BFE9E700000B4070
:103920000C200020193100102DE9F0410446DDE99A
:10393000071552EA030072D0002B16461F4673DBB0
:103940000698C5E900232861AC60696100F0E4F8DD
:103950004FF0FF326FF00043801947EB01078242BE
:1039600073EB07013CBF1F4610462369EFF310823B
:1039700072B6D3E8CF6F0121002EFAD1C3E8461FFB
:10398000002EF6D1BFF35F8FB4F90210666901EB28
:10399000410300294FEAC30CD4F8108006EBC3039F
:1039A00046DB36F80CE0A4F802E04FF0000EC8E861
:1039B0008FEF82F310885A88C3E902070132C2F3FD
:1039C0000E02012A38BF01221E485A805D6118612B
:1039D00042EA01422369EFF3108072B6D3E8CF8F39
:1039E0000127B8F1000FF9D1C3E8487FB8F1000F03
:1039F000F4D1BFF35F8FA38826F80C30A180236930
:103A0000C3E88FEF80F3108801202178E36800FA83
:103A100001F103F501535960EA60BDE8F081012628
:103A2000002732463B468BE7564263EB430787E766
:103A30000020C8E88F0F82F310884FF0FF32EA6051
:103A4000BDE8F081593100100246C06800B97047E6
:103A500091680314B1F80AC0BCEB204F3DDD30B5CE
:103A60004C6903EB430304EBC30C0B69EFF3108EBB
:103A700072B6D3E8CF5F0124002DFAD1C3E8454FD9
:103A8000002DF6D1BFF35F8F83B2BCF8020080B285
:103A9000834209D000230969C1E88F3F8EF3108863
:103AA00000230020D36030BD43F40043ACF8023063
:103AB0004FF0010C0023086981F806C0C0E88F3F71
:103AC0008EF31088CB68097803F501530CFA01F1E5
:103AD000596000236046D36030BD00230020D360CE
:103AE000704700BF10B4054B054C064AA04214BFF6
:103AF0001846581C5DF8044BFFF72AB8AC2F00207D
:103B000000800B40809A00100346416A0A46986A7A
:103B1000596A8A42FAD17047034B596A0A46986A31
:103B2000596A9142FAD1704700000B40074A536A24
:103B30009942FCD8994207D1044B02E05A6A91425B
:103B400002D19A6A9042F9D8704700BF00000B403A
:103B500000EB400C4FEA8C0C0CF1804C0CF5803CD7
:103B6000F0B51646DCF80420051FB2F5803F38BFDB
:103B70004FF48032EDB238BFCCF80420012D2AD9A1
:103B80004FF40067254C0CF54052176054F8202084
:103B9000B2B9DCF80020012D82EA461202F0E00200
:103BA0000CF5805632602AD94FF4006144F8203079
:103BB0004FF480330CF500521160CCF80430F0BDA6
:103BC0006769B7FBF2FE0EF1010E0EEB4E0EBEF171
:103BD000030EFCD2DDE70129D2D103240CF54052BB
:103BE0001460DCF80820D207FBD5DCF800200B4C71
:103BF00082EA461202F0E0020CF5805632600122A1
:103C0000DCF800504D4005F00305356002FA01F183
:103C1000DCF808200A42FBD0C6E700BFB42F002022
:103C2000014B53F820007047B42F0020584B2DE96A
:103C3000F0431C6C1746B4F5803F38BF4FF4803218
:103C400083B038BF1A64032280460E46514B504D54
:103C5000DA636C6CE307FCD5EB6B4F4A83F020030F
:103C600003F0E003D363EB6B494D83F0010303F0F2
:103C70000303D3636C6CA407FCD54FF400624FF4CC
:103C80008039464B464CDA63464B4246636101211C
:103C90003346C5F840904448009700F057F94FF478
:103CA00000616B6B07FB06F64B4538BFC5F83490D7
:103CB000384B2269B8FBF6F619633AB16369B3FB76
:103CC000F2F3013303EB4303033BFDD23049324AA5
:103CD0000B6B03F0E00313630B6B83F0020303F041
:103CE000030313638B6B5807FCD54FF400654FF447
:103CF00080332A4A15632D4A4B6322610A6C9A422B
:103D00004FF0030238BF0B64224B2149DA634B6C3E
:103D1000DA07FCD5CB6B204A03F0E003D363CB6B0F
:103D20001B4983F0010303F00303D3634B6C9B0730
:103D3000FCD54FF480334FF40065184A6661D563B3
:103D40000B64CA6C9A4238BFCB644FF40061114BCC
:103D5000A26999643AB16369B3FBF2F3013303EBEF
:103D60004303033BFDD24FF400604FF48031084A17
:103D7000094D936C83F0400303F0E003AB64074B01
:103D8000084DA5619864D16403B0BDE8F08300BF1D
:103D900000000140003001400010014000200140BF
:103DA000B42F0020006CDC0200000540001BB700AF
:103DB0002DE9F04F4FF4A078994685B0CDE9021275
:103DC0005F4CDFF884A154450AD908F1FF38A4F507
:103DD0003B54B8F10F0FA4F12004F4D1002069E0A6
:103DE000072304F53722019403FB03F402F5D8728C
:103DF000B2FBF4FE70454FF0010C4FF002074FF09C
:103E000003064FF004054FF005013FD0B3F1010E5A
:103E100000F094800EFB03F4B2FBF4FB58454CD049
:103E200019B301FB03F4B2FBF4FB58454FD0E5B1E5
:103E300005FB03F4B2FBF4FB584553D0AEB106FBCF
:103E400003F4B2FBF4FB584557D077B107FB03F4FA
:103E5000B2FBF4FB58455BD0BCF1000F05D00CFB66
:103E600003F4B2FBF4FB83455DD0734603FB03F41C
:103E7000B2FBF4FE704501F1FF3105F1FF3506F1AB
:103E8000FF3607F1FF370CF1FF3CBFD104FB1024D4
:103E9000002CBBD19E464A46DDF808B0DDF80C90F8
:103EA0000120284901FB08F1CBF80010C9F80030C7
:103EB000C2F800E005B0BDE8F08F04FB1024002C30
:103EC000AED14A46DDF808B0DDF80C90E8E704FB17
:103ED0001024002CABD14A468E46DDF808B0DDF840
:103EE0000C90DDE704FB1024002CA7D14A46AE4617
:103EF000DDF808B0DDF80C90D2E704FB1024002CAC
:103F0000A3D14A46B646DDF808B0DDF80C90C7E705
:103F100004FB1024002C9FD14A46BE46DDF808B0B1
:103F2000DDF80C90BCE704FB1024002C9DD14A4620
:103F3000E646DDF808B0DDF80C90B1E7019C44E7F7
:103F400050262F00001BB70050F80C0070B4039DE2
:103F500004682D0345EA03451B4B002CB3FBF1F32A
:103F6000B2FBF3F61FDB194A194B904214BF4FF412
:103F700080424FF40042174C1A6003F580531A60D8
:103F8000A36832EA0303FBD1212200F54053043336
:103F9000016086601A600268002AFCDA0822C560A7
:103FA0001A6070BC7047036803F03F038B42DAD19C
:103FB0008368C3F30B03B342D5D1C36803F4EE2384
:103FC000AB42D0D1EDE700BF001BB7000080054039
:103FD00000200240000002400A4B0B490B4A596086
:103FE000D3681904FCD40A4BD26843EA0013094988
:103FF000534009481940054AC160D3681B04FCD4EA
:10400000704700BF002010400020FE5A0000104002
:104010000000FE5AF001FE5A0010104030B44FF07C
:1040200080441C4B1C60E0B11B4CA3F54053DC6189
:104030001A4C40F0010044401C62596298624FF0F3
:1040400080454FF0E061134B1548164C1D608460AD
:1040500019604AB930BC4FF00042A3F580531A6092
:104060007047114BD861EAE74FF47A7303FB02F211
:10407000B2F1807F2ABF6FF07F4313461A464FF09C
:1040800080410A4C08482360094B426030BC1960EB
:10409000704700BF00B00D40D3C007B02D3FF84FB0
:1040A00000A00140F3FFFF0100800D4024340020F8
:1040B00000A00D40012300EB4000800000F1804093
:1040C00000F5841041600360704700BF002370B5A5
:1040D000DB8A04460D46002242E800F2520254BF39
:1040E0001021042144F25220984786462B4622464E
:1040F000F446BDE870400A214FF48170604700BF6C
:104100000023DB8A002242E800F2520201D410218F
:1041100018470421184700BF08B503460846191E72
:1041200002DB1AB140F03000FFF7D0FF40F0200072
:10413000FAE700BF034AD2F82838002BFBD0BFF3C0
:104140005F8F704700000E400021044B044ABFF30C
:104150005F8F43F8041B9342F9D170470C080E405F
:104160002C080E4010B44FF48D704FF42A64064AA8
:10417000064B07491460D06019605368002BFCDAC5
:104180005DF8044B704700BF0080044000A004406D
:1041900000B0FA00704700BF08B50148FEF7A4FC64
:1041A000A49A001038B5054C054DAC4204D254F821
:1041B000043B9847AC42FAD338BD00BF4898001082
:1041C0008898001038B5054C054DAC4204D254F81F
:1041D000043B9847AC42FAD338BD00BF7498001036
:1041E0008898001010B40748074C084B084A094942
:1041F00004601A608B6832EA0303FBD15DF8044B5C
:10420000704700BF002002407F3BEFEF00300240CC
:10421000F6FFF30300000240044BDB6CB3F5004FE4
:1042200003D14FF48022024BDA6470470000115032
:10423000002011504FF0E022044BD2F8881D0B43B0
:10424000C2F8883D10EE3004704700BF0303300011
:104250006FF06041044B054A19609368DB4333F00B
:104260006043FAD1704700BF0030024000000240B6
:1042700010B545F25320FFF743FFBDE81040034659
:104280000420184710B545F25320FFF739FFBDE869
:104290001040034601201847FEF7EABC1449154BAD
:1042A00070B55C1AA610442E324628BF4422124D27
:1042B0009200284605F0A0F8B4F5867F13D80F4A7F
:1042C000C6F1440012D02B19410803EBC101C3E928
:1042D000002208338B42FAD1C30704D520F0010035
:1042E000304445F82020064B9D6070BD4320F8E720
:1042F000000000101001001000000020110100104B
:1043000000ED00E0002370B52B4C82B0C4F884307F
:10431000FFF728FF0122294BDA63636C012BFCD1E4
:104320000321264A244B11639C6B012CFCD10226ED
:10433000052521460523224A22480096FFF706FE5E
:1043400021462B46204A21480095FFF7FFFD002219
:10435000042031461E4BFFF7FBFB21462846002276
:104360001C4BFFF7F5FB0022082011461A4BFFF704
:10437000EFFB002209201146174BFFF7E9FB002253
:1043800006201146134BFFF7E3FB0022114B0720D9
:104390001146FFF7DDFB0420FFF742FC00240F4B22
:1043A000A3FB0035AD0CE0B229460134FFF782FED5
:1043B000062CF8D102B070BD000001400030014071
:1043C000002F685900000540008C8647008005409A
:1043D000001BB70080D1F008006CDC0283DE1B43B9
:1043E00086B003B451FC0804CDE9020151FC090474
:1043F000CDE9040151EC0A04CDE9060103BCF04704
:10440000BDE800504EEC00C4BDE800504EEC01C4C5
:10441000BDE800504EEC02C400BD000000B5FFF73F
:10442000DFFF02E010FE30F4F8D441EC100443EC5E
:10443000112400EE010410EE010480EE200451EC82
:104440001004704700B5FFF7CBFF02E010FE30F418
:10445000F8D441EC100443EC112400EE010410EEFA
:10446000210480EE200451EC3004704700B5FFF7C2
:10447000B7FF02E010FE30F4F8D410B541EC1004A0
:1044800043EC112451EC040453EC0524A0FB024C32
:104490005FF0000EE0FB03CEE1FB02CE4CEC2044CB
:1044A0000024E1FB03E444EC30E480EE200451EC12
:1044B0005004BDE81040704700B5FFF791FF02E0DF
:1044C00010FE30F4F8D441EC100443EC112451EC0C
:1044D0002104A0FB01126FEA820252FB100052FB82
:1044E00012F252FB1000A0EBD07C53EC04245CFBD6
:1044F00013F153EC1524A1FB022001FB030053EC44
:104500004424A2EB000050FB1CF24FEA111312EB03
:10451000017043EBE27140EA515020EA915020F0E3
:10452000070053EC7524A0FB023C53EC752400FB00
:1045300003CC01FB02CC53EC0424ACEB824C40EAEC
:104540005C70A0F1010041EC400480EE200451ECCD
:104550007004704700B5FFF743FF02E010FE30F42F
:10456000F8D440EC700400EE010410EE210480EE5B
:10457000200451EC3004704700B5FFF731FF02E032
:1045800010FE30F4F8D440EC600400EE010410EEAC
:10459000210480EE200451EC3004704700B5FFF791
:1045A0001FFF02E010FE30F4F8D441EC800400EE6E
:1045B000010410EE010480EE400410EE1304704775
:1045C00000B5FFF70DFF02E010FE30F4F8D441EC27
:1045D000800400EE010410EE010480EE400410EEB1
:1045E0003304704700B5FFF7FBFE02E010FE30F425
:1045F000F8D441EC100443EC112400EE010410EE59
:104600003004C0F30070704700B5FFF7E9FE02E028
:1046100010FE30F4F8D443EC102441EC110400EE09
:10462000010410EE30F48CBF01200020704700BF61
:1046300000B5FFF7D5FE02E010FE30F4F8D443ECED
:10464000102441EC110400EE010410EE30F42CBFF4
:1046500001200020704700BF00B5FFF7C1FE02E057
:1046600010FE30F4F8D441EC100443EC112400EEB9
:10467000010410EE30F42CBF01200020704700BF71
:1046800000B5FFF7ADFE02E010FE30F4F8D441ECC7
:10469000100443EC112400EE010410EE30F48CBF42
:1046A00001200020704700BF38B50446094805F0D6
:1046B000BBF8204604F050FB0546064805F0ACF870
:1046C0002DB1054B2C449C4201D8284638BD0348E7
:1046D000FEF70AFAB825002000000820B09A001062
:1046E00010B50446054805F09FF8204604F03CFB51
:1046F000BDE81040014805F08FB800BFB825002084
:104700009A4238BF88547047704700BF2DE9F04F78
:1047100083B09946DDE90DAB0F9B884611469A0799
:10472000074616D1DA453AD20C460D46ABEB0A06DF
:104730000E4422464B46414620200134B847B4423D
:10474000F7D12946BAF1000F08D1204603B0BDE8E1
:10475000F08F0C46BAF1000F10D00E4655460C9B58
:104760002E449A440191721B4B46013D41461AF872
:10477000010D3446B847002DF5D101990F9B9B07D9
:10478000E3D5651AAB45E0D922464B464146202089
:104790000135B8475D4504F10104F5D3D5E70C4672
:1047A000BAF1000FD9D1D0E72DE9F04F0F9FDDF816
:1047B000248017F0020F0A9C9DF82CA00E9DDDE9C5
:1047C0000C9644D1F5BBB44241D207F0010B04F181
:1047D000FF3C4FF0300EC44404E00134A6420CF814
:1047E00001EF01D9202CF8D1BBF1000F00F0888037
:1047F000A5422CD904F1FF3C4FF0300EC44404E034
:104800000134AC420CF801EF21D0202CF8D117F084
:10481000100F0ED017F4806F54D1A64263D0A5427A
:1048200061D0B9F1100F50D0B9F1020F56D0202C41
:1048300029D12024CDE90B57CDE90984BDE8F04FFB
:10484000FFF764BF17F0010B34D1B442BFD317F0A8
:10485000100F1ED017F4806FE3D1002CDDD1B9F119
:10486000100F63D0B9F1020F77D0302488F80040E0
:104870000124BAF1000F11D17E0748D52B2608F884
:1048800004600134D6E7264601344FF0300C08F8B6
:1048900006C0202CCDD0BAF1000FEDD02D2608F89F
:1048A00004600134CDE90B57CDE90984BDE8F04F30
:1048B000FFF72CBFBAF1000F30D0B44205F1FF353D
:1048C00085D395E7B9F1100FB3D1BE063BD5202CA7
:1048D000AFD0582608F804600134A8E7202CA8D0EF
:1048E0002646013407E0661EB9D0B9F1100F36D064
:1048F000B9F1020FC9D14FF0620C08F806C096E773
:1049000017F0100FC5D017F4806F86D089E73E07E7
:1049100090D5202608F8046001348BE717F00C0FBF
:1049200000D0013DB442FFF452AF61E7BC0612D49F
:10493000782488F80040302488F801400224BAF135
:10494000000F99D0AAE7202C3FF473AF782608F81F
:10495000046001346BE75824EBE76224E9E717F0C1
:10496000200FA4F1020C04D04FF0580E08F80CE010
:104970008BE74FF0780E08F80CE086E700B9704737
:1049800001F09ABB10B1D1E900311847704700BF60
:104990002DE9F04F97B09DED207BDDE9225B0746C6
:1049A000884651EC170B249C99460C920B46024604
:1049B0008DED047B0794FFF719FE002840F0F48189
:1049C000DDE904014FF0FF326FF48013FFF720FEA2
:1049D000002840F01B81DDE904014FF0FF32AC4BB1
:1049E000FFF752FE002840F0EE80DDE90401A4A3A9
:1049F000D3E90023FFF748FE002840F0D380DDE92B
:104A00000401A1A3D3E90023FFF702FE002840F030
:104A1000C980DDE9040100220023FFF7F9FD002829
:104A200040F0E88023460D9013F4806F08BF062500
:104A300030212B460EAAA5F1200605E0013BB3422A
:104A400002F8011B00F09381092BF7D81E46ED1ADE
:104A5000DDE90401FFF7A6FD8E4B044603EBC60318
:104A600093ED007B8DED087BFFF778FD02460B464A
:104A7000DDE90401FFF7EAFCDDE90823FFF7FAFCB2
:104A800002460B46CDE90A23FFF79EFD8246FFF75B
:104A900077FD02460B46DDE90A01FFF7D7FC024627
:104AA0000B46CDE90A2300227B4BFFF7EDFD0028E2
:104AB00000F0FE800AF1010A5046FFF761FD024650
:104AC0000B46DDE90801FFF7B7FD10B14FF0000A12
:104AD0000134002E00F0FD80681E0EABDFF8CCC163
:104AE00018440FE0ACFB0A21C90801EB8102AAEBD4
:104AF00042023032BAF1090F00F8012F40F21C8156
:104B00008A461D46202D05F1010306F1FF36E9D145
:104B10002025691E0EAB6148194410E080FB046239
:104B2000C3EBA20303EB8302A4EB420404F13002C3
:104B300001351C4601F8012F002B00F0EB80202DE1
:104B40004FEAE473EAD1079B03F00303012B18D16A
:104B5000BBF1000F15D00D9B002B00F00A810BF16B
:104B6000FF3BBBF1200F0CD96B1E0EA930220B446A
:104B700005E001355D4503F8012F80F0D180202D3F
:104B8000F7D1079B0EACCDE902B341464B46384600
:104B90000C9A01950094FFF7B9FD8246504617B074
:104BA000BDE8F08F079B9DED047BCDE923B3414623
:104BB0004B4638460C9A8DED207B229517B0BDE808
:104BC000F04F00F045B9610723464CBF042303238F
:104BD0004146219338464B46079A48BF304CCDE9B1
:104BE00022B258BF2F4C0C9A209417B0BDE8F04F5A
:104BF000FFF78CBDDDE9042300200021FFF726FC30
:104C00000123CDE904010D9323460DE723469C07BC
:104C100040F0AA80BBF1040F40F2A6800C9B1D4619
:104C20001C1F04EB0B0A2A464B4641462020013547
:104C3000B847AA45F7D155461B4C261F14F8010D5D
:104C40002A464B464146B847B44205F10105F5D125
:104C5000079B0AF1040A9807A0D50C9CAAEB040351
:104C60009B459BD952464B46414620200AF1010AFA
:104C7000B847AAEB04035B45F4D38FE7AFF300809A
:104C80000000000065CDCD410000000065CDCDC124
:104C9000FFFFEF7FA8C200100000E03F6766666676
:104CA000049B00100C9B0010189B0010CDCCCCCCAA
:104CB0000022DDE90A01634BFFF7AAFC00287FF41C
:104CC00008AFBAF1000F6AD10AF1010A002E7FF491
:104CD00003AF2046FFF742FC02460B46DDE9040124
:104CE000FFF7B4FB02460B46CDE904230022554BE7
:104CF000FFF78EFC00287FF40CAFDDE904010022F1
:104D0000504BFFF7C1FC00287FF403AF013424F0BF
:104D10000104FEE6079B03F00303012B00F08280F1
:104D2000202D3FF42EAF0D9B7BB32D220DEB050301
:104D300083F83820013524E7202B3FF4E9AE0EAA92
:104D400015441E44302204E0202B05F8012F3FF4C7
:104D5000DFAE9E4203F10103F6D12E220DEB0603D6
:104D600083F83820751CD4E6DDF830A063E72025F1
:104D70006EE6079B13F00C0F50D00BF1FF3BAB45D9
:104D80003FF6F2AE202D3FF4FCAE079B5A0701D54B
:104D90002B22CBE71B077FF5F4AE2022C6E71AF0E3
:104DA000010F3FF496AE8FE7A60734D1BBF1030F96
:104DB00031D90C9B1D46DC1E04EB0B0A2A464B46E0
:104DC000414620200135B8475545F7D155461E4C80
:104DD000E61E14F8010D2A464B464146B847A64246
:104DE00005F10105F5D1079B0AF1030A9D077FF53F
:104DF000D5AE0C9CAAEB04039B457FF6CFAE524682
:104E00004B46414620200AF1010AB847AAEB0403A9
:104E10009B45F4D8C2E6DDF830A0D7E7AB453FF6B6
:104E2000A3AEAEE6BBF1000F3FF47AAF0D9B002BB3
:104E30009FD00BF1FF3B5D45FFF496AE202D7FF434
:104E400074AF9EE60000E03F139B001000000000DE
:104E50002DE9F04F9FB02A9EDDE92845074693468D
:104E60000891099322462B46204629460E96DDE9F5
:104E70002BA6FFF7BBFB002840F0BE80204629464A
:104E80004FF0FF32784BFFF7FFFB002840F0B48073
:104E9000204629464FF0FF326FF48013FFF7B8FB2E
:104EA000002840F0A9802046294600220023FFF771
:104EB000AFFB002840F0D581CDE90A45DDE90A23A2
:104EC0009046994606F4006216F480630F9213939D
:104ED00040F0A18058EA090340F0CA80002A40F05F
:104EE000E38106230E9316F00202109240F0D48163
:104EF0005346042B38BF04230C920422043B129225
:104F00000F932046294600220023FFF781FB00284B
:104F100040F0F3819DED0A7B0F9B5A4603930E9B55
:104F20008DED007B029326F4006304933846099BC1
:104F30000899FFF72DFD024616F0200F099B0899EE
:104F40000CBF6520452002F10108B8470C9A129B5E
:104F500016AC5D1E82EAE273A3EBE273D10F00266A
:104F600022469946DFF804C101E0202E10D0CE463B
:104F7000ACFB0930C00800EB8003A9EB43033033DE
:104F8000BEF1090F814606F1010602F8013BECD89B
:104F90000523002006930A2305950094099D089C8B
:104FA0004246CDE90330CDE901612B462146384622
:104FB000FFF7FAFB109A8046D2B1A0EB0B06B24580
:104FC00016D90BEB06022B46214620200136B847A6
:104FD000B245F6D80BF1FF335344CBF10102A3EBFA
:104FE00008034244924538BF002308F10108984461
:104FF00040461FB0BDE8F08F5A463846CDE92845F7
:10500000CDE92BA60E9C099B08992A941FB0BDE8F8
:10501000F04FFFF7BDBC58EA09032BD1002A3FF43B
:1050200062AF00230C930E9B0C9A934200F3B9815C
:105030004FF000082046294600220023FFF7E8FA37
:10504000002840F013819DED0A7B26F4006646F4AB
:1050500080668DED287B5A463846CDE92A8A099B21
:1050600008992C96D2E700BFFFFFEF7FCDCCCCCCC8
:1050700006230E93C9F30A50A0F2FF30FFF76EFA31
:10508000C1A3D3E90023FFF7F5F9C1A3D3E90023B6
:10509000FFF7C8F9C9F31309CDE90C0149F07F51B5
:1050A00040460022B24B41F44011FFF7CFF9A4A3D0
:1050B000D3E90023FFF7DEF902460B46DDE90C01D8
:1050C000FFF7B0F9FFF76EFA0C90FFF747FA9EA3CF
:1050D000D3E9002380468946FFF7CCF90022A54B8F
:1050E000FFF7A0F9FFF75EFA0346494640461293E0
:1050F00097A3D3E90023FFF7BDF9804612988946AC
:10510000FFF72CFA94A3D3E90023FFF7B3F9024683
:105110000B4640464946FFF799F902460B46804642
:105120008946FFF7A7F942464B46CDE910014046B4
:105130004946FFF777F90022CDE91401DDE91001B6
:105140008D4BFFF7BDF900228C4BFFF76BF9024640
:105150000B46DDE91001FFF7B3F90022884BFFF79A
:1051600061F902460B46DDE91001FFF7A9F9424655
:105170004B468046894600204FF08041FFF766F994
:1051800002460B4640464946FFF74CF902460B469D
:10519000DDE91401FFF794F900227A4BFFF742F999
:1051A000129B002203F2FF3C4FEA0C53FFF762F917
:1051B00080468946DDE90A0142464B46FFF728FA58
:1051C00050B10C9B4046013B49460C9300226B4B6F
:1051D000FFF776F9804689460C9A43466332C62A21
:1051E00006F00202109249460F9A2CD8002A5ED08F
:1051F000042212920B433FF416AFDDE90A0158A3D3
:10520000D3E90023FFF72CFA48B1DDE90A0156A3E0
:10521000D3E90023FFF7FCF900287FF404AF0E9BCD
:10522000002B50D0139A002A7DD0013B0E93129B85
:105230009A4505D9109B002B00F0AE8002231093F5
:1052400000230F9344E022BBBAF1050F4FD906F0BB
:105250000203002B49D105231293AAF105030F93F2
:105260003AE005F100430A940B9327E626F4006622
:1052700046F4806638462C96DDE90A67344607F125
:1052800000455A46CDE92A8ACDE92845099B089967
:10529000BCE605221292ADE700230222CDE90F32CF
:1052A00004220C9312922CE64FF00508C2E6BAF1E4
:1052B000040F1FD9109B002B78D104231293AAF15D
:1052C00004030F9304E0129B9A4531D80E9B0F9371
:1052D0000C9B002B3FF415AEDDE90A0142464B461C
:1052E000FFF7EEF8CDE90A010BE602231093052340
:1052F0001293F1E704231293EAE7DDE90A45A04699
:105300000F9B05F1004903930E9B5A46029326F426
:10531000006304933846CDE90089099B0899FFF79B
:1053200037FB024608E6129B9A4544D80F92CFE716
:10533000109B8BB30E9B0F9302231093C8E700BF03
:1053400061436F63A787D23F71A379094F930A40E6
:105350001655B5BBB16B0240EF39FAFE422EE63F5F
:105360002D431CEBE2361A3F0000000080842E41E2
:105370000000F83F0000E03F00002C400000244007
:10538000000018400000F03FFB799F501344D33FCA
:10539000B3C8608B288AC63F129BAAEB03030F9306
:1053A00096E7A3EB020808F1FF3843E604231293C3
:1053B000022310938CE7109B002BEDD002230F9259
:1053C000109385E72DE9F04F9BB0249C954D0A94EE
:1053D000954CB1F1000A18BF834625601878934CAC
:1053E000914608BFA3460993002800F093824FF02E
:1053F00000080AE042464B46514608F10108D847EA
:10540000099B1878002800F0CE80099B252803F11D
:1054100001030993EED11C460023224612F8010B2A
:10542000A0F1200110290AD8DFE801F04009093C69
:105430000909090909090938093409093000A0F1E5
:1054400030010929099440F28A802A2800F0F0806E
:1054500000252E2800F096800026A0F16801122970
:105460002DD8DFE811F049012C0043012C00380150
:105470002C002C002C002C002C002C002C002700D1
:105480002C002C002C002C002C002700144643F08C
:105490000103C2E7144643F00203BEE7144643F09B
:1054A0000403BAE7144643F01003B6E7144643F08A
:1054B0000803B2E70999487843F4807301326728FA
:1054C00009927ED8242840F2C180A0F12502422A08
:1054D00000F2BC80DFE812F05001BA00BA00BA0056
:1054E000BA00BA00BA00BA00BA00BA00BA00BA00EC
:1054F000BA00BA00BA00BA00BA00BA00BA00BA00DC
:10550000BA00BA00BA00BA00BA00BA00BA00BA00CB
:10551000BA00BA00BA00BA00190137011901BA007D
:10552000BA00BA00BA00BA00BA00BA00BA00BA00AB
:10553000BA00BA00BA00BA00BA00BA00BA00BC0198
:10554000BA00BA00BA00BA00BA00BA00BA00BA008B
:10555000BA00BC015801BC0119013701190100252D
:1055600000E0013205EB850500EB45051078303D84
:10557000A0F130010929F4D92E28099202F1010283
:105580007FF46AAF099943F4806348781146A0F12B
:105590003006092E40F221812A2800F02F8109923D
:1055A0000026013259E74446C14501D809F1FF38C8
:1055B0004B46424651460020D84720461BB0BDE826
:1055C000F08FA0F16902D2B20F2A3FD8012149F22F
:1055D00041079140394040F0F3800A2A3DD0072A24
:1055E00034D10A9D55F8042B002A00F0138143F0B2
:1055F000210012AB1F460B9303E0202900F0148119
:105600001A4602F00F042346092C94BF3033373377
:105610000F2A07F8013B01F101014FEA1213ECD800
:1056200002E100BFC55300102034002009470010DC
:105630000A99099851F8045B4078002DCDE90921B9
:10564000BCBF43F002036D42013202E742464B46C3
:10565000514608F10108D847D2E60A99002E51F8C0
:10566000047B18BF3246387808BF4FF0FF3200285D
:1056700000F07B83BC18A4463A4604E012F8014FC0
:10568000002C00F03F819445F8D16446E41B5A0594
:1056900040F12281B44228BF344613F0020300F0E7
:1056A00088820223CDE90A5142461D46464408E05D
:1056B0004B465146D84717F8010F08F1010810B1C1
:1056C00042464645F4D12B460B990A9D002B40F0EB
:1056D00041810A9194E6099948786C287FF4ECAEF0
:1056E0000A46887843F440730332E8E6099943F4A4
:1056F000007348780132E2E609994878682800F09A
:10570000038143F080030132D9E6672800F0D98095
:10571000472800F0DC80452800F0DB80CDE903530A
:105720000A9B0296073323F007031C464246F4E81F
:1057300002674B4651465846CDE900670A94FFF789
:1057400087FB80465CE6462808BF43F02003CDE98E
:1057500003530A9B0296073323F007031C46424675
:10576000F4E802674B4651465846CDE900670A9473
:10577000FFF70EF9804643E642464B465146252048
:1057800008F10108D8473BE60A9A990702F1040498
:1057900008F1010640F1C68010784B46424651465A
:1057A000D847012D88BFA84440F2BD8132464B4600
:1057B000514620200136D8474645F7D10A941FE6C6
:1057C0006F2800F0818040F24882782800F09081B4
:1057D0000A2723F01003BC4641E0002606EB8606AC
:1057E00000EB4600A0F1300611F8010FA0F13002E5
:1057F000092AF3D90A46099101322EE6DDE9092189
:1058000051F8046B9078023209920A91013226EA2B
:10581000E67622E623F0100013F4806240F02100C7
:105820003FF4E7AE12AB0B930B9B0690009308235B
:105830001020059300234246CDE9023001914B46EA
:10584000514658460496FEF7AFFF0A958046D7E5C5
:10585000582862D0622840F08F800227BC4613F49B
:10586000806000F0DD8023F00D0313F4007240F03F
:1058700081810A990F1D13F4807140F037825C0614
:105880000A9A40F13B811278002A40F04E8123F0C1
:105890001003002800F04981114612AA0B92CDE9AD
:1058A0000553CDE903C601910B9B424600930023AB
:1058B0005146029358464B46FEF776FF0A978046BC
:1058C0009EE543F4006329E70827BC46C7E743F495
:1058D000006343F0200321E713F0020300F08E8100
:1058E00002230A951E460D4642464B465146D8476E
:1058F00017F8010F08F101080028F5D129463346B1
:105900000A9DE3E6D41BC2E60A46887843F0C0034A
:105910000332D4E50446804646E6102743F02003D0
:10592000BC469CE7012D40F2F880464608F1FF375F
:105930002F4432464B46514620200136D847BE42BE
:10594000F7D10A9B3246187851464B46D847A844AF
:105950000A9455E54646A5427FF6BBAEA844A8EB9F
:1059600004080C4632464B46514620200136D847A3
:105970004645F7D12146ACE613F4806200F0BB80C7
:105980004FF4806223F0110C1CF400770A9B4AD17B
:105990001CF4807003F1040440F034811CF0400FCB
:1059A00040F0A3801CF0800F00F0D381B3F9001009
:1059B00081EAE177A7EBE177BFB2CB0F002900F0D6
:1059C00056813A4612A90F46DFF8D8E30B910A93A5
:1059D0000C9501E020280FD01546AEFB0213DB0822
:1059E00003EB8301A2EB41013031092D1A4600F18E
:1059F000010007F8011BEDD80A9B0C9DCDE9055C61
:105A0000CDE9010304960B9B424600930A235146BD
:105A1000039358464B46FEF7C7FE0A948046EFE4D0
:105A200023F00C0321E7073323F007031946084648
:105A30005B6850F8081BDF0F0A9051EA030062D13F
:105A4000002A40F09F811346114612AACDE90C7539
:105A500000201546CDE90E68DFF848E30B9201E01F
:105A600020282DD05A1842F10002AEFB027828F00F
:105A7000030707EB9807D21B1E469B1A61F100072C
:105A80000C464FF0CC3101FB03F10EFB0711A3FBD9
:105A90000E731944052307F00108A8FB03389B186F
:105AA0000A2E03F130034FEA570774F1000405F89A
:105AB000013B00F1010047EAC1734FEA5101CFD227
:105AC000DDE90C75DDE90E680B9B424600930A2365
:105AD000CDE9055CCDE90107049603934B46514699
