:020000041000EA
:10000000002008205D0100101B0100101D010010E0
:100010001101001011010010110100101101001058
:100020001901001019010010190100101F01001022
:10003000110100101901001021010010230100100E
:100040001101001011010010110100101101001028
:100050001101001011010010110100101101001018
:100060001101001011010010110100101101001008
:1000700011010010110100101101001011010010F8
:1000800011010010110100101101001011010010E8
:1000900011010010110100101101001011010010D8
:1000A00011010010110100101101001011010010C8
:1000B00011010010110100101101001011010010B8
:1000C00011010010110100101101001011010010A8
:1000D0001101001011010010110100101101001098
:1000E0001101001011010010110100101101001088
:1000F0001101001011010010110100101101001078
:100100001101001011010010110100101101001067
:10011000EFF30580103800BE00BE00BE00BE00BE7A
:1001200000BE00BEF2EB8871A4240510C82405109F
:10013000A001001090A31AE7D3DEFFFF42012110B7
:10014000FF010000F8440500793512AB4FF00000C4
:100150001E49086006C881F3088810474FF05040D8
:10016000006810B14FF00000F2E70DA40ECC00299A
:1001700002D000F012F8F9E71549164A002000E015
:1001800001C19142FCD11449884714498847144958
:10019000884700BEFDE701C901C29A42FBD3704700
:1001A000C8240510200100208822002030460510B8
:1001B000000008200000082030460510001008202C
:1001C00000100820000000007047000008ED00E06B
:1001D0008822002034F90020BD45001035020010AF
:1001E000B5450010F8B500BF064B0749C91A89107C
:1001F00048BF0131491003D0044B0BB101481847E7
:10020000704700BF882200208822002000000000E4
:1002100008B5054B1BB105490548AFF30080BDE8A3
:100220000840FFF7E1BF00BF0000000070B70020EA
:10023000D084011070B58AB004F0E8FA00F0AAFC8E
:100240000F2002F031FA022001F088FE5B4806AB75
:1002500002AA01A902F014F918B95849584800F047
:10026000DFFD069ADDE9010102F048F840F6C4100E
:1002700001F074FE534807F01DFA5349534806F045
:1002800033FF4FF480324FF4F833CDE902234FF4BB
:10029000402300244FF4000C0493C60100F118031E
:1002A000059446EA03360DF1180E02AB05460FCB56
:1002B0008EE80F00079602AE9EE80F0086E80F005A
:1002C000CDF814C020460621013400F0DBFC0E2CD2
:1002D000F8D1059B062123F0E05323F4787343F013
:1002E000806343F4E073204605930F2600F0CAFCB8
:1002F0004FF0000343EC4460122443EC44400022DE
:100300000121304600F0DCFC00222046012100F0F3
:10031000D7FC0621304600F0B5FC2046062100F04F
:10032000B1FC039C4FF4804224F0F85444F0706414
:100330000394049C00216FF31D4444F08474244B07
:100340002248049406F04AFF204C616811F4803181
:10035000FBD144F2FF0E48F2A00C4AF247062A46AF
:100360004FF48035C4F810E002ABC4F8D8C0174889
:10037000C4F8D860029506F0E1FF4FF00041236811
:10038000144A43F0010323602368134823F0010358
:100390002360C2F8D010C2F8D010236843F00103E4
:1003A000236004F077FA00F001FC00F0B1FA00F0ED
:1003B00023FC0021054818F01BF8FAE790D0030051
:1003C000D084011015070010F4A601100000205081
:1003D000FFFF04000010205004850110AAB938B5B1
:1003E0000D46A9B10D48144604F054FA2421012009
:1003F00002F002FD014670B1284609F0C3FC284610
:10040000074909F0C3FC204638BD6FF0050070476E
:100410006FF0050038BD4FF0FF3038BD4485011046
:10042000250400102DE9F04704460E4690B0002A3E
:1004300000F0CA8015460846118909F0B7F92778F7
:10044000D5F80490B5F80A806FB1012F00F0CB8089
:10045000D4E901934B4543D2284608F055FD0020CE
:1004600010B0BDE8F087B8F10F0FF1D94B4653F843
:10047000040B60605A68D9F804109B68E16022613F
:100480006361277602F09CFCE061002800F0BE80EA
:1004900001231021A760A8F110082370B8F1000F04
:1004A00040F0A4806368BB42D6D8022327465C484C
:1004B00007F80C3B04F0EEF939465A4804F06AFAA2
:1004C0003A4663686846584904F01AF80123402206
:1004D000694630460BF090FE30460CF053FEB7E70D
:1004E00009F1150A504602F06BFC504B06461860A5
:1004F0004A46E16904F10C07153017F07DFD3846D6
:1005000017F0F0FD06F1080802463946404617F09C
:1005100073FD0022464B19F1110FC3F800A0C6F875
:1005200004A0327512D04FF0FF3209F11400DFF849
:100530003CC13044F11C11F8013F5340DBB25CF880
:100540002330884283EA1222F5D1D243DFF820918A
:100550003848C9F8002004F09DF93146364804F0C7
:1005600019FA311D344804F015FAD9F8001033484F
:1005700004F010FA6168324804F00CFA3946314848
:1005800004F008FA304804F085F900222F4B304877
:100590001A60D9F80030336004F07CF931682748DC
:1005A00004F0F8F971682B4804F0F4F94146254845
:1005B00004F0F0F9244804F06DF90122264B274895
:1005C0001A7004F067F947E7254804F063F934B17D
:1005D000E06908B102F030FC204602F02DFC304604
:1005E00009F0CAFF3BE70021A76857E7E0694246E8
:1005F0004944384417F000FDA3681A4808EB03018A
:100600006268A16004F0C6F9A7684BE7164804F0D9
:1006100041F9304609F0B0FF4FF0FF3020E700BF4E
:10062000B8850110E885011030A70110882C002042
:10063000902C002004860110588601107486011049
:1006400090860110AC860110C886011090B700207A
:10065000108701106487011017F9002080870110AE
:10066000588501109885011070850110FC2C002020
:100670008C2C002091B14FF0FF328B18084900EB11
:10068000020C18441CF8013F5340DBB251F82330F0
:10069000604583EA1222F5D1D0437047084670477F
:1006A000FC2C002010B509F0B5FD08B341F2920210
:1006B0001249044608F096FF70B9FF21204608F061
:1006C000F9FF80B10E4909F06FFBBDE8104041F21F
:1006D00092010C4804F05EB941F29201BDE810406D
:1006E000094804F057B90948BDE8104004F0D2B8F1
:1006F0000748BDE8104004F0CDB800BF10AB0110B2
:10070000DD030010F8870110C8870110E48701108D
:10071000B087011008B52F4804F0BCF800212E481E
:100720002E4A41F3000341F3400C134083EA510386
:100730000CEA020C8CEA530C43F340034CF3400EDA
:10074000134083EA5C030EEA020E8EEA530E43F373
:1007500040034EF3400C134083EA5E030CEA020CA4
:100760008CEA530C43F3400313404CF3400E83EAEE
:100770005C0301310EEA020C8CEA5303B1F5807F71
:1007800040F8043FCDD111F011FBD0B911F0B4FA0B
:10079000134804F07FF847F23053124A12491348C5
:1007A00011F0B6FA88B9124B1868043010F050FFF7
:1007B0000146104804F0EEF8FFF774FF11F0ECFA70
:1007C000FCE70D4804F066F8E0E70C4804F062F836
:1007D000E9E700BF1C880110F82C00202083B8ED49
:1007E00058880110040040007088011080880110B2
:1007F00060B70020A88801103C8801109088011083
:1008000038B502244FF0010C364A374B11681B688B
:100810000C63486808330CFA03F2024019D151F80E
:1008200023301B0E582B1ED00BD8122B13D0142B99
:1008300022D12E4B197800293DD02D491A700A700B
:1008400038BD592B07D0F02B16D1284B83F800C0A8
:1008500038BD0C6338BD254B1A7842B300222549B8
:100860001A700A7038BD214C2378EBB9224A1378EC
:1008700083F00103137038BD1C4C2278A2B91C4AC6
:1008800003F07F031278D2B11C4AD55C65B12846CB
:1008900003F0BEFF1A4A1B4B15611A7822B91321C7
:1008A00042EC401001221A700023237038BD01224F
:1008B000104B1A7038BD0E4B83F800C038BD0D4A7E
:1008C000127812B1104AD55CE0E70B4A0F49127852
:1008D000CD5C002ADAD0A5F16103192BD6D8203DD2
:1008E000EDB2D4E7B8B70020C0B7002029F9002046
:1008F0001BF900202BF9002019F900201C230510FA
:100900000000205018F900209C2305101C2405101D
:1009100012232DE9F04F8C4A8C4D8D488DB08D49B6
:100920001360286006F0E0FB0027DFF85C820121FD
:10093000C8F80000286806F0BBFB4FF4402300977E
:10094000D8F80060CDE906374FEAC61E06F10C0361
:100950004EEA033E4FF480324FF4F833CDE90423DE
:10096000DFF828A20DF1200C04AC0290CAF80000B8
:1009700094E80F008CE80F00D5F80090CDF824E043
:10098000DFF80CB29CE80F0084E80F00022310226D
:1009900002994846CDF81CB006F08AFC09F12F41B7
:1009A00001F560014FEA115B0BF1060B5FFA8BFB5F
:1009B0001020594600F066F95946112000F062F9FE
:1009C0003A460121102000F07BF93A46012111201E
:1009D00000F076F9069A604B0520134043F000437F
:1009E00043F40503069301F083FC07EE100A9FED24
:1009F0005B6AB8EE477ADFED5A6AC7EE067A77EEA1
:100A0000A67ABCEEE77A17EE103A9AB2002A00F006
:100A1000998007EE102AB8EE477ADFED526A77EE3A
:100A2000C77A67EEA67AFCEEE77ACDED037A9DF8F9
:100A30000C301B0243EA024304932346012432464E
:100A40000299484606F07AFCD8F800302A6803F08C
:100A50001F0EDAF80030D2F8008004FA03F928EA11
:100A60000908C2F8008003EB430703F104080833C8
:100A700002F5005904FA03F304FA08F8C9F80080F3
:100A80004FF00046C9F80030022302EBC70000F522
:100A9000865002EBC707C7F8D8E00661066113630A
:100AA000294B4FF4007B1F4602F5055CCCF83CB0A7
:100AB00018682D4900F00EFB2146386800F0C8FA8E
:100AC0002A68DAF80030116804FA03F30B43204671
:100AD000136001F043FADAF800202B6802EB4202BF
:100AE00003EBC20303F586531E6113201E6100F061
:100AF00073F9132744EC447000222146384600F075
:100B0000DFF81A4803F0C6FE44EC40700022DAF821
:100B100000102B6801EB410103EBC10303F5865381
:100B20001E61134813491E61134B0A701A70134952
:100B3000134B027013480A701A700DB0BDE8F04FE5
:100B400003F0A8BE134675E7BCB70020B8B7002075
:100B5000000030504CA70110FF3F0A3E00780248C9
:100B60000000003B0000804301080010D8880110FD
:100B700019F900201BF900202BF9002029F9002089
:100B800018F90020EC880110B4B70020C0B700208D
:100B90000002080813234FF0010242EC403000220B
:100BA000014B1A70704700BF18F900200022034B58
:100BB00083F8002183F80121704700BFE44300203F
:100BC0000120704701289DBF4FF42E72024B02FB9B
:100BD00000300020704700BF10190020012070472E
:100BE00001289DBF034B00EB001003EB80000020A9
:100BF000704700BFC81B002038B516F01DFC002050
:100C0000FFF7E0FF0A4D0446286060B1D0F8A43237
:100C10009847084803F03EFE4FF400732C46C5F891
:100C20000432204638BD044803F034FEF9E700BF23
:100C30007CF60020008901101889011038B50E4D8E
:100C40002C6814B10C4C204638BD16F0F5FB20463C
:100C5000FFF7B8FF0446286050B1D0F8A432984797
:100C6000064803F017FE4FF40073C5F80432E9E7B5
:100C7000034803F00FFEE6E77CF600200089011030
:100C80001889011010B44FF480740C4B53F82020D5
:100C900003EB8003C00082F0400200F1804003F5C6
:100CA000805C02F0C00200F5203003F54053CCF820
:100CB000002041601C605DF8044B704704800340D5
:100CC00010B4084CC90041EA820154F8202004EB1A
:100CD0008003514003F5805301F00C015DF8044B93
:100CE0001960704704800340064B022203EB800327
:100CF00019B103F500531A60704703F540531A60A9
:100D0000704700BF04800340064B53F8202003EBDC
:100D1000800382EA011202F0300203F580531A6068
:100D2000704700BF048003404FF050431B6893B1ED
:100D30000C4B4FEAD00C00F00700800081400A48BD
:100D400003EB8C030CF18C0C40F82C102AB103F54A
:100D5000005319607047054BEBE703F540531960EA
:100D6000704700BF908202400080024048820240EB
:100D70002DE9F0414FF050480D4FD8F8003016469D
:100D800057F82320044602420D4609D11443294650
:100D9000324647F823401520BDE8F04100F0CAB9BB
:100DA00001F086FDD8F8003057F82320EEE700BFA9
:100DB00060F6002010B50446152000F0AFFA4FF0A1
:100DC0005043044A196852F8213023EA040342F8D8
:100DD000213010BD60F6002030B44FF0000343EC2A
:100DE000440043EC400005254FF480740B4BC200D7
:100DF00053F8201003EB800081F0400102F18043A2
:100E000003F5203301F0C00200F5805100F5405099
:100E10000A605D60046030BC704700BF048003401E
:100E20000FB400B583B0049C074803F033FD3CB118
:100E300005A92046019103F08DFB044803F02AFD2B
:100E4000012003F09FFB00BF308901104089011091
:100E5000EFF3108072B6064BD3E8CF1F01220029B2
:100E6000FAD1C3E8412F0029F6D1BFF35F8F704755
:100E70007F2700200023034AC2E88F3F80F31088B9
:100E8000704700BF7F27002070B58646EFF31085BE
:100E900072B6124CD4E8CF6F0120002EFAD1C4E80C
:100EA000460F002EF6D1BFF35F8F4FF0010CC8083C
:100EB00001F007030CFA03F31EF800C01CEA030656
:100EC00008D14CEA030C0EF800C0C4E88F6F85F31C
:100ED000108870BD1046FFF7A3FF00BF7F270020DA
:100EE000F8B5EFF3108772B61C4ED6E8CF5F012439
:100EF000002DFAD1C6E8454F002DF6D1BFF35F8F24
:100F00009A421BD8012502E00132934222D3D40831
:100F100010F804E002F0070C05FA0CFC1EEA0C0FB6
:100F2000F2D14EEA0C0E00F804E010460023C6E8A9
:100F30008F3F87F31088984207DBF8BD0023C6E88F
:100F40008F3F87F310884FF0FF300029F5D00698C7
:100F5000FFF766FF4FF0FF30E8E700BF7F27002074
:100F600000B5EFF3108E72B6104BD3E8CFCF01224D
:100F7000BCF1000FF9D1C3E84C2FBCF1000FF4D144
:100F8000BFF35F8F01224FEAD10C01F0070102FA93
:100F900001F110F80C2022EA010200F80C200022D6
:100FA000C3E88F2F8EF310885DF804FB7F270020A5
:100FB000044A1078431CDBB2182B28BF102313708F
:100FC000704700BF0C1C002010B5054C82B00146D4
:100FD0001F23182200940348FFF782FF02B010BDC0
:100FE00044890110C82C00204FF0E022936843F0A0
:100FF00000539360704700BF0021044B03F12002AF
:10100000C3E88F1F01339342FAD170477427002041
:101010004FF0E0234FF08032C3F80024C3F80424DB
:10102000C3F80824C3F80C24C3F81024C3F814240C
:10103000C3F81824C3F81C24C3F82024C3F82424BC
:10104000C3F82824C3F82C24C3F8302462B67047B0
:10105000012300F01F029340400941B1800000F1DC
:10106000604000F56140C0F8803103607047024A7B
:10107000203042F82030704700E100E00123064AAA
:10108000410952F8212000F01F0003FA00F010403F
:10109000003818BF0120704700E100E00122430939
:1010A000034900F01F008240403341F8232070477D
:1010B00000E100E0054A10309268054B52F820002C
:1010C000C01A2F288CBF00200120704700ED00E0DF
:1010D000101C0020F8B50D46EFF3108772B6124EC3
:1010E000D6E8CF2F0123002AFAD1C6E8423F002AD2
:1010F000F6D1BFF35F8F0D4B00F110049B680C4AD3
:1011000053F82430934203D0994201D001F0D0FB30
:10111000064B9B6843F82450BFF35F8F0023C6E85B
:101120008F3F87F31088F8BD7D27002000ED00E099
:10113000110100102DE9F04F81468B46164683B011
:10114000EFF3108372B6DFF8D0A10093DAE8CF1F77
:1011500001230029FAD1CAE8413F0029F6D1BFF3A3
:101160005F8F664B93F90040002CC0F2A080644D65
:1011700004EB440705EB870898F8061009F11009FD
:101180001970604BBF009B6853F829006300411B36
:101190002F292FD95C49884240F0A4801C445B4B26
:1011A00002372F44043BDB1BC3F34A036FEAC343FC
:1011B0004FF421416FEAD34325F8241005EB840452
:1011C00063804BF60153A380FF2348F00100E671D2
:1011D000C4F808B0A3714B4B9B6843F82900BFF3D8
:1011E0005F8F0023CAE88F3F009B83F3108803B012
:1011F000BDE8F08F20F0010E9EF80710B1422ED806
:101200004FF42143EB53414BB91C2944043B0437B1
:101210005B1A2F44AEF10401C91BC1F34A043C49D7
:10122000C3F34A030B432143A8F804103949A8F833
:1012300002304AF6AA2073465B1B5B415843000DFF
:1012400088F8076088F80600C8F808B048F0010080
:10125000CEF80010BFE7D179B1422ED996469EF95B
:1012600006C00CEB4C02BCF1000F05EB8202F2DA77
:101270004BF601510EF10402A8F10407BF1AC7F39F
:101280004A076FEAC7476FEAD7478EF8064003EB75
:101290000408204C05EB8803AEF8047045F828409C
:1012A000998083F806C0DE71C3F808B093E701F0B7
:1012B000FFFA124B93F9004059E7724632F8041FC7
:1012C000490514D44915023102EB410101916FF037
:1012D0000701C91B019F491B3944C1F34A0141F46D
:1012E0006041C9E7019301F0E3FA019B56E701F57C
:1012F000FF1101F5FF511F31E4E700BF22F9002083
:10130000101C002000ED00E011010010401C002026
:1013100000E0FFFF014880477D2700202DE9F04FC6
:1013200083B0EFF3108A72B6714ED6E8CF2F012347
:10133000002AFAD1C6E8423F002AF6D1BFF35F8FF8
:101340006C4B00F110089B686B4A53F8285095428B
:1013500045D08D420C4650D0684FEB1B2F2B3ED80A
:1013600001214FEA50194FEA890909F1604909F54D
:10137000614900F01F0301FA03F0D9F80030C9F801
:10138000800000EA030BBFF35F8FEFF30581C9B262
:10139000002934D0884505D0CDE9001001F088FA45
:1013A000DDE9001025F0010EDEF808C0644505D126
:1013B00089E0D3F808C0644531D09E469EF90620E6
:1013C00002EB4203002A07EB8303F2DA644561D0A3
:1013D000BBF1000F20D0C9F88001C9F80000454BCF
:1013E0009B6843F82850BFF35F8F0023C6E88F3F08
:1013F0008AF3108803B0BDE8F08F1546EFE725F0BB
:10140000010EDEF808C06445D8D19EF90640734647
:10141000002C08DA154646E0C9F88000DFE793F9AA
:101420000640002C37DB04EB440C07EB8C0C9CF8DB
:101430000710DCF80820D9719A609CF90620610039
:10144000002A9A713DDBBCF804E05FEA4E5E05D5E8
:101450000EF5FF1E0EF5FF5E0EF11F0E6FF0070C6E
:101460000A194FEA6E5E920002EB4E0208323A44CD
:10147000ACEB030C6244C2F34A026FEAC2426FEA69
:10148000D2429A801E4B21441A7807EB81011C70CE
:101490008A719DE77346D9B9FF228EF806204BF674
:1014A0000152AEF80420164C4AF6AA2294F800C065
:1014B0001946C91B49414A43120D83F806C02270E0
:1014C00086E7104ADDE79EF906407346002CAADA4B
:1014D0000D4A0E4CD21A083AC2F30A316FEA015192
:1014E0006FEA115144EA5202DA80998070E700BF36
:1014F0007D27002000ED00E011010010101C0020ED
:1015000022F9002001BDFFFF4A1C002000F8FFFF68
:101510004FF0FF0C20F0030303F1604303F5644335
:1015200000F003001A68C0000CFA00FC22EA0C026A
:1015300081400A431A607047F0B5EFF30585EDB2BC
:10154000EFF3108C72B62649D1E8CF2F0123002A81
:10155000FAD1C1E8423F002AF6D1BFF35F8F214E96
:1015600040F0010EB4684AF6AA2354F825701E4ACA
:101570000446A41A644163431B0D77455BB21BD03C
:1015800092F906409C421CD092F912409C4223D012
:1015900092F91E409C4221D092F92A409C4208BFF9
:1015A00003240FD0114A0024157813708571C1E807
:1015B0008F4F8CF31088F0BDB2680D4C42F8254077
:1015C000F0E7002404EB440402EB8402FF2494714E
:1015D0004BF601549480E5E70124F3E70224F1E798
:1015E0007D27002000ED00E0101C002022F90020E3
:1015F0001101001001460248C1F13301FFF7B0BCF0
:1016000030F9002010B5074C82B0014605230022B6
:1016100000940548FFF764FC0028A8BFC0F1330020
:1016200002B010BD6089011030F9002070B5044689
:101630000E461546FFF7BCFC0146204600F006F8B2
:10164000A680E580BFF35F8F70BD00BF014B0B44E8
:10165000036070477427002070B5104C104DAC42E9
:101660000ED2FF26236863B1FFF7A2FC0146204695
:10167000FFF7ECFFA680BFF35F8F0834AC42F1D3D5
:1016800070BDFFF795FC01462046FFF7DFFF26718E
:10169000BFF35F8F0834AC42E4D370BD68220020F2
:1016A0008822002010B50446FFF782FC0146204640
:1016B000FFF7CCFFFF232371BFF35F8F10BD00BF87
:1016C00010B50446FFF774FC01462046FFF7BEFF45
:1016D000FF23A380BFF35F8F10BD00BF10B504468A
:1016E0000120FFF771FC034B03442360BFF35F8FBE
:1016F00010BD00BF74270020024B0B440360BFF3F2
:101700005F8F7047742700200D4B1A68EFF310812C
:1017100072B6D2E8CFCF0120BCF1000FF9D1C2E8F8
:101720004C0FBCF1000FF4D1BFF35F8F00221B6898
:10173000C3E88F2F81F3108840BF0020002170473D
:1017400088F80020000000002DE9F04F2DED028BFD
:1017500085B0EFF30583DBB2103B9A0818BF012276
:101760004FF0010103F0030B18BFAF4DAF4B08BFA3
:10177000AF4D0BEB820253F8226001FA0BF205F534
:1017800041539FEDA78B01925A602FE0B3881C0450
:1017900040F19380B379002B40F0DD80B6F908204A
:1017A000002AC0F21E81736902EB420203EBC203FE
:1017B000D3E90247B7F1FF3F08BFB4F1FF3F0ED0B6
:1017C00005EB8B01AB6A0A69D21AE31A934205D37F
:1017D00001232A6A03FA0BF3134200D10C61284655
:1017E00000F0CCFCA042B941C0F2FB80B6F9083051
:1017F000019A002B0093EA63C8DBD6F8148003EB50
:101800004309284608EBC907D7E9024A00F0B6FCAD
:10181000A04271EB0A01B9DBBAF1000FC0F2C3803C
:10182000D7E90431834A934200F0ED807A88B6F913
:10183000080092B242EA0040984702460B4652EA3C
:10184000030100F0B080002B80F2D180B4EB020ED7
:101850006AEB030A38F93930C7E902EA002B95DB55
:10186000716903EB430201EBC202D2E90270BE458B
:101870007AEB000C4FEA430288DBB4462CF8083FB1
:1018800006E003EB430001EBC0005A00D0E9027010
:10189000BE451A447AEB000001EBC20404DB31F9C7
:1018A0003230A446002BECDA28F83930009BACF833
:1018B0000030B3881C043FF56DAF3369EFF310823D
:1018C00072B6D3E8CF0F01210028FAD1C3E8401F38
:1018D0000028F6D1BFF35F8F4FF6FF74B088002366
:1018E000316900B2B480C1E88F3F82F3108898421A
:1018F000FFF650AF0746A946746906F1080807EBE2
:10190000470E04EBCE03D3E90250B6F90830C446C3
:10191000002B13DBB246009704E034F936309446CE
:10192000002B09DB03EB430604EBC602D2E902718C
:10193000BD4270EB0101F0DA5646009FACF8007032
:1019400034F93E7024F83E30002FD8DAB3794D4692
:10195000002B3FF423AF0023B371B6F9083006F132
:101960000808581C3DD01A46776903E08046591C88
:101970003FF416AF03EB430107EBC100B0F802C020
:101980001C461CF4004F9E4637F93130EED094428D
:1019900080ED028B05D0A8F80030328927F831207D
:1019A00034817246E3E738F8393033813369EFF335
:1019B000108272B6D3E8CF0F01210028FAD1C3E814
:1019C000401F0028F6D1BFF35F8F7388316928F874
:1019D0003930009B73800023C1E88F3F82F3108869
:1019E000D4E640BF05B0BDEC028BBDE8F08F2846C1
:1019F000CDE9022300F0C2FB029A039B10EB020E1A
:101A000043EB010A26E708460B6902919847002834
:101A1000C9D00299D1E9002311E700BFAFF30080DC
:101A2000FFFFFFFFFFFFFFFF00800B4094B7002088
:101A300000000B40491700102DE9F84F364C25697E
:101A40002DB1BDE8F84F0A213448FFF7FFBDDFF89C
:101A5000E4800321404600F05DFB0326C4F80C80BF
:101A6000FFF7A6FA4FF0504C2D4B2670034423612C
:101A7000DCF800300F216370636961801D834FF0D3
:101A80000405A3F878504FF00505A3F890504FF0E7
:101A90000605A3F8A8504FF007050E214FF6FF7278
:101AA00008274FF00A0EA3F8C0504FF001094FF07D
:101AB0000C0C4FF0020B4FF0090A0D204FF00B05F4
:101AC000A3F868111749A280A3F808E1A160A3F860
:101AD00048B0A3F8F0A0A3F82051A3F838C1A3F8A8
:101AE0005001A3F83090A3F86060A3F8D8701A8072
:101AF0000D4B3046C8F820700C49DC60FFF7EAFA5D
:101B000049463046FFF7A4FA094B0A211F640348EF
:101B1000BDE8F84FFFF79ABD581C002088F8002058
:101B200074270020FFFF100094B700204917001011
:101B300000200B4000000B4000487047581C00205C
:101B40002DE9F041054618200C4601F039F906460A
:101B5000002843D01821204601F04EF90121706180
:101B6000284600F0F5FAF5600746FFF721FA4FF036
:101B700050414FF6FF731B4A3770024432610A68C6
:101B800033817270A2B27281013AB38072805CB10B
:101B9000002204EB44047069A10020F812300C32DA
:101BA000013391429BB2F8D10F4C4FF001082C1B2E
:101BB000B4FA84F4640907EB84040C4B08FA07F7C1
:101BC00020460B492F6243F8246005F50155FFF7C5
:101BD00081FA41462046FFF73BFA2F603046BDE8C8
:101BE000F08100BF7427002000800B4094B70020D4
:101BF000491700101C4B984234D02DE9F041C568BC
:101C0000DFF870800121A5EB0806B6FA86F60446D7
:101C10000778760901FA07F305F5415207EB8606C6
:101C20002B6230461360FFF713FA30460F49FFF777
:101C300075FB3946284600F07FFAE3680025A3EBE0
:101C40000802B2FA82F2237809495209606903EB6B
:101C5000820341F8235001F0EFF82046BDE8F0413F
:101C600001F0EAB8704700BF581C00204917001067
:101C700094B7002000800B40F8B59DF82050044632
:101C800017461E4635B900F081FA874266EB01011E
:101C900000295CDB2169EFF3108372B6D1E8CF0F26
:101CA00001220028FAD1C1E8402F0028F6D1BFF365
:101CB0005F8FB4F90220656902EB4201002A4FEA06
:101CC000C10C206905EBC10139DB35F80CE0A4F843
:101CD00002E04FF0000EC0E88FEF83F310884888D1
:101CE000069B0130C0F30E00012838BF01200B61B4
:101CF000079B48804B61C1E9027640EA02402369B4
:101D0000EFF3108172B6D3E8CF7F0126002FFAD10E
:101D1000C3E8476F002FF6D1BFF35F8FA38825F884
:101D20000C30A2802369C3E88FEF81F31088012271
:101D3000E368217803F501538A405A60F8BD002218
:101D4000C0E88F2F83F310884FF0FF30F8BD28468E
:101D5000F8BD00BF0146F0B50069EFF3108772B619
:101D6000D0E8CF5F0124002DFAD1C0E8454F002D07
:101D7000F6D1BFF35F8FB1F902E04C690EEB4E0C68
:101D8000BEF1000F4FEACC05086904EBCC0C3CDB3C
:101D9000665B4E800026C0E88F6F87F31088BCF822
:101DA0000200CCE902230130C0F30E00012838BF45
:101DB0000120059BACF80200CCF81030069B40EAED
:101DC0000E40CCF814300B69EFF3108272B6D3E8F2
:101DD000CFCF0127BCF1000FF9D1C3E84C7FBCF194
:101DE000000FF4D1BFF35F8F8B886353A1F804E039
:101DF0000B69C3E88F6F82F310880122CB680978E2
:101E000003F501538A405A60F0BD0023C0E88F3FBC
:101E100087F310884FF0FF30F0BD00BF03464089C4
:101E2000B0EB214F37DD58690A1402EB420210B5BE
:101E300000EBC2001C69EFF3108C72B6D4E8CFEF50
:101E40000122BEF1000FF9D1C4E84E2FBEF1000F00
:101E5000F4D1BFF35F8F428889B292B28A4207D031
:101E600000221B69C3E88F2F8CF31088002010BD5F
:101E700042F4004242800121002218699971C0E8B1
:101E80008F2F8CF310881C78DA68084602F501530E
:101E9000A140596010BD0020704700BF40787047D6
:101EA0002DE9F041851F41F1FF37A84271EB07038F
:101EB00038BF002582B038BF2F4604460E4600F0DA
:101EC00065F9281A67EB010C01287CF1000C06DA91
:101ED0002046314602B0BDE8F04100F08FB900F075
:101EE00055F9854267EB010100290ADB0021174BF8
:101EF0002A46009316483B460191FFF72BFF01301D
:101F0000E6D04FF0000C134A1349536A9F4204D89D
:101F1000906AA842DCD29F42DAD10B68EFF31080BE
:101F200072B6D3E8CF8F5FF0010EB8F1000FF8D191
:101F3000C3E848EFB8F1000FF3D1BFF35F8F0B6830
:101F4000C3E88FCF80F3108820BFDEE709170010A9
:101F5000581C002000000B4088F800202DE9F041BB
:101F600082B0064600F012F94FF47A7304464FF03F
:101F7000FF306FF00042E6FB0341A04272EB010329
:101F80003ABF044615460D46A61F45F1FF37B44239
:101F900075EB07033CBF0026374600F0F7F8301A10
:101FA00067EB0101012871F1000106DA204629469C
:101FB00002B0BDE8F04100F021B900F0E7F8864238
:101FC00067EB010100290ADB0021174B3246009321
:101FD00016483B460191FFF7BDFE0130E6D04FF0B9
:101FE000000C134A1349536A9F4204D8906AB042C6
:101FF000DCD29F42DAD10B68EFF3108072B6D3E8DF
:10200000CF8F5FF0010EB8F1000FF8D1C3E848EFB1
:10201000B8F1000FF3D1BFF35F8F0B68C3E88FCF28
:1020200080F3108820BFDEE709170010581C00203D
:1020300000000B4088F800202DE9F04306460D46CD
:1020400083B0EFF30584E4B23CB12D4B5A6AAA4247
:102050001CD2002003B0BDE8F0832A4FD7F80C90C3
:1020600097F80080484600F089F808F1040859F80C
:1020700028301B1A301A65EB0101984271F10001FA
:1020800010DB20BF1E4B5A6AAA42E2D314BF0124C0
:1020900000249B6AB34234BF204644F0010003B0E1
:1020A000BDE8F08300F072F8864265EB010100297B
:1020B00014DB154B3846CDE9003432462B46FFF78A
:1020C00049FE011E0ADD0E4B5A6AAA4216D39B6ACC
:1020D000B34211D30B48FFF7A1FEB6E7084B5C6A89
:1020E000AC42B6D3641B18BF01249B6AB34234BF11
:1020F000204644F00100ADE7AA42EBD120BFE9E75A
:1021000000000B40581C00200917001000487047C1
:1021100000000B4010B4054B054C064AA04214BF0A
:102120001846581C5DF8044BFEF7AEBECC2C0020C0
:1021300000800B407C890110034B044A904214BF7D
:102140001846581CFEF70CBFCC2C002000800B401A
:1021500010B5074A074B084C82B0A04214BF104686
:10216000501C009300220323FEF7BAFE02B010BDFC
:10217000CC2C0020A089011000800B400346416A4E
:102180000A46986A596A8A42FAD17047034B596ADB
:102190000A46986A596A9142FAD1704700000B408A
:1021A00030B4154A536A9C46946A536A6345FAD11F
:1021B000021959414FF0000528BF01250E4B5B6AFB
:1021C000B5B15A1C08BF1A4608D04FF0FF310A4675
:1021D0000948436A8B42FCD38B4207D1064902E08F
:1021E000486A984202D1886A9042F9D330BC70475D
:1021F0009942EDD8F0E700BF00000B40074A536A50
:102200009942FCD8994207D1044B02E05A6A9142A4
:1022100002D19A6A9042F9D8704700BF00000B4083
:1022200000EB400C4FEA8C0C0CF1804C0CF5803C20
:10223000F0B51646DCF80420051FB2F5803F38BF24
:102240004FF48032EDB238BFCCF80420012D2AD9EA
:102250004FF40067254C0CF54052176054F82020CD
:10226000B2B9DCF80020012D82EA461202F0E00249
:102270000CF5805632602AD94FF4006144F82030C2
:102280004FF480330CF500521160CCF80430F0BDEF
:102290006769B7FBF2FE0EF1010E0EEB4E0EBEF1BA
:1022A000030EFCD2DDE70129D2D103240CF5405204
:1022B0001460DCF80820D207FBD5DCF800200B4CBA
:1022C00082EA461202F0E0020CF5805632600122EA
:1022D000DCF800504D4005F00305356002FA01F1CD
:1022E000DCF808200A42FBD0C6E700BFD42C00204F
:1022F000014B53F820007047D42C0020584B2DE997
:10230000F0431C6C1746B4F5803F38BF4FF4803261
:1023100083B038BF1A64032280460E46514B504D9D
:10232000DA636C6CE307FCD5EB6B4F4A83F0200358
:1023300003F0E003D363EB6B494D83F0010303F03B
:102340000303D3636C6CA407FCD54FF400624FF415
:102350008039464B464CDA63464B42466361012165
:102360003346C5F840904448009700F057F94FF4C1
:1023700000616B6B07FB06F64B4538BFC5F8349020
:10238000384B2269B8FBF6F619633AB16369B3FBBF
:10239000F2F3013303EB4303033BFDD23049324AEE
:1023A0000B6B03F0E00313630B6B83F0020303F08A
:1023B000030313638B6B5807FCD54FF400654FF490
:1023C00080332A4A15632D4A4B6322610A6C9A4274
:1023D0004FF0030238BF0B64224B2149DA634B6C88
:1023E000DA07FCD5CB6B204A03F0E003D363CB6B59
:1023F0001B4983F0010303F00303D3634B6C9B077A
:10240000FCD54FF480334FF40065184A6661D563FC
:102410000B64CA6C9A4238BFCB644FF40061114B15
:10242000A26999643AB16369B3FBF2F3013303EB38
:102430004303033BFDD24FF400604FF48031084A60
:10244000094D936C83F0400303F0E003AB64074B4A
:10245000084DA5619864D16403B0BDE8F08300BF66
:102460000000014000300140001001400020014008
:10247000D42C0020006CDC0200000540001BB700DB
:102480002DE9F04F4FF4A078994685B0CDE90212BE
:102490005F4CDFF884A154450AD908F1FF38A4F550
:1024A0003B54B8F10F0FA4F12004F4D1002069E0EF
:1024B000072304F53722019403FB03F402F5D872D5
:1024C000B2FBF4FE70454FF0010C4FF002074FF0E5
:1024D00003064FF004054FF005013FD0B3F1010EA4
:1024E00000F094800EFB03F4B2FBF4FB58454CD093
:1024F00019B301FB03F4B2FBF4FB58454FD0E5B12F
:1025000005FB03F4B2FBF4FB584553D0AEB106FB18
:1025100003F4B2FBF4FB584557D077B107FB03F443
:10252000B2FBF4FB58455BD0BCF1000F05D00CFBAF
:1025300003F4B2FBF4FB83455DD0734603FB03F465
:10254000B2FBF4FE704501F1FF3105F1FF3506F1F4
:10255000FF3607F1FF370CF1FF3CBFD104FB10241D
:10256000002CBBD19E464A46DDF808B0DDF80C9041
:102570000120284901FB08F1CBF80010C9F8003010
:10258000C2F800E005B0BDE8F08F04FB1024002C79
:10259000AED14A46DDF808B0DDF80C90E8E704FB60
:1025A0001024002CABD14A468E46DDF808B0DDF889
:1025B0000C90DDE704FB1024002CA7D14A46AE4660
:1025C000DDF808B0DDF80C90D2E704FB1024002CF5
:1025D000A3D14A46B646DDF808B0DDF80C90C7E74F
:1025E00004FB1024002C9FD14A46BE46DDF808B0FB
:1025F000DDF80C90BCE704FB1024002C9DD14A466A
:10260000E646DDF808B0DDF80C90B1E7019C44E740
:1026100050262F00001BB70050F80C0070B4039D2B
:1026200004682D0345EA03451B4B002CB3FBF1F373
:10263000B2FBF3F61FDB194A194B904214BF4FF45B
:1026400080424FF40042174C1A6003F580531A6021
:10265000A36832EA0303FBD1212200F5405304337F
:10266000016086601A600268002AFCDA0822C560F0
:102670001A6070BC7047036803F03F038B42DAD1E5
:102680008368C3F30B03B342D5D1C36803F4EE23CD
:10269000AB42D0D1EDE700BF001BB7000080054082
:1026A00000200240000002400A4B0B490B4A5960CF
:1026B000D3681904FCD40A4BD26843EA00130949D1
:1026C000534009481940054AC160D3681B04FCD433
:1026D000704700BF002010400020FE5A000010404C
:1026E0000000FE5AF001FE5A0010104030B44FF0C6
:1026F00080441C4B1C60E0B11B4CA3F54053DC61D3
:102700001A4C40F0010044401C62596298624FF03C
:1027100080454FF0E061134B1548164C1D608460F6
:1027200019604AB930BC4FF00042A3F580531A60DB
:102730007047114BD861EAE74FF47A7303FB02F25A
:10274000B2F1807F2ABF6FF07F4313461A464FF0E5
:1027500080410A4C08482360094B426030BC196034
:10276000704700BF00B00D40D3C007B02D3FF84FF9
:1027700000A00140F3FFFF0100800D40F044002065
:1027800000A00D40012300EB4000800000F18040DC
:1027900000F5841041600360704700BF002370B5EE
:1027A000DB8A04460D46002242E800F2520254BF82
:1027B0001021042144F25220984786462B46224697
:1027C000F446BDE870400A214FF48170604700BFB5
:1027D0000023DB8A002242E800F2520201D41021D9
:1027E00018470421184700BF08B503460846191EBC
:1027F00002DB1AB140F03000FFF7D0FF40F02000BC
:10280000FAE700BF002310B5DA8A044686B0002339
:1028100043E800F35B0254BF1021042145F2473026
:10282000904710220346052101A89847052802D0A9
:10283000002006B010BD0DF1080CBCE80F002060B0
:1028400001206160A260E36006B010BD034AD2F8C7
:102850002838002BFBD0BFF35F8F704700000E407D
:102860000021044B044ABFF35F8F43F8041B9342DB
:10287000F9D170470C080E402C080E4010B44FF4EC
:102880008D704FF42A64064A064B07491460D060E5
:1028900019605368002BFCDA5DF8044B704700BFE9
:1028A0000080044000A0044000B0FA00704700BF60
:1028B00008B50148FEF7B4FAB489011038B5054CE3
:1028C000054DAC4204D254F8043B9847AC42FAD3CD
:1028D00038BD00BF88840110C884011038B5054C8C
:1028E000054DAC4204D254F8043B9847AC42FAD3AD
:1028F00038BD00BFB4840110C884011010B407486B
:10290000074C084B084A094904601A608B6832EA90
:102910000303FBD15DF8044B704700BF0020024069
:102920007F3BEFEF00300240F6FFF3030000024070
:10293000044BDB6CB3F5004F03D14FF48022024B04
:10294000DA64704700001150002011504FF0E0226F
:10295000044BD2F8881D0B43C2F8883D10EE3004BA
:10296000704700BF030330006FF06041044B054A1D
:1029700019609368DB4333F06043FAD1704700BFBE
:10298000003002400000024010B545F25320FFF72E
:102990001FFFBDE8104003460420184710B545F25C
:1029A0005320FFF715FFBDE81040034601201847EC
:1029B000FEF722BB1449154B70B55C1AA610442EC5
:1029C000324628BF4422124D9200284615F014FBCF
:1029D000B4F5867F13D80F4AC6F1440012D02B19E4
:1029E000410803EBC101C3E9002208338B42FAD14D
:1029F000C30704D520F00100304445F82020064BE1
:102A00009D6070BD4320F8E7000000101001001029
:102A1000000000201101001000ED00E0002370B55F
:102A20002B4C82B0C4F88430FFF728FF0122294BD9
:102A3000DA63636C012BFCD10321264A244B11631A
:102A40009C6B012CFCD10226052521460523224A38
:102A500022480096FFF7E2FD21462B46204A2148F6
:102A60000095FFF7DBFD0022042031461E4BFFF7E7
:102A7000D7FB2146284600221C4BFFF7D1FB002242
:102A8000082011461A4BFFF7CBFB00220920114604
:102A9000174BFFF7C5FB002206201146134BFFF72B
:102AA000BFFB0022114B07201146FFF7B9FB0420A2
:102AB000FFF71EFC00240F4BA3FB0035AD0CE0B26A
:102AC00029460134FFF75EFE062CF8D102B070BD36
:102AD0000000014000300140002F6859000005400F
:102AE000008C864700800540001BB70080D1F008AD
:102AF000006CDC0283DE1B4386B003B451FC080487
:102B0000CDE9020151FC0904CDE9040151EC0A04AC
:102B1000CDE9060103BCF047BDE800504EEC00C40F
:102B2000BDE800504EEC01C4BDE800504EEC02C4BC
:102B300000BD000000B5FFF7DFFF02E010FE30F43B
:102B4000F8D441EC100443EC112400EE010410EE23
:102B5000010480EE200451EC1004704700B5FFF72B
:102B6000CBFF02E010FE30F4F8D441EC100443EC4B
:102B7000112400EE010410EE210480EE200451EC3B
:102B80003004704700B5FFF7B7FF02E010FE30F4E5
:102B9000F8D410B541EC100443EC112451EC0404BA
:102BA00053EC0524A0FB024C5FF0000EE0FB03CECB
:102BB000E1FB02CE4CEC20440024E1FB03E444ECB6
:102BC00030E480EE200451EC5004BDE81040704722
:102BD00000B5FFF791FF02E010FE30F4F8D441ECAD
:102BE000100443EC112451EC2104A0FB01126FEA04
:102BF000820252FB100052FB12F252FB1000A0EBBB
:102C0000D07C53EC04245CFB13F153EC1524A1FBA2
:102C1000022001FB030053EC4424A2EB000050FB14
:102C20001CF24FEA111312EB017043EBE27140EA20
:102C3000515020EA915020F0070053EC7524A0FB7E
:102C4000023C53EC752400FB03CC01FB02CC53EC9B
:102C50000424ACEB824C40EA5C70A0F1010041EC32
:102C6000400480EE200451EC7004704700B5FFF77B
:102C700043FF02E010FE30F4F8D440EC700400EEA4
:102C8000010410EE210480EE200451EC3004704762
:102C900000B5FFF731FF02E010FE30F4F8D440EC4D
:102CA000600400EE010410EE210480EE200451ECDB
:102CB0003004704700B5FFF71FFF02E010FE30F44C
:102CC000F8D441EC800400EE010410EE010480EE23
:102CD000400410EE1304704700B5FFF70DFF02E04B
:102CE00010FE30F4F8D441EC800400EE010410EE44
:102CF000010480EE400410EE3304704700B5FFF786
:102D0000FBFE02E010FE30F4F8D441EC100443EC7A
:102D1000112400EE010410EE3004C0F3007070477F
:102D200000B5FFF7E9FE02E010FE30F4F8D443EC02
:102D3000102441EC110400EE010410EE30F48CBFBD
:102D400001200020704700BF00B5FFF7D5FE02E06C
:102D500010FE30F4F8D443EC102441EC110400EEE2
:102D6000010410EE30F42CBF01200020704700BF9A
:102D700000B5FFF7C1FE02E010FE30F4F8D441ECDC
:102D8000100443EC112400EE010410EE30F42CBFCB
:102D900001200020704700BF00B5FFF7ADFE02E044
:102DA00010FE30F4F8D441EC100443EC112400EE92
:102DB000010410EE30F48CBF01200020704700BFEA
:102DC00038B50446094815F027FB204614F0DEFC10
:102DD0000546064815F01CFB2DB1054B2C449C42C2
:102DE00001D8284638BD0348FEF71AF868220020AB
:102DF00000000820C089011070B504460E460B483B
:102E000015F00AFB3146204614F080FC05460748C1
:102E100015F0FEFA06FB04F42DB1054B2C449C4240
:102E200001D8284670BD0348FDF7FAFF682200204C
:102E300000000820C089011010B50446054815F0AF
:102E4000EBFA204614F0AAFCBDE81040014815F04A
:102E5000DFBA00BF682200209A4238BF885470470A
:102E6000704700BF2DE9F04F83B09946DDE90DAB07
:102E70000F9B884611469A07074616D1DA453AD283
:102E80000C460D46ABEB0A060E4422464B46414625
:102E900020200134B847B442F7D12946BAF1000FD7
:102EA00008D1204603B0BDE8F08F0C46BAF1000F00
:102EB00010D00E4655460C9B2E449A440191721B2D
:102EC0004B46013D41461AF8010D3446B847002DE6
:102ED000F5D101990F9B9B07E3D5651AAB45E0D966
:102EE00022464B46414620200135B8475D4504F156
:102EF0000104F5D3D5E70C46BAF1000FD9D1D0E7DC
:102F00002DE9F04F0F9FDDF8248017F0020F0A9C87
:102F10009DF82CA00E9DDDE90C9644D1F5BBB44282
:102F200041D207F0010B04F1FF3C4FF0300EC444D6
:102F300004E00134A6420CF801EF01D9202CF8D1AD
:102F4000BBF1000F00F08880A5422CD904F1FF3CB2
:102F50004FF0300EC44404E00134AC420CF801EFF1
:102F600021D0202CF8D117F0100F0ED017F4806F5D
:102F700054D1A64263D0A54261D0B9F1100F50D010
:102F8000B9F1020F56D0202C29D12024CDE90B57BE
:102F9000CDE90984BDE8F04FFFF764BF17F0010BDE
:102FA00034D1B442BFD317F0100F1ED017F4806F86
:102FB000E3D1002CDDD1B9F1100F63D0B9F1020FCC
:102FC00077D0302488F800400124BAF1000F11D1E5
:102FD0007E0748D52B2608F804600134D6E726463C
:102FE00001344FF0300C08F806C0202CCDD0BAF1D7
:102FF000000FEDD02D2608F804600134CDE90B5701
:10300000CDE90984BDE8F04FFFF72CBFBAF1000FFE
:1030100030D0B44205F1FF3585D395E7B9F1100FF3
:10302000B3D1BE063BD5202CAFD0582608F804609B
:103030000134A8E7202CA8D02646013407E0661EFC
:10304000B9D0B9F1100F36D0B9F1020FC9D14FF094
:10305000620C08F806C096E717F0100FC5D017F4F9
:10306000806F86D089E73E0790D5202608F8046057
:1030700001348BE717F00C0F00D0013DB442FFF490
:1030800052AF61E7BC0612D4782488F8004030249F
:1030900088F801400224BAF1000F99D0AAE7202C49
:1030A0003FF473AF782608F8046001346BE75824C6
:1030B000EBE76224E9E717F0200FA4F1020C04D03B
:1030C0004FF0580E08F80CE08BE74FF0780E08F838
:1030D0000CE086E700B9704701F09ABB10B1D1E966
:1030E00000311847704700BF2DE9F04F97B09DEDB4
:1030F000207BDDE9225B0746884651EC170B249CB8
:1031000099460C920B4602468DED047B0794FFF71F
:10311000F9FD002840F0F481DDE904014FF0FF32B1
:103120006FF48013FFF700FE002840F01B81DDE9FB
:1031300004014FF0FF32AC4BFFF732FE002840F0A5
:10314000EE80DDE90401A4A3D3E90023FFF728FE04
:10315000002840F0D380DDE90401A1A3D3E90023D6
:10316000FFF7E2FD002840F0C980DDE904010022FC
:103170000023FFF7D9FD002840F0E88023460D909A
:1031800013F4806F08BF062530212B460EAAA5F147
:10319000200605E0013BB34202F8011B00F09381D9
:1031A000092BF7D81E46ED1ADDE90401FFF786FD6D
:1031B0008E4B044603EBC60393ED007B8DED087B3D
:1031C000FFF758FD02460B46DDE90401FFF7CAFC94
:1031D000DDE90823FFF7DAFC02460B46CDE90A23B6
:1031E000FFF77EFD8246FFF757FD02460B46DDE9FD
:1031F0000A01FFF7B7FC02460B46CDE90A2300227D
:103200007B4BFFF7CDFD002800F0FE800AF1010A9C
:103210005046FFF741FD02460B46DDE90801FFF786
:1032200097FD10B14FF0000A0134002E00F0FD8030
:10323000681E0EABDFF8CCC118440FE0ACFB0A21CE
:10324000C90801EB8102AAEB42023032BAF1090F40
:1032500000F8012F40F21C818A461D46202D05F101
:10326000010306F1FF36E9D12025691E0EAB614846
:10327000194410E080FB0462C3EBA20303EB83025A
:10328000A4EB420404F1300201351C4601F8012F81
:10329000002B00F0EB80202D4FEAE473EAD1079B6E
:1032A00003F00303012B18D1BBF1000F15D00D9BC8
:1032B000002B00F00A810BF1FF3BBBF1200F0CD972
:1032C0006B1E0EA930220B4405E001355D4503F865
:1032D000012F80F0D180202DF7D1079B0EACCDE9D6
:1032E00002B341464B4638460C9A01950094FFF7CD
:1032F000B9FD8246504617B0BDE8F08F079B9DEDA3
:10330000047BCDE923B341464B4638460C9A8DEDFC
:10331000207B229517B0BDE8F04F00F045B961075A
:1033200023464CBF042303234146219338464B4692
:10333000079A48BF304CCDE922B258BF2F4C0C9AA7
:10334000209417B0BDE8F04FFFF78CBDDDE90423F2
:1033500000200021FFF706FC0123CDE904010D93B5
:1033600023460DE723469C0740F0AA80BBF1040FDB
:1033700040F2A6800C9B1D461C1F04EB0B0A2A463C
:103380004B46414620200135B847AA45F7D155465E
:103390001B4C261F14F8010D2A464B464146B847E0
:1033A000B44205F10105F5D1079B0AF1040A98071B
:1033B000A0D50C9CAAEB04039B459BD952464B46D7
:1033C000414620200AF1010AB847AAEB04035B45F5
:1033D000F4D38FE7AFF300800000000065CDCD414E
:1033E0000000000065CDCDC1FFFFEF7FD8A7011021
:1033F0000000E03F67666666148A01101C8A0110AF
:10340000288A0110CDCCCCCC0022DDE90A01634B27
:10341000FFF78AFC00287FF408AFBAF1000F6AD1E9
:103420000AF1010A002E7FF403AF2046FFF722FCC9
:1034300002460B46DDE90401FFF794FB02460B460A
:10344000CDE904230022554BFFF76EFC00287FF4E2
:103450000CAFDDE904010022504BFFF7A1FC00286E
:103460007FF403AF013424F00104FEE6079B03F070
:103470000303012B00F08280202D3FF42EAF0D9B23
:103480007BB32D220DEB050383F83820013524E7AB
:10349000202B3FF4E9AE0EAA15441E44302204E06E
:1034A000202B05F8012F3FF4DFAE9E4203F101030C
:1034B000F6D12E220DEB060383F83820751CD4E6D6
:1034C000DDF830A063E720256EE6079B13F00C0FB4
:1034D00050D00BF1FF3BAB453FF6F2AE202D3FF451
:1034E000FCAE079B5A0701D52B22CBE71B077FF5C4
:1034F000F4AE2022C6E71AF0010F3FF496AE8FE734
:10350000A60734D1BBF1030F31D90C9B1D46DC1E3D
:1035100004EB0B0A2A464B46414620200135B847AA
:103520005545F7D155461E4CE61E14F8010D2A46A6
:103530004B464146B847A64205F10105F5D1079B28
:103540000AF1030A9D077FF5D5AE0C9CAAEB040394
:103550009B457FF6CFAE52464B46414620200AF1AE
:10356000010AB847AAEB04039B45F4D8C2E6DDF88C
:1035700030A0D7E7AB453FF6A3AEAEE6BBF1000FF8
:103580003FF47AAF0D9B002B9FD00BF1FF3B5D45C5
:10359000FFF496AE202D7FF474AF9EE60000E03F6E
:1035A000238A0110000000002DE9F04F9FB02A9EF1
:1035B000DDE92845074693460891099322462B46A4
:1035C000204629460E96DDE92BA6FFF79BFB002837
:1035D00040F0BE80204629464FF0FF32784BFFF77F
:1035E000DFFB002840F0B480204629464FF0FF3230
:1035F0006FF48013FFF798FB002840F0A980204665
:10360000294600220023FFF78FFB002840F0D581D8
:10361000CDE90A45DDE90A239046994606F40062A1
:1036200016F480630F92139340F0A18058EA0903C7
:1036300040F0CA80002A40F0E38106230E9316F082
:103640000202109240F0D4815346042B38BF042369
:103650000C920422043B12920F932046294600222A
:103660000023FFF761FB002840F0F3819DED0A7B0A
:103670000F9B5A4603930E9B8DED007B029326F41D
:10368000006304933846099B0899FFF72DFD024615
:1036900016F0200F099B08990CBF6520452002F108
:1036A0000108B8470C9A129B16AC5D1E82EAE273C1
:1036B000A3EBE273D10F002622469946DFF804C13E
:1036C00001E0202E10D0CE46ACFB0930C00800EB44
:1036D0008003A9EB43033033BEF1090F814606F1A5
:1036E000010602F8013BECD80523002006930A23CB
:1036F00005950094099D089C4246CDE90330CDE92B
:1037000001612B4621463846FFF7FAFB109A8046A6
:10371000D2B1A0EB0B06B24516D90BEB06022B4635
:10372000214620200136B847B245F6D80BF1FF33C9
:103730005344CBF10102A3EB08034244924538BF46
:10374000002308F10108984440461FB0BDE8F08FFF
:103750005A463846CDE92845CDE92BA60E9C099B53
:1037600008992A941FB0BDE8F04FFFF7BDBC58EA96
:1037700009032BD1002A3FF462AF00230C930E9B68
:103780000C9A934200F3B9814FF000082046294675
:1037900000220023FFF7C8FA002840F013819DEDB6
:1037A0000A7B26F4006646F480668DED287B5A4637
:1037B0003846CDE92A8A099B08992C96D2E700BFA2
:1037C000FFFFEF7FCDCCCCCC06230E93C9F30A507C
:1037D000A0F2FF30FFF74EFAC1A3D3E90023FFF7B1
:1037E000D5F9C1A3D3E90023FFF7A8F9C9F3130959
:1037F000CDE90C0149F07F5140460022B24B41F423
:103800004011FFF7AFF9A4A3D3E90023FFF7BEF9F6
:1038100002460B46DDE90C01FFF790F9FFF74EFA7F
:103820000C90FFF727FA9EA3D3E900238046894630
:10383000FFF7ACF90022A54BFFF780F9FFF73EFA3E
:10384000034649464046129397A3D3E90023FFF766
:103850009DF9804612988946FFF70CFA94A3D3E9A4
:103860000023FFF793F902460B4640464946FFF70F
:1038700079F902460B4680468946FFF787F94246AA
:103880004B46CDE9100140464946FFF757F9002263
:10389000CDE91401DDE910018D4BFFF79DF9002200
:1038A0008C4BFFF74BF902460B46DDE91001FFF7A1
:1038B00093F90022884BFFF741F902460B46DDE9F8
:1038C0001001FFF789F942464B46804689460020A1
:1038D0004FF08041FFF746F902460B464046494605
:1038E000FFF72CF902460B46DDE91401FFF774F9E6
:1038F00000227A4BFFF722F9129B002203F2FF3CD1
:103900004FEA0C53FFF742F980468946DDE90A0188
:1039100042464B46FFF708FA50B10C9B4046013B2C
:1039200049460C9300226B4BFFF756F980468946B7
:103930000C9A43466332C62A06F0020210924946A8
:103940000F9A2CD8002A5ED0042212920B433FF427
:1039500016AFDDE90A0158A3D3E90023FFF70CFAFB
:1039600048B1DDE90A0156A3D3E90023FFF7DCF9EA
:1039700000287FF404AF0E9B002B50D0139A002A2E
:103980007DD0013B0E93129B9A4505D9109B002BCD
:1039900000F0AE800223109300230F9344E022BB7B
:1039A000BAF1050F4FD906F00203002B49D10523C8
:1039B0001293AAF105030F933AE005F100430A942C
:1039C0000B9327E626F4006646F4806638462C966C
:1039D000DDE90A67344607F100455A46CDE92A8AEF
:1039E000CDE92845099B0899BCE605221292ADE76E
:1039F00000230222CDE90F3204220C9312922CE60E
:103A00004FF00508C2E6BAF1040F1FD9109B002B36
:103A100078D104231293AAF104030F9304E0129BBC
:103A20009A4531D80E9B0F930C9B002B3FF415AE9B
:103A3000DDE90A0142464B46FFF7CEF8CDE90A011F
:103A40000BE60223109305231293F1E7042312934C
:103A5000EAE7DDE90A45A0460F9B05F1004903931B
:103A60000E9B5A46029326F4006304933846CDE930
:103A70000089099B0899FFF737FB024608E6129B6D
:103A80009A4544D80F92CFE7109B8BB30E9B0F93B0
:103A900002231093C8E700BF61436F63A787D23F3B
:103AA00071A379094F930A401655B5BBB16B02401B
:103AB000EF39FAFE422EE63F2D431CEBE2361A3F69
:103AC0000000000080842E410000F83F0000E03F2D
:103AD00000002C4000002440000018400000F03F8F
:103AE000FB799F501344D33FB3C8608B288AC63FED
:103AF000129BAAEB03030F9396E7A3EB020808F1CE
:103B0000FF3843E604231293022310938CE7109BA3
:103B1000002BEDD002230F92109385E72DE9F04F93
:103B20009BB0249C954D0A94954CB1F1000A18BFA6
:103B3000834625601878934C914608BFA3460993A5
:103B4000002800F093824FF000080AE042464B46FE
:103B5000514608F10108D847099B1878002800F061
:103B6000CE80099B252803F101030993EED11C4661
:103B70000023224612F8010BA0F1200110290AD8D7
:103B8000DFE801F04009093C090909090909093878
:103B9000093409093000A0F130010929099440F2E3
:103BA0008A802A2800F0F08000252E2800F09680D8
:103BB0000026A0F1680112292DD8DFE811F0490193
:103BC0002C0043012C0038012C002C002C002C0070
:103BD0002C002C002C0027002C002C002C002C008A
:103BE0002C002700144643F00103C2E7144643F0BB
:103BF0000203BEE7144643F00403BAE7144643F059
:103C00001003B6E7144643F00803B2E70999487871
:103C100043F480730132672809927ED8242840F249
:103C2000C180A0F12502422A00F2BC80DFE812F038
:103C30005001BA00BA00BA00BA00BA00BA00BA001D
:103C4000BA00BA00BA00BA00BA00BA00BA00BA00A4
:103C5000BA00BA00BA00BA00BA00BA00BA00BA0094
:103C6000BA00BA00BA00BA00BA00BA00BA00BA0084
:103C7000190137011901BA00BA00BA00BA00BA0036
:103C8000BA00BA00BA00BA00BA00BA00BA00BA0064
:103C9000BA00BA00BA00BC01BA00BA00BA00BA0051
:103CA000BA00BA00BA00BA00BA00BC015801BC019F
:103CB000190137011901002500E0013205EB8505E6
:103CC00000EB45051078303DA0F130010929F4D909
:103CD0002E28099202F101027FF46AAF099943F498
:103CE000806348781146A0F13006092E40F2218108
:103CF0002A2800F02F8109920026013259E7444614
:103D0000C14501D809F1FF384B46424651460020D3
:103D1000D84720461BB0BDE8F08FA0F16902D2B2AF
:103D20000F2A3FD8012149F241079140394040F024
:103D3000F3800A2A3DD0072A34D10A9D55F8042B76
:103D4000002A00F0138143F0210012AB1F460B93B1
:103D500003E0202900F014811A4602F00F042346E4
:103D6000092C94BF303337330F2A07F8013B01F198
:103D700001014FEA1213ECD802E100BF1D3B001015
:103D8000E8440020612E00100A99099851F8045B5C
:103D90004078002DCDE90921BCBF43F002036D42FC
:103DA000013202E742464B46514608F10108D84726
:103DB000D2E60A99002E51F8047B18BF32463878B3
:103DC00008BF4FF0FF32002800F07B83BC18A446E8
:103DD0003A4604E012F8014F002C00F03F81944570
:103DE000F8D16446E41B5A0540F12281B44228BF51
:103DF000344613F0020300F088820223CDE90A5111
:103E000042461D46464408E04B465146D84717F8FF
:103E1000010F08F1010810B142464645F4D12B4686
:103E20000B990A9D002B40F041810A9194E6099973
:103E300048786C287FF4ECAE0A46887843F44073E7
:103E40000332E8E6099943F4007348780132E2E668
:103E500009994878682800F0038143F08003013213
:103E6000D9E6672800F0D980472800F0DC80452893
:103E700000F0DB80CDE903530A9B0296073323F061
:103E800007031C464246F4E802674B465146584633
:103E9000CDE900670A94FFF787FB80465CE6462879
:103EA00008BF43F02003CDE903530A9B0296073372
:103EB00023F007031C464246F4E802674B4651468E
:103EC0005846CDE900670A94FFF70EF9804643E6AD
:103ED00042464B465146252008F10108D8473BE6AB
:103EE0000A9A990702F1040408F1010640F1C6801C
:103EF00010784B4642465146D847012D88BFA8440A
:103F000040F2BD8132464B46514620200136D8470B
:103F10004645F7D10A941FE66F2800F0818040F2F1
:103F20004882782800F090810A2723F01003BC46CD
:103F300041E0002606EB860600EB4600A0F13006C5
:103F400011F8010FA0F13002092AF3D90A460991AC
:103F500001322EE6DDE9092151F8046B9078023236
:103F600009920A91013226EAE67622E623F0100051
:103F700013F4806240F021003FF4E7AE12AB0B93E4
:103F80000B9B0690009308231020059300234246C4
:103F9000CDE9023001914B46514658460496FEF752
:103FA000AFFF0A958046D7E5582862D0622840F0D6
:103FB0008F800227BC4613F4806000F0DD8023F080
:103FC0000D0313F4007240F081810A990F1D13F460
:103FD000807140F037825C060A9A40F13B8112788A
:103FE000002A40F04E8123F01003002800F04981A0
:103FF000114612AA0B92CDE90553CDE903C60191F2
:104000000B9B4246009300235146029358464B4671
:10401000FEF776FF0A9780469EE543F4006329E7A2
:104020000827BC46C7E743F4006343F0200321E7B9
:1040300013F0020300F08E8102230A951E460D46FE
:1040400042464B465146D84717F8010F08F1010880
:104050000028F5D1294633460A9DE3E6D41BC2E683
:104060000A46887843F0C0030332D4E5044680460C
:1040700046E6102743F02003BC469CE7012D40F2A2
:10408000F880464608F1FF372F4432464B465146EA
:1040900020200136D847BE42F7D10A9B3246187815
:1040A00051464B46D847A8440A9455E54646A54292
:1040B0007FF6BBAEA844A8EB04080C4632464B463C
:1040C000514620200136D8474645F7D12146ACE677
:1040D00013F4806200F0BB804FF4806223F0110C77
:1040E0001CF400770A9B4AD11CF4807003F104048D
:1040F00040F034811CF0400F40F0A3801CF0800F92
:1041000000F0D381B3F9001081EAE177A7EBE17702
:10411000BFB2CB0F002900F056813A4612A90F46D4
:10412000DFF8D8E30B910A930C9501E020280FD01B
:104130001546AEFB0213DB0803EB8301A2EB410142
:104140003031092D1A4600F1010007F8011BEDD8A6
:104150000A9B0C9DCDE9055CCDE9010304960B9B00
:10416000424600930A235146039358464B46FEF7B6
:10417000C7FE0A948046EFE423F00C0321E70733DF
:1041800023F00703194608465B6850F8081BDF0F49
:104190000A9051EA030062D1002A40F09F81134641
:1041A000114612AACDE90C7500201546CDE90E681E
:1041B000DFF848E30B9201E020282DD05A1842F195
:1041C0000002AEFB027828F0030707EB9807D21B2A
:1041D0001E469B1A61F100070C464FF0CC3101FBE3
:1041E00003F10EFB0711A3FB0E731944052307F01F
:1041F0000108A8FB03389B180A2E03F130034FEA8D
:10420000570774F1000405F8013B00F1010047EA8B
:10421000C1734FEA5101CFD2DDE90C75DDE90E68BB
:104220000B9B424600930A23CDE9055CCDE90107CB
:10423000049603934B4651465846FEF761FE80466E
:104240008AE419780F4664E71027BC46B3E623F0EA
:10425000100C45E71C064CBF12881268C0E60A46DF
:10426000191E01DB13469CE75242134661EB4101E4
:1042700097E713465146187842464B46D847B04612
:1042800048E613F0200F14BF4120612012ACA6466F
:104290000B940A93A0F10A040C9502E0202912D095
:1042A0002A46B2FBFCF50CFB1520C3B2092803F12A
:1042B00030008ABF1B19C3B2DBB262450EF8013B66
:1042C00001F10101EAD20A9B0C9D94E60A9A073299
:1042D00022F00702516852F8084B8E460A9254EABF
:1042E000010276D123F01003002872D0002211467B
:1042F00012AA0B92CDE905530B9B42460093002373
:10430000CDE903C60191029394E7A54298BF013419
:104310007FF674AD4FF48063CDE90A7505EB0802B2
:104320001F460D46141B42464B465146202008F1BD
:104330000108D847A045F6D13B460A9F2946387860
:104340000B9D6C1C00283FF470AD002B3FF475AE44
:10435000002353E5A542DFD801346EE61968CB0F80
:10436000002900F0A88081EAE172A2EBE17212A9B3
:104370000846DFF888E10B910A930C9501E0202FA5
:104380000FD01546AEFB0213DB0803EB8301A2EB53
:1043900041013031092D1A4607F1010700F8011BD0
:1043A000EDD80A9B0C9DCDE9055CCDE9017304961F
:1043B000D5E6692823F0100C40F08C8013F480625D
:1043C0003FF48EAE88E6002A3FF4A8AE12AA0B9204
:1043D000C0E613F0200F14BF41226122002012A971
:1043E0000A3ACDE90E68CDE90C35CDF844B0064661
:1043F0008846754693460B91CDF840C003E0202EC9
:1044000017D004460D4629463A460023204613F0AD
:10441000FBFFD2B2092A02F1300388BF02EB0B0383
:10442000BC42DBB275F1000508F8013B06F101065C
:10443000E5D23146DDE90C35DDE910CBDDF83C8015
:104440000E9E57E70A99096851B923F0100338B155
:1044500012A90B91CDE90553CDE903C60192CFE531
:1044600013F0200F14BF4120612012ACA6460B941C
:104470000A93A0F10A040C9502E0202A12D02946E2
:10448000B1FBFCF50CFB1510C3B2092803F1300099
:104490008ABF1B19C3B2DBB261450EF8013B02F1C2
:1044A0000102EAD20A9B0C9DD4E7196881EAE17700
:1044B000A7EBE1772DE6002A3FF459AF12AA0B9241
:1044C00071E713F480640DD013F0020412D0044697
:1044D0004646ECE50A276346BC466CE512AB002075
:1044E0000B939DE613F002037FF4E0AD002D7FF403
:1044F00013AF9AE4002D7FF40DAF96E4CDCCCCCC75
:104500000EB410B585B007AC54F8043B01464FF02B
:10451000FF32009404480394FFF700FB05B0BDE8A8
:10452000104003B0704700BF592E001070B594467C
:104530001E4605460C4684B04FF0FF32634602A982
:1045400000960348CDE90254FFF7E8FA04B070BDC5
:10455000DD30001010B5094B84B01C684CB1034627
:1045600000914FF0FF3203A90548A047012004B095
:1045700010BD00F08FF9204604B010BDE8440020C3
:10458000D530001000BEFDE7074A0346106838B179
:10459000064903448B428CBF4FF0FF3013607047D5
:1045A000034908461160F3E7B83F002000000820E7
:1045B00034F9002008B5FFF7E5FF00BF38B5064C19
:1045C000064DFEF77BF9AC4204D254F8043B984701
:1045D000AC42FAD338BD00BFC8840110D0840110AA
:1045E00003680846114618472DE9F0411546427DFB
:1045F00007468846002A46D0002D1DDD0B780A2B81
:1046000023D0012D4FF0000C18D04646012416F897
:10461000012F21460A2A04F1010422D0A542F6D135
:1046200065450BDC08EB050313F8013CA3F10D0312
:10463000B3FA83F35B093B75BDE8F0813B68A5EBFA
:104640000C0108EB0C009847ECE7037D002BD8D158
:10465000036802210F489847012DE3D04FF0010C69
:10466000D3E716F8013C0D2BD8D08C4508EB0C0095
:10467000A1EB0C0101DA3B689847022105483B6831
:104680009847A446CAE7294640463B68BDE8F04142
:10469000184700BF28A801100B682DE9F041802BB6
:1046A0000D46064605D05A1C2B442A601E71BDE8F3
:1046B000F0810F4B1C68A4B10E4F01F1040801E01A
:1046C000246974B12368002BFAD03B680BB1A34274
:1046D000F6D1204641462A68FFF786FF2469002C60
:1046E000F0D1002301222B442A601E71BDE8F08125
:1046F000A83F0020B43F00202DE9F04782B00D46CE
:1047000091461C460646FDF741FD4FF0FF3C6FF019
:1047100000472E4A821841F10003944577EB0301CC
:104720003CBF62463B462A4813F07EFE6B1C804627
:1047300040D00CB3274F284B1C68B4B1B9F1000F1F
:104740001CD1DFF89C9001E0246974B12368002B30
:10475000FAD0D9F800300BB19C42F5D120462A4658
:104760003146B8472469002CF0D1B8F1000F26D1AA
:10477000284602B0BDE8F087184FDCE74FF00A0A80
:10478000DFF85C9002E02469002CEED02368002B57
:10479000F9D0D9F800300BB1A342F4D12A46314602
:1047A0002046B847012220460DF107018DF807A0E9
:1047B000B847E8E7304613F095FC0546B9E70448EA
:1047C00013F026FE284602B0BDE8F08740420F00F5
:1047D00070220020E9450010A83F0020E1450010AC
:1047E000B43F0020084A136823B90AE003F110021D
:1047F0001B6933B18342F9D129B918691060196175
:10480000704701B110607047A83F002000F0DEBA89
:10481000F0B583B006468DF80700FDF7B7FC4FF002
:10482000FF356FF00044174A821841F100039542AA
:1048300074EB03013CBF23462A46134813F0F4FDF2
:10484000124B07461C689CB1114D01E024697CB1F4
:104850002368002BFAD02B680BB19C42F6D120467E
:1048600001220DF10701FFF7BFFE2469002CEFD1F3
:1048700017B9304603B0F0BD034813F0C9FD304608
:1048800003B0F0BD40420F0070220020A83F00207E
:10489000B43F002038B5044613F024FC012305463C
:1048A0001A4620462946FFF727FF084B1C682CB103
:1048B00063682BB198472469002CF9D1284638BD8C
:1048C0002469002CF4D1284638BD00BFA83F002041
:1048D0002DE9F041A2B004460D46FDF757FC4FF01C
:1048E000FF376FF00046264ADFF8A480821841F1B6
:1048F0000003974276EB03013CBF3A46334621481A
:1049000013F092FD00272B462246064601A91E48B9
:104910000197FFF70BFE019B0546D8F80040C3B195
:10492000002C2BD0194F01E0246974B12368002BAF
:10493000FAD03B680BB1A342F6D12046019A02A9F6
:10494000FFF752FE2469002CF0D10023D8F8004074
:1049500001932CB1636843B198472469002CF9D1C5
:104960002EB9284622B0BDE8F0812469F1E7054858
:1049700013F04EFD284622B0BDE8F0810194EFE728
:1049800040420F007022002099460010B43F0020E2
:10499000A83F00200FB400B583B004A951F8040B60
:1049A0000191FFF795FF03B05DF804EB04B0704789
:1049B000704700BF0022014B1A70704723F9002096
:1049C0004B79FF2B0BD1887948B9CB79012B07D1D3
:1049D000082A05D9034B8A7809201A7070470020ED
:1049E000704700BF23F9002001207047012901D042
:1049F0000120704708B5104B91881B78994201D06F
:104A0000002008BD5378012B08D0022BF8D10021DB
:104A100064220846FDF76AFE012008BD5188CB05D7
:104A200048BF480AC1F3402258BF4FF0FF3001F0A1
:104A30007F01FDF7D9FE00BF23F900200048704731
:104A4000F4A80110012907D15378012B02D19388D2
:104A5000072B03D000207047012070471146A62382
:104A6000014A01F041BA00BF4CA8011003460122DF
:104A700001481A70704700BF2CA8011008B50B68D8
:104A8000B3F5966F00D008BD00224FF0FF301146FD
:104A9000FDF7AAFE024A034B10601960704700BF81
:104AA000C02C0020C42C0020184B70B51A68002AB6
:104AB00028D0EFF3108172B6D2E8CF4F0120002C3E
:104AC000FAD1C2E8440F002CF6D1BFF35F8F002269
:104AD0000F4C186859602270C0E88F2F81F310883E
:104AE000002400250B4E3078FCF7C8FA20B90024CA
:104AF00000252046294670BD3078FCF7CFFA2046C5
:104B0000294670BD4FF47A740025EBE788B7002082
:104B100026F9002024F90020014B1878FCF7BEBAD2
:104B200024F9002038B5044600200D4601F00CFBA6
:104B3000A8B3002001F01EFB88B3FDF727FB4FF060
:104B4000FF3E6FF0004C174A821841F10003964572
:104B50007CEB03013CBF72466346134813F064FCD0
:104B6000E8B1002001F0F0FA58B900214FF0FF3011
:104B700000F012FD6FF002040B4813F049FC2046D0
:104B800038BD002001F0F6FA0028EED021462A4672
:104B9000002001F0F9FA04460028EDD1EAE76FF0B1
:104BA0000204ECE740420F0090F8002008B5FDF742
:104BB000EDFA4FF0FF3E6FF0004C0F4A821841F1C2
:104BC000000396457CEB03013CBF724663460B48ED
:104BD00013F02AFC70B14FF0FF30002100F0DCFC34
:104BE000002001F019FB0028F5D1BDE8084003487A
:104BF00013F00EBC08BD00BF40420F0090F800202B
:104C00002DE9F84380460F46FDF7C0FA4FF0FF3517
:104C10006FF00044334A821841F10003954274EB6F
:104C200003013CBF2A4623462F4813F0FDFB08B979
:104C3000BDE8F883002001F087FA002847D0002F54
:104C400040DD0025DFF8A890284E13E02246002022
:104C500001F028FB002104464FF0FF3000F09CFCDF
:104C6000002001F0D9FAFDF791FAC9E900012544C5
:104C7000AF4227DD002001F035FB7C1B8442A8BF3A
:104C8000044608EB0501002CE0D121464FF0FF302F
:104C900000F082FC204601F0BFFA204601F054FAF1
:104CA00080B1204601F01EFB0028E1D1FDF76EFA2D
:104CB000D9F80030D9F804209B1942F10002834250
:104CC0008A41D5D20848BDE8F84313F0A1BB0020C3
:104CD0000021074BC3E90001BDE8F843024813F087
:104CE00097BB00BF40420F0090F8002020A10700B2
:104CF0005824002030B5002185B02E4813F0A8FBC1
:104D0000F0B92D4B1A68CAB1EFF3108172B6D2E830
:104D1000CF5F0124002DFAD1C2E8454F002DF6D116
:104D2000BFF35F8F254C1D6822785960D3B20122F2
:104D30002270C5E88F0F81F31088CBB105B030BD6C
:104D400000214FF0FF3000F027FC002001F012FAA4
:104D50000446184813F05CFB002CEFD0184B1B687E
:104D6000002BEBD0174A106805B0BDE8304018475B
:104D7000FCF7E2FE0446FDF709FA4FF0FF3C6FF046
:104D8000004510F57A7241F10003944575EB03017B
:104D900038BF2B464FF000014FF0010520460A4C6A
:104DA00038BF6246CDE901150094FCF765FF05B0F8
:104DB00030BD00BF90F8002088B7002026F9002001
:104DC000C02C0020C42C0020A94A00104FF05043F2
:104DD00030B585B01C68FCF7AFFEFDF75FF8A04268
:104DE00002D0002005B030BD00212A4B08461B78B8
:104DF00001F040FD28480368002B47D00120FCF754
:104E000001FC0346254C2649C0B22370FCF762F929
:104E100020780121FCF71CF90E20FCF74BF940BB70
:104E2000204B0125C3E90000FCF786FE0446FDF790
:104E3000ADF94FF0FF3E6FF0004C10F57A7241F182
:104E4000000396457CEB03014FF000012046164C11
:104E50003CBF72466346CDE901150094FCF70CFF98
:104E60000028BEDB01211148FFF7BCFC012005B082
:104E700030BD0120FCF7A8F801460A48FCF73CFCCD
:104E800000220E200A49FCF755F9EBE7FCF70AFC73
:104E9000B4E700BFC424051090F8002024F90020D6
:104EA000F54C001088B70020A94A0010701C0020A3
:104EB000194B00100048704790A901100048704736
:104EC0003CA9011038B5184B04461A780AB344B906
:104ED00040F209424FF44173144D6A8013482B800D
:104EE00038BD052C1DD8124B104D53F82410284600
:104EF0000023013903E0132B20F8022F0ED011F804
:104F0000012F0133DBB2002AF5D15B0043F440737B
:104F1000E4E71121184600F02DF8D8E74FF44A7362
:104F2000DCE7002038BD00BFE8F80020C03A0020D0
:104F300024A9011000B545F247308BB0FDF748FCBD
:104F400001220346092101A89847DDE903320449FB
:104F500012BA1BBAC1E900230BB05DF804FB00BF15
:104F600074F600200346024A03CA1860596070476D
:104F700074F60020012901F1FF3300F0B3805D4990
:104F80000A784FEA121C9F2A8CBF0CF1370C0CF1E7
:104F9000300C012B80F800C000F0A78002F00F0257
:104FA000092A8CBF37323032022B427000F09D80CC
:104FB0004A784FEA121C9F2A8CBF0CF1370C0CF177
:104FC000300C032B80F802C000F08F8002F00F023B
:104FD000092A8CBF37323032042BC27000F0858032
:104FE0008A784FEA121C9F2A8CBF0CF1370C0CF107
:104FF000300C052B80F804C077D002F00F02092A8C
:105000008CBF37323032062B42716ED0CA784FEAED
:10501000121C9F2A8CBF0CF1370C0CF1300C072BA3
:1050200080F806C061D002F00F02092A8CBF373227
:105030003032082BC27158D00A794FEA121C9F2ACD
:105040008CBF0CF1370C0CF1300C092B80F808C028
:105050004BD002F00F02092A8CBF373230320A2BB4
:10506000427242D04A794FEA121C9F2A8CBF0CF13F
:10507000370C0CF1300C0B2B80F80AC035D002F045
:105080000F02092A8CBF373230320C2BC2722CD05F
:105090008A794FEA121C9F2A8CBF0CF1370C0CF155
:1050A000300C0D2B80F80CC01FD002F00F02092A23
:1050B0008CBF373230320E2B427316D0CA791109A9
:1050C0009F2A8CBF373130310F2B81730DD002F006
:1050D0000F02092A94BF30323732102BC27318BF27
:1050E000103002D00023037070471844002303706F
:1050F000704700BF74F6002070B500F02DF90C2346
:105100004026194CFF22A3670E201849FCF712F81D
:1051100032460021164812F0BDFE012500238021F1
:105120001348144A418445700683068782604360B1
:10513000136042F8043C80F8213080F83B30436231
:105140000D4B4FF00056C360C362803B836213F087
:1051500073F94FF480320949094B25642846E66407
:10516000C4F89010DA6470BD000011502D090020C1
:10517000BC3F0020840010500001105010D00100EE
:105180000020115001210E20FBF762BF00220248CF
:10519000114600F001B900BFDC3F0020044B19703C
:1051A00021B14FF40032034BC3F89020704700BF89
:1051B00015F90020002011500B785B0602D14B78C6
:1051C000052B00D070474B88014ADBB21360704753
:1051D00000001150CB782DE9F04103F0030EBEF131
:1051E000010FC3F301005BD0002791F802C0344CDB
:1051F0000CF07F025600898806EBDC1304EB4313A6
:105200004FEADC15D876C1F30A0185F0010083F876
:1052100002C019835870DF70D3008DBB2948043356
:1052200004EB821C03EB0008CCF808801F5082B30B
:10523000254BD2001344CCF80430244B3F311A687C
:1052400021F03F01BEF1020F08BF4900114419606F
:105250001F4B771904EB47179942FA602BD82E445D
:1052600004EB4613D97E82F0A04282F480125B6880
:1052700042EA816242F000421A600120BDE8F081FA
:10528000104804EB821C0344CCF8283040F83270FC
:105290004AB900220F4904EB4513D9605A60ECE784
:1052A0000020BDE8F081D20002F1A04202F5801298
:1052B000CCF82420C1E7FDF7FBFAFA68CFE700BF7E
:1052C000BC3F0020800010500400105068B7002040
:1052D000FF0F10500001105013F0AEB88C4608B507
:1052E000114607481A460CF07F034FEADC1C0CEB12
:1052F000430C00EB4C1000F04FF8012008BD00BF3C
:10530000BC3F002011F07F0205D100290CBF022014
:105310000120064B9866C909054B01EB420003EBDF
:1053200040104FF40062002113F07AB800201150B1
:10533000BC3F002011F07F0300D1704700220548D8
:105340005B0003EBD11300EB43106FF40061C270FC
:1053500013F066B8BC3F00204FF0805209480A495C
:1053600008B50A4B02600A609968C94311F0805180
:10537000FAD14FF48052064812F08CFD0922054BF9
:105380005A6708BD00200240003002400000024081
:10539000000010500000115000234FF0010C10B518
:1053A00080F81AC08282C3820161044613F068F853
:1053B00020B14FF40032074BC3F89020204613F081
:1053C00013F810B10123237710BD2046BDE810402B
:1053D00013F016B8002011502DE9F04100241D4EA5
:1053E000054623463278DFF878801B4F0DE03B6896
:1053F00013EB441324D0DB682846984732780134F5
:10540000E4B2511CA142234606DBA242A3EB0203F5
:10541000EDD808EB4313EEE7542200210F4812F0B9
:1054200039FD4FF0FF330D482022041D4360C4E9CD
:105430000133E360FF21BDE8F041143012F02ABDD2
:105440004FF0E023D3F8F03DDB0700D500BEBDE808
:10545000F08100BF14F90020D0250020A0270020F3
:10546000A4A90110704700BF704700BF002070471B
:1054700000207047704700BF704700BF704700BFF3
:10548000704700BF024B5878003818BF01207047A2
:10549000A0270020024B1878C0F38000704700BF9F
:1054A000A02700202DE9F047DFF8E4A09AF80030AB
:1054B000FF2B56D10E4600293ED00021542207462C
:1054C000294812F0E7FC0022284C294B20461A708C
:1054D000FCF7E8F8274B28481C60284CFCF7FEF83E
:1054E000204601F0ABFD264A264B146023B1264826
:1054F000FFF7BCFA254B18600024234D23462A7879
:10550000DFF89090DFF884800EE0D8F8003013EBDD
:10551000441311D05B687BB198472A780134E4B218
:10552000511CA142234611DBA242EED89B1A09EB83
:1055300043135B68002BEFD14FF0E023D3F8F03D2D
:10554000DB0700D500BE0020BDE8F08731463846B5
:105550008AF80070FFF7D0FD0028EDD03846FFF73D
:1055600011FE0120BDE8F087A02700209827002029
:1055700016F90020F42700209C1C0020881C002025
:10558000F82700206D4A001014F90020D0250020D3
:10559000A41C0020A4A901102DE9F04FDFF8C89247
:1055A0008BB099F80030FF2B00F0F180A84CA94D8A
:1055B000DFF8B0A2DFF8B4B226687369EFF31082A7
:1055C00072B6D3E8CF0F01210028FAD1C3E8401FFB
:1055D0000028F6D1BFF35F8FB261304607A901F012
:1055E00077FB00237269C2E88F3FB36983F31088A9
:1055F000002800F0CC809DF81D30013B072B00F205
:105600007D83DFE803F0A7B1959D8E350A04089BE2
:10561000002BD1D009989847CEE79DF8201001F0D3
:105620007F0605EB460000EBD11090F8343023F0F4
:10563000010380F8343090F8343023F0040380F80C
:105640003430002E00F0A680037D9AF800209342AB
:1056500080F09380804A126812EB431300F0908030
:105660009E699DF82120099B9DF81C00B047A3E787
:105670009BF80030002B00F083809BF80030013B4A
:10568000DBB28BF800309BF8003003F0FF00002BFA
:1056900092D1704F9DF81C803B7843F001033B7022
:1056A00097F8343060F3000387F8343097F83430DB
:1056B00060F3820387F8343097F8353060F30003E5
:1056C00087F8353097F8353060F3820387F8353046
:1056D00000F06CFC9DF8203003F06002602A6CD072
:1056E000402A7CD003F01F03012B00F0C180022B65
:1056F00000F08180002B60D1202A00F0E981002A8F
:105700005BD19DF82130092B57D8DFE813F0B001A9
:10571000A2015600C101560095016B0156006001BF
:10572000F4002B78D9077FF547AFFFF7A9FE43E7D1
:10573000EB78DA077FF540AF0898FFF795FE3BE777
:105740002B78D8077FF538AF2878C0F3C000FFF773
:1057500095FE31E79DF81C00FFF73EFE00F01CFCB3
:105760009DF82030AB7027E79DF81C00FFF734FE52
:1057700000F012FCFFF780FE1EE7501C984211DA81
:105780004FF0E023D3F8F03DDC0700D500BE0BB0AE
:10579000BDE8F08F099B9DF821209DF81C0000F0CA
:1057A00019FC09E79B1A2D4A02EB431358E7FFF750
:1057B00085FB0246002840F082814FF0E023D3F8B9
:1057C000F03DDE0700D500BE9DF81C000021FFF76C
:1057D00099FD80219DF81C00FFF794FDECE6204820
:1057E00000F0E4FB0121404608AAFFF72BF900284E
:1057F0007FF4E2AEE8E79DF8241011F0700FDCD1E1
:1058000001F07F0607EB4600164B00EBD1101B782A
:10581000007D7600019698424FEAD116009659D342
:105820005E1C8642C0F26681C01A0C4B03EB401628
:10583000002A00F06381706900F0B8FB0121404646
:10584000736908AA984700287FF4B6AEBCE700BF8A
:10585000F8270020A0270020D0250020A4A90110AF
:10586000454A001014F90020A41C002016F900205D
:105870009DF824300F2BA7D8AE4A3B441B791278F1
:10588000934232D3511C99429EDBAB4E9B1A06EBDE
:105890004316706900F08AFB01214046736908AA2B
:1058A000984700287FF488AE9DF8203013F06006FA
:1058B0008AD19DF821300A3B012B85D800F076FB78
:1058C0009DF821300A2B00F0F281404608A900F033
:1058D000F1FA71E6994B1B6803EB4016002A00F0C1
:1058E0000D81002E3FF470AFA5E7944A166816EBC1
:1058F0004316CED168E77B789DF822609E4200F087
:105900004F817B78002B40F0BE817E70002E00F02E
:105910004581701EC0B2FFF7D1FA0346002800F09F
:105920005F814278022A40F05B81C17903F1090668
:10593000C1F340121201C1F3801142EA4112314613
:10594000387820F0300002433A705A88CDF80C8045
:105950009A180192019B8B4240F2A4814A780B2A4B
:1059600000F0AF810123042A40F03A810026019A19
:105970000096521A92B202926E4A049312781DE077
:105980006E4B1B6813EB461800F02A81029AD8F878
:10599000103003980591984708280246059906F1AA
:1059A000010303D90298904280F0FF80DEB2614B80
:1059B00000961A78531C9E4200F31281009BB2425B
:1059C000A3EB0202DCD85C4B03EB4218DEE77B78EA
:1059D00040468DF81A300DF11A02012308A900F093
:1059E00083FAE9E5BDF82200030A013B020AC0B2CE
:1059F0000E2B3FF6E9AE01A151F823F0115C001027
:105A0000AD5A00104D5C0010C9570010C957001066
:105A10002F5C0010AD5A0010C9570010C957001074
:105A2000C9570010C9570010C9570010C9570010B6
:105A3000C9570010035C001008A800F0BDFA4046EA
:105A40009DF82210FFF7A2FB3B7843F002033B7066
:105A5000B2E5BDF82230012B7FF4B6AE3B7840466C
:105A600023F0080308A93B7000F024FAA4E540469F
:105A70003B789A0802F00202C3F340131343ADF8D7
:105A80001A300DF11A02022308A900F02DFA93E54D
:105A9000BDF82230012B7FF497AE3B78404643F0AF
:105AA000080308A93B7000F005FA85E5022A3FF4D7
:105AB0007EAEFFF7DDFC024600283FF485AE40468F
:105AC000538808A900F010FA00287FF475AD7BE632
:105AD0009DF824300F2B3FF677AE164A3B441B79D6
